:1000000012C034C018C017C016C015C014C013C029
:1000100012C011C010C00FC00EC00DC00CC00BC06C
:100020000AC009C008C011241FBECFE5D4E0DEBF5E
:10003000CDBF02D02DC0E4CF81B3806281BB81B33C
:10004000806481BB85B7836085BF8BB780648BBFBD
:10005000789482B3806482BB2FEF83ED90E32150CC
:1000600080409040E1F700C00000F3CF1F920F9254
:100070000FB60F9211248F939F9392B380E289273A
:1000800082BB9F918F910F900FBE0F901F9018957C
:04009000F894FFCF12
:00000001FF
