S0100000696E745F756172742E73726563AE
S113000012C02CC02BC02AC029C028C027C026C0BB
S113001025C024C023C011C121C0ECC01FC01EC014
S11300201DC01CC01BC011241FBECFE5D4E0DEBF21
S1130030CDBF10E0A0E6B0E0E4E8F2E002C0059035
S11300400D92AE36B107D9F722E0AEE6B0E001C0BA
S11300501D92A137B207E1F702D012C1D1CF81B30B
S1130060806281BB7CD0789492B380E2892782BB82
S113007002C024D056D00FD08111FBCF80E690E08F
S113008062D02FEF84E39CE0215080409040E1F760
S113009000C00000E9CF909170018091700289172F
S11300A038F48091700290917001891B81500895F9
S11300B08091700290917001891B08959091700253
S11300C080917001981789F0E091700181E08E0FA2
S11300D080937001F0E0EF58FE4F808190917001A1
S11300E09F3F21F410927001089580E008955D9B74
S11300F017C090916E0080916F00981789F0E0917D
S11301006F0081E08E0F80936F00F0E0EF58FF4F97
S113011080818CB980916F008F3F11F410926F0031
S11301200895E0916E0091E09E0F90936E00F0E0D0
S1130130EF58FF4F808380916E008F3F11F410922F
S11301406E00D5DF0895CF93DF93EC0102C02196B2
S1130150E8DF88818111FBCFDF91CF910895109260
S11301606E0010926F001092700210927001109243
S1130170700080B58F7780BD10BC82E289B98BB1E5
S113018082608BB980B5806880BD86E880BD88EDCB
S11301908AB98EE3C6DFABDF08959CB1E0917002AB
S11301A081E08E0F80937002F0E0EF58FE4F908351
S11301B0809170028F3F11F4109270028091700050
S11301C0E82FF0E0EE59FF4F2081921310C08F5FAB
S11301D0809370008A3069F483E6A3DF99E088E1B4
S11301E00FB6F894A89581BD0FBE91BDFFCF1092B4
S11301F0700008951F920F920FB60F9211242F933F
S11302003F934F935F936F937F938F939F93AF939A
S1130210BF93EF93FF936BDFFF91EF91BF91AF918A
S11302209F918F917F916F915F914F913F912F910A
S11302300F900FBE0F901F9018951F920F920FB63C
S11302400F9211242F933F934F935F936F937F9358
S11302508F939F93AF93BF93EF93FF939EDFFF9191
S1130260EF91BF91AF919F918F917F916F915F912A
S11302704F913F912F910F900FBE0F901F901895A3
S1070280F894FFCF1C
S11102840A00424F4F544C4F41444552000073
S9030000FC
