S018000050696D704D795374796C6F70686F6E652E737265637B
S11300006DC087C086C085C084C083C0BAC081C0AB
S113001080C07FC07EC0E9C17CC0C4C17AC079C041
S113002078C077C076C027C1E8C0E7C0E6C0E5C0A5
S1130030E4C0E3C0E2C0E1C0E0C0DFC0DEC0DDC0B8
S1130040DCC0DBC0DAC0D9C0D8C0D7C0D6C0D5C0E8
S1130050D4C0D3C0D2C0D1C0D0C0CFC0CEC0CDC018
S1130060CCC0CBC0CAC0C9C0C8C0C7C0C6C0C5C048
S1130070C4C0C3C0C2C0C1C0C0C0BFC0BEC0BDC078
S1130080BCC0BBC0BAC0B9C0B8C0B7C0B6C0B5C0A8
S1130090B4C0B3C0B2C0B1C0B0C0AFC0AEC0ADC0D8
S11300A0ACC0ABC0AAC0A9C0B2C0A7C0A6C0BFC0E4
S11300B0BAC0C1C0C8C0CFC0A0C0D5C0D8C09DC040
S11300C09CC09BC09AC099C098C097C0A8C0B7C034
S11300D0C6C093C0A0C091C090C0B9C011241FBEB7
S11300E0CFE5D4E0DEBFCDBF10E0A0E6B0E0E4ECA5
S11300F0F7E002C005900D92AC36B107D9F722E0C3
S1130100ACE6B0E001C01D92A037B207E1F76ED0B3
S113011057C376CFCF93DF932EB522602EBD829541
S11301209295907F9827807F98279C0140E050E02B
S113013060E074E284EF90E005D3E901219786B191
S1130140806486B93699FECF65B170E080916C0009
S1130150681B7109072E000C880B990B04D220E050
S113016030E041E654E48BD220E030E04FE753E442
S11301705FD1C6D1C60FD71FDBBDCABDDF91CF91FA
S113018008951F920F920FB60F9211248F939F938D
S113019098B384E0892788BB9F918F910F900FBEFD
S11301A00F901F9018958EB588608EBD87E797E0F5
S11301B09BBD8ABD8EB582608EBD89B7806189BFC3
S11301C0089586B1876086B986B1806886B987B19B
S11301D0806687B987B1866087B986B1806486B93D
S11301E03699FECF85B180936C0008957894DBDF57
S11301F0E8DF8DD087B3846087BB44D090E0FC01F6
S1130200B097EB35F105C8F7ED5EFF4F099482EE28
S113021090E080DFF2CF85E191E07CDFEECF86E2F3
S113022091E078DFEACF87E391E074DFE6CF8AE4F8
S113023091E070DFE2CF8DE591E06CDFDECF82E705
S113024091E068DFDACF88E891E064DFD6CF8FE908
S113025091E060DFD2CF88EB91E05CDFCECF82ED1E
S113026091E058DFCACF8EEE91E054DFC6CF8BE029
S113027092E050DFC2CF8EB58D7F8EBD88B38B7F69
S113028088BBBBCF90916F0280916F01981789F062
S1130290E0916F0181E08E0F80936F01F0E0E059EF
S11302A0FE4F808190916F019F3F21F410926F0166
S11302B0089580E008955D9B17C090916D00809132
S11302C06E00981789F0E0916E0081E08E0F8093A4
S11302D06E00F0E0E059FF4F80818CB980916E0090
S11302E08F3F11F410926E000895E0916D0091E03B
S11302F09E0F90936D00F0E0E059FF4F8083809152
S11303006D008F3F11F410926D00D5DF08951092A7
S11303106D0010926E0010926F0210926F01109295
S11303206F0080B58F7780BD10BC82E289B98BB134
S113033082608BB980B5806880BD86E880BD88ED19
S11303408AB98EE3D2DFB7DF08959CB1E0916F02E2
S113035081E08E0F80936F02F0E0E059FE4F9083AE
S113036080916F028F3F11F410926F0280916F00A1
S1130370E82FF0E0E05AFF4F2081921310C08F5F06
S113038080936F008A3069F483E6AFDF99E088E1F7
S11303900FB6F894A89581BD0FBE91BDFFCF109202
S11303A06F0008951F920F920FB60F9211242F938E
S11303B03F934F935F936F937F938F939F93AF93E9
S11303C0BF93EF93FF9377DFFF91EF91BF91AF91CD
S11303D09F918F917F916F915F914F913F912F9159
S11303E00F900FBE0F901F9018951F920F920FB68B
S11303F00F9211242F933F934F935F936F937F93A7
S11304008F939F93AF93BF93EF93FF939EDFFF91DF
S1130410EF91BF91AF919F918F917F916F915F9178
S11304204F913F912F910F900FBE0F901F901895F1
S11304300CD0EBC0E3D040F0DAD030F021F45F3FD1
S113044019F0CCC0511115C1CFC0F0D098F3992345
S1130450C9F35523B1F3951B550BBB27AA27621784
S11304607307840738F09F5F5F4F220F331F441FC9
S1130470AA1FA9F333D00E2E3AF0E0E830D0915001
S11304805040E695001CCAF729D0FE2F27D0660FEE
S1130490771F881FBB1F261737074807AB07B0E82D
S11304A009F0BB0B802DBF01FF2793585F4F2AF043
S11304B09E3F510568F092C0DCC05F3FECF3983E6C
S11304C0DCF3869577956795B795F7959F5FC9F7A0
S11304D0880F911D9695879597F90895E1E0660F29
S11304E0771F881FBB1F621773078407BA0720F0A2
S11304F0621B730B840BBA0BEE1F88F7E09508950B
S113050004D06894B111B5C0089598D088F09F576D
S113051090F0B92F9927B751A0F0D1F0660F771F4B
S1130520881F991F1AF0BA95C9F712C0B13081F02B
S11305309FD0B1E008959CC0672F782F8827B85FBB
S113054039F0B93FCCF3869577956795B395D9F78C
S11305503EF490958095709561957F4F8F4F9F4F96
S11305600895E89409C097FB3EF4909580957095A2
S113057061957F4F8F4F9F4F9923A9F0F92F96E9EB
S1130580BB279395F695879577956795B795F11160
S1130590F8CFFAF4BB0F11F460FF1BC06F5F7F4FFD
S11305A08F4F9F4F16C0882311F096E911C077230F
S11305B021F09EE8872F762F05C0662371F096E818
S11305C0862F70E060E02AF09A95660F771F881FE7
S11305D0DAF7880F9695879597F9089597F99F67A5
S11305E080E870E060E008959FEF80EC08950024B7
S11305F00A941616170618060906089500240A9484
S113060012161306140605060895092E0394000C09
S113061011F4882352F0BB0F40F4BF2B11F460FF98
S113062004C06F5F7F4F8F4F9F4F089557FD9058C1
S1130630440F551F59F05F3F71F04795880F97FBA2
S1130640991F61F09F3F79F087950895121613065C
S11306501406551FF2CF4695F1DF08C0161617068B
S11306601806991FF1CF86957105610508940895C0
S1130670E894BB2766277727CB0197F908950BD019
S1130680C4CFB5DF28F0BADF18F0952309F0A6CF60
S1130690ABCF1124EECFCADFA0F3959FD1F3950F12
S11306A050E0551F629FF001729FBB27F00DB11DF2
S11306B0639FAA27F00DB11DAA1F649F6627B00D82
S11306C0A11D661F829F2227B00DA11D621F739F6B
S11306D0B00DA11D621F839FA00D611D221F749F79
S11306E03327A00D611D231F849F600D211D822FC0
S11306F0762F6A2F11249F5750408AF0E1F0882307
S11307004AF0EE0FFF1FBB1F661F771F881F915013
S11307105040A9F79E3F510570F060CFAACF5F3FCC
S1130720ECF3983EDCF3869577956795B795F79546
S1130730E7959F5FC1F7FE2B880F911D96958795CE
S113074097F90895052E97FB16F400940FD057FDE2
S113075005D014D007FC02D046F408C0509540954B
S1130760309521953F4F4F4F5F4F08959095809559
S1130770709561957F4F8F4F9F4F0895A1E21A2E78
S1130780AA1BBB1BFD010DC0AA1FBB1FEE1FFF1F31
S1130790A217B307E407F50720F0A21BB30BE40B81
S11307A0F50B661F771F881F991F1A9469F76095C8
S11307B07095809590959B01AC01BD01CF01089582
S10707C0F894FFCFD7
S10F07C4424F4F544C4F4144455200003A
S9030000FC
