:1000000012C05BC07CC01FC01EC01DC01CC01BC076
:100010001AC042C018C017C016C015C014C013C003
:1000200012C011C010C011241FBECFE5D4E0DEBF46
:10003000CDBF20E0A0E6B0E001C01D92A236B2071D
:10004000E1F702D07EC0DCCF1092600088E08093A0
:10005000610081B3806681BB85B7836085BF8BB744
:10006000806C8BBF85E083BF89B7816089BF78943E
:1000700082B3806282BB909160008091610098178A
:10008000D0F392B380E2892782BB92B380E48927C0
:1000900082BB10926000EFCF1F920F920FB60F92AB
:1000A00011248F93809160008F5F809360008F9107
:1000B0000F900FBE0F901F9018951F920F920FB6C2
:1000C0000F9211242F938F939F938091610080341E
:1000D00028F480916100880F809361002FEF89E6FA
:1000E00098E1215080409040E1F700C000009F91CE
:1000F0008F912F910F900FBE0F901F9018951F9208
:100100000F920FB60F9211242F938F939F9380918C
:100110006100823028F080916100869580936100B3
:100120002FEF89E698E1215080409040E1F700C030
:1001300000009F918F912F910F900FBE0F901F90F5
:060140001895F894FFCFB2
:00000001FF
