S01200005374796C6F70686F6E652E73726563DD
S11300006DC087C086C085C084C083C000C181C064
S113001080C07FC07EC0F4C17CC0CFC17AC079C02B
S113002078C077C076C0E4C0A5C0A4C0A3C0A2C0F5
S1130030A1C0A0C09FC09EC09DC09CC09BC09AC0D0
S113004099C098C097C096C095C094C093C092C000
S113005091C090C08FC08EC08DC08CC08BC08AC030
S113006089C088C087C086C085C084C083C082C060
S113007081C080C07FC07EC07DC07CC07BC07AC090
S113008079C078C077C076C075C074C073C072C0C0
S113009071C070C06FC06EC06DC06CC06BC06AC0F0
S11300A069C068C067C066C06FC064C063C07CC0FC
S11300B077C07EC085C08CC05DC092C095C05AC058
S11300C059C058C057C056C055C054C065C074C04C
S11300D083C095C05DC04EC04DC076C011241FBE04
S11300E0CFE5D4E0DEBFCDBF10E0A0E6B0E0E6ECA3
S11300F0F4E002C005900D92AC36B107D9F722E0C6
S1130100ACE6B0E001C01D92A237B207E1F72CD0F3
S1130110D8C176CF2EB522602EBD82959295907F60
S11301209827807F98279C0140E050E060E074E2CB
S113013084EF90E088D1215031093BBD2ABD8AB5B6
S11301409BB590936E0080936D0008958EB5886082
S11301508EBD87E797E09BBD8ABD8EB582608EBD5C
S113016089B7806189BF0895F1DFDCD087B38460EB
S113017087BB789492D090E0FC01B097EB35F10501
S1130180C8F7ED5EFF4F099482EE90E0C3DFF2CF33
S113019085E191E0BFDFEECF86E291E0BBDFEACFFD
S11301A087E391E0B7DFE6CF8AE491E0B3DFE2CF03
S11301B08DE591E0AFDFDECF82E791E0ABDFDACF10
S11301C088E891E0A7DFD6CF8FE991E0A3DFD2CF13
S11301D088EB91E09FDFCECF82ED91E09BDFCACF29
S11301E08EEE91E097DFC6CF8BE092E093DFC2CF33
S11301F08EB58D7F8EBD88B38B7F88BBBBCF81E0EE
S113020090916C00911180E080936C00B3CF1F92A9
S11302100F920FB60F9211242F933F938F939F93B6
S113022098B384E0892788BB80916C00882361F1AE
S1130230809160008823A1F02AB53BB580916D00C0
S113024090916E008E529F4F2817390730F48AB56B
S11302509BB50A969BBD8ABD17C01092600014C05E
S11302602AB53BB580916D0090916E00825D910935
S11302708217930730F48AB59BB50A979BBD8ABD54
S113028003C081E0809360009F918F913F912F91F3
S11302900F900FBE0F901F9018959091710280914E
S11302A07101981789F0E091710181E08E0F8093BC
S11302B07101F0E0EE58FE4F8081909171019F3FF3
S11302C021F410927101089580E008955D9B17C098
S11302D090916F0080917000981789F0E091700000
S11302E081E08E0F80937000F0E0EE58FF4F808124
S11302F08CB9809170008F3F11F4109270000895B2
S1130300E0916F0091E09E0F90936F00F0E0EE5843
S1130310FF4F808380916F008F3F11F410926F0024
S1130320D5DF089510926F00109270001092710240
S1130330109271011092710080B58F7780BD10BC4E
S113034082E289B98BB182608BB980B5806880BD47
S113035086E880BD88ED8AB98EE3D2DFB7DF0895E1
S11303609CB1E091710281E08E0F80937102F0E004
S1130370EE58FE4F9083809171028F3F11F41092DA
S1130380710280917100E82FF0E0EF59FF4F208156
S1130390921310C08F5F809371008A3069F483E6F2
S11303A0AFDF99E088E10FB6F894A89581BD0FBE40
S11303B091BDFFCF1092710008951F920F920FB656
S11303C00F9211242F933F934F935F936F937F93D7
S11303D08F939F93AF93BF93EF93FF9377DFFF9137
S11303E0EF91BF91AF919F918F917F916F915F91A9
S11303F04F913F912F910F900FBE0F901F90189522
S11304001F920F920FB60F9211242F933F934F9385
S11304105F936F937F938F939F93AF93BF93EF9368
S1130420FF939EDFFF91EF91BF91AF919F918F91C9
S11304307F916F915F914F913F912F910F900FBEDC
S11304400F901F901895052E97FB16F400940FD06B
S113045057FD05D014D007FC02D046F408C05095CF
S11304604095309521953F4F4F4F5F4F089590959C
S11304708095709561957F4F8F4F9F4F0895A1E2AE
S11304801A2EAA1BBB1BFD010DC0AA1FBB1FEE1F0A
S1130490FF1FA217B307E407F50720F0A21BB30B55
S11304A0E40BF50B661F771F881F991F1A9469F7D1
S11304B060957095809590959B01AC01BD01CF012D
S10904C00895F894FFCF3B
S10F04C601424F4F544C4F41444552003A
S9030000FC
