S0100000414C555F746573742E7372656313
S113000012C02CC02BC02AC029C028C027C026C0BB
S113001025C024C023C0FFC021C0DAC01FC01EC039
S11300201DC01CC01BC011241FBECFE5D4E0DEBF21
S1130030CDBF10E0A0E6B0E0E0E6F2E002C005903B
S11300400D92AE36B107D9F722E0AEE6B0E001C0BA
S11300501D92A137B207E1F702D000C1D1CFCF93EF
S1130060DF93CDB7DEB728970FB6F894DEBF0FBE87
S1130070CDBF63D0789487E197EBA1E5B9E3898399
S11300809A83AB83BC8380E690E04BD08C8137D0DD
S11300908B8135D08A8133D0898131D080E690E05C
S11300A040D087E197EBA1EDB8E38D839E83AF83C6
S11300B0B88788E324D08F8122D08E8120D08D818F
S11300C01ED080E690E02DD0FFCF5D9B17C09091AD
S11300D06E0080916F00981789F0E0916F0081E0C5
S11300E08E0F80936F00F0E0EF58FF4F80818CB942
S11300F080916F008F3F11F410926F000895E0918A
S11301006E0091E09E0F90936E00F0E0EF58FF4F69
S1130110808380916E008F3F11F410926E00D5DFC2
S11301200895CF93DF93EC0102C02196E8DF888124
S11301308111FBCFDF91CF91089510926E00109240
S11301406F0010927002109270011092700080B5CE
S11301508F7780BD10BC82E289B98BB182608BB984
S113016080B5806880BD86E880BD88ED8AB98EE35D
S1130170C6DFABDF08959CB1E091700281E08E0F81
S113018080937002F0E0EF58FE4F908380917002EC
S11301908F3F11F41092700280917000E82FF0E00C
S11301A0ED59FF4F2081921310C08F5F8093700030
S11301B08A3069F483E6A3DF99E088E10FB6F89406
S11301C0A89581BD0FBE91BDFFCF10927000089518
S11301D01F920F920FB60F9211242F933F934F93B8
S11301E05F936F937F938F939F93AF93BF93EF939B
S11301F0FF936BDFFF91EF91BF91AF919F918F912F
S11302007F916F915F914F913F912F910F900FBE0E
S11302100F901F9018951F920F920FB60F921124F2
S11302202F933F934F935F936F937F938F939F93FA
S1130230AF93BF93EF93FF939EDFFF91EF91BF9135
S1130240AF919F918F917F916F915F914F913F916A
S11302502F910F900FBE0F901F901895F894FFCF19
S11102600A0D00424F4F544C4F41444552008A
S9030000FC
