S01600004B6C65696E726F626F74657254312E7372656399
S11300000C94C2000C94DF000C94DF000C94DF000D
S11300100C94DF000C94DF000C94DF000C94DF00E0
S11300200C94DF000C94DF000C94B3050C94DF00F7
S11300300C94DF000C94550B0C94DF000C94310BE2
S11300400C94DF000C94DF000C94DF000C94DF00B0
S11300500C94DF00084AD73B3BCE016E84BCBFFD45
S1130060C12F3D6C74319ABD56833DDA3D00C77F84
S113007011BED9E4BB4C3E916BAAAABE000000801D
S11300803F006E616E00696E660000407A10F35A9C
S113009000A0724E18090010A5D4E80000E87648C4
S11300A0170000E40B54020000CA9A3B000000E170
S11300B0F505000080969800000040420F00000003
S11300C0A08601000000102700000000E8030000E3
S11300D000006400000000000A00000000000100AD
S11300E0000000002C76D888DC674F0823DFC1DFCE
S11300F0AE59E1B1B796E5E3E453C63AE6519976D1
S113010096E8E6C28426EB898C9B62ED407C6FFC0A
S1130110EFBC9C9F40F2BAA56FA5F490055A2AF74C
S11301205C936B6CF9676DC11BFCE0E40D47FEF555
S113013020E6B500D0ED902E0300943577050080BD
S1130140841E080000204E0A000000C80C3333331C
S1130150330F986E12831141EF8D2114893BE655BC
S113016016CFFEE6DB18D1844B381BF77C1D901D9F
S1130170A4BBE424203284725E228100C9F124EC01
S1130180A1E53D2711241FBECFE5D8E0DEBFCDBFDA
S113019010E0A0E6B0E0E6EFF9E202C005900D92AF
S11301A0AA3FB107D9F723E0AAEFB0E001C01D923E
S11301B0A334B207E1F70E9412050C94F9140C94CD
S11301C000004F925F926F927F928F929F92AF92B4
S11301D0BF92CF92DF92EF92FF922B013C0120EB72
S11301E033ED47EB58E30E94FA0E4B015C0120917A
S11301F024013091250140912601509127010E944C
S1130200900C6B017C0120EB33ED47E359E3C30110
S1130210B2010E94FA0E20911C0130911D014091FF
S11302201E0150911F010E94900C2B013C012BE8F0
S113023036E94CEF5FE3C701B6010E94FA0E9B0159
S1130240AC01C301B2010E94900C6093240170932D
S11302502501809326019093270121E134E449E7A5
S11302605FEBC701B6010E94FA0EA50194010E943A
S1130270900C60931C0170931D0180931E01909358
S11302801F01C701B601FF90EF90DF90CF90BF90A0
S1130290AF909F908F907F906F905F904F90089554
S11302A04F925F926F927F928F929F92AF92BF9282
S11302B0EF92FF920F931F93CF93DF93CDB7DEB7E7
S11302C02C970FB6F894DEBF0FBECDBF7C018B0117
S11302D0CE0101960E94560CCE0107960E94AD09EC
S11302E069817A81072E000C880B990B0E94160EE7
S11302F04B015C016D817E81072E000C880B990BEC
S11303000E94160EA50194010E940F0D4B015C0181
S113031069857A85072E000C880B990B0E94160EAE
S113032020E030E04AEF5CE30E94FA0E2AE037ED69
S113033043E25CE30E94FA0E2091380330913903C2
S113034040913A0350913B030E94900C2B013C01D5
S1130350609338037093390380933A0390933B037B
S113036020EE3EE245E652E4C501B4010E94FA0ED5
S1130370A30192010E948F0C0E94E1009B01AC0139
S1130380609138037091390380913A0390913B0353
S11303900E94900CF7016083718382839383698543
S11303A07A85072E000C880B990B0E94160E20E00C
S11303B030E04AEF5CE30E94FA0EF8016083718337
S11303C0828393832C960FB6F894DEBF0FBECDBF05
S11303D0DF91CF911F910F91FF90EF90BF90AF905D
S11303E09F908F907F906F905F904F9008954F9261
S11303F05F926F927F928F929F92AF92BF92CF92B1
S1130400DF92EF92FF920F931F9329013A019B0110
S1130410AC01C801B7010E948F0C4B015C012AE0BA
S113042037ED43E25CE30E94FA0E209133033091EE
S1130430340340913503509136030E94900C6B01B4
S11304407C0160933303709334038093350390935A
S113045036032FE538E948E750ECC501B4010E94A2
S1130460FA0E4B015C012AEF3DEE4BE65CEBC70153
S1130470B6010E94FA0E9B01AC01C501B4010E94B1
S1130480900C6B017C0127E230EA49E05BE3C30195
S1130490B2010E94FA0E9B01AC01C701B6010E9491
S11304A0900C9B01AC010E945F061F910F91FF907D
S11304B0EF90DF90CF90BF90AF909F908F907F9000
S11304C06F905F904F900895CF92DF92EF92FF92DA
S11304D0CF93DF9300D000D000D0CDB7DEB7109219
S11304E033031092340310923503109236031092A2
S11304F0030110920401109205011092060110925A
S1130500FF0010920001109201011092020110925A
S113051024011092250110922601109227011092B5
S11305201C0110921D0110921E0110921F01CE0198
S113053001960E94560C69817A81072E000C880B63
S1130540990B0E94160E6B017C016D817E81072E32
S1130550000C880B990B0E94160EA70196010E94AD
S11305600F0D20EE3EE245E652E40E94FA0E60933F
S113057038037093390380933A0390933B03269690
S11305800FB6F894DEBF0FBECDBFDF91CF91FF90C1
S1130590EF90DF90CF9008954F925F926F927F9289
S11305A08F929F92AF92BF92CF92DF92EF92FF927F
S11305B00F931F93CF93DF93CDB7DEB7EA970FB6B0
S11305C0F894DEBF0FBECDBF2B013C0149015A0197
S11305D0EFAAF8AE09AF1AAF8091FE00811138C1BD
S11305E020E030E044E352E4C501B4019F770E9467
S11305F06E0D88230CF014C10E94AE0A843609F4EF
S113060051C030F4803209F464C08136A1F179C05C
S11306108337D1F0873709F074C020E030E040E838
S11306205FE360912F0370913003809131039091C7
S113063032030E94900C60932F03709330038093D5
S11306403103909332035DC020E030E040E85FE383
S113065060912F03709130038091310390913203A4
S11306600E948F0C60932F037093300380933103A7
S11306709093320346C020E030E040E85FE36091AD
S11306802C0270912D0280912E0290912F020E94D3
S1130690900C60932C0270932D0280932E02909301
S11306A02F022FC020E030E040E85FE360912C028D
S11306B070912D0280912E0290912F020E948F0C36
S11306C060932C0270932D0280932E0290932F023C
S11306D018C010922F03109230031092310310921D
S11306E0320310922C0210922D0210922E021092BC
S11306F02F021092200110922101109222011092D7
S1130700230125E33AEF4EE85CE36FA978AD89ADA8
S11307109AAD0E94FA0E2DEC3CEC44E051E40E94A8
S1130720FA0EA30192010E94900C9B01AC0160910E
S11307302F037091300380913103909132030E9412
S11307408F0C6B017C012AE037ED43E25CE30E94ED
S1130750FA0E20910301309104014091050150915A
S113076006010E94900C2B013C01609303017093DD
S1130770040180930501909306012091FF003091BC
S113078000014091010150910201C701B6010E948C
S11307908F0C2AE037ED43E25CE30E94730D6BABF0
S11307A07CAB8DAB9EABC092FF00D0920001E09277
S11307B00101F092020126E839EC44EB5EE3C70143
S11307C0B6010E94FA0E6B017C012DEA3AEF4CE26D
S11307D05FE3C301B2010E94FA0E9B01AC01C701A1
S11307E0B6010E94900C6B017C0122E539E44DE1D5
S11307F05AE36BA97CA98DA99EA90E94FA0E9B01BC
S1130800AC01C701B6010E94900C7B018C012FA999
S113081038AD49AD5AADC501B4010E94F70178C0A5
S113082081E08093FE0089E1E8E6F0E0DE011196C4
S113083001900D928A95E1F7CE0101960E94F40A87
S113084020E030E0A901CA01B9010E945F0660C03E
S1130850CA01B9019F7720E030E040EA51E40E94E8
S11308606E0D88230CF054C0C090FA00D090FB00A9
S1130870E090FC00F090FD00C114D104E104F10407
S113088009F58AE1E1E8F0E0DE01119601900D92AC
S11308908A95E1F7CE0101960E94F40A8091FA004C
S11308A09091FB00A091FC00B091FD000196A11D68
S11308B0B11D8093FA009093FB00A093FC00B093C9
S11308C0FD0026C0C701B6010E94160E20E030E0EC
S11308D048E453E40E946E0D882374F48FEFC81A21
S11308E0D80AE80AF80AC092FA00D092FB00E09213
S11308F0FC00F092FD000CC01092FE001092FA0071
S11309001092FB001092FC001092FD000E94640201
S1130910EA960FB6F894DEBF0FBECDBFDF91CF913C
S11309201F910F91FF90EF90DF90CF90BF90AF9009
S11309309F908F907F906F905F904F900895AF92AB
S1130940BF92CF92DF92EF92FF920F931F93CF93B8
S1130950DF93CDB7DEB7C059D1090FB6F894DEBF27
S11309600FBECDBFBE016B5F7F4FCE0101960E94CB
S11309705001BE01635F7F4FCE0109960E941E089D
S11309802D853E854F85588969857A858B859C851B
S11309900E94900C20E030E040E05FE30E94FA0EF9
S11309A0D62EC72EB82EA92EED80FE800F81188575
S11309B029813A814B815C810E94CC028C818F9386
S11309C08B818F938A818F9389818F93AF92BF920A
S11309D0CF92DF928BE990E09F938F931F9280E8F0
S11309E08F938E010F5E1F4F1F930F930E94491424
S11309F0C8010E94F40A0FB6F894DEBF0FBECDBF43
S1130A00C057DF4F0FB6F894DEBF0FBECDBFDF91E6
S1130A10CF911F910F91FF90EF90DF90CF90BF90F7
S1130A20AF900895CF93DF93CDB7DEB767970FB636
S1130A30F894DEBF0FBECDBFD29AD19AD09AB99A9C
S1130A40D89A2FEF89E698E1215080409040E1F751
S1130A5000C0000089B7826089BF8DE083BF8EE447
S1130A608CBF0E94950A0E94AB080E94C8050E9490
S1130A70790B0E94C40B0E94380C0E94770A0E94D2
S1130A80A0080E9464020E94D408789488EB90E045
S1130A900E94F40AD898D99AB299FECF2FEF89E62A
S1130AA098E1215080409040E1F700C00000D998BF
S1130AB0DA9A809107018823E1F31092070180916B
S1130AC06000811103C00E945E073AC0813019F4AE
S1130AD00E949F0435C0823079F58E010F5F1F4F4D
S1130AE09E01285F3F4FAE01445F5F4FBE01605FD0
S1130AF07F4FCE0144960E94A308A884B984CA8477
S1130B00DB84EC84FD840E851F85288939894A8914
S1130B105B896C897D898E899F89EC81EF93EB8158
S1130B20EF93EA81EF93E981EF930E94A4080F9079
S1130B300F900F900F9004C0833011F40E945E0751
S1130B4080910701882309F4B4CF87E0E1E6F0E05F
S1130B50DE01119601900D928A95E1F7CE0101967E
S1130B600E94F40AA6CF1F920F920FB60F9211247F
S1130B708F939F9381E08093070198B382E0892744
S1130B8088BB9F918F910F900FBE0F901F90189567
S1130B90A79AA69A8D9A8C9A82EA8FBD88E18EBD17
S1130BA08EB581608EBD8FE193E097BD86BD0895BB
S1130BB0CF92DF92EF92FF92CF93C82F6A017B010D
S1130BC020E030E040E85FE3C701B6010E94ED0E8B
S1130BD018160CF460C020E030E040E85FEBC70179
S1130BE0B6010E946E0D88230CF452C0C1112BC0B3
S1130BF020E030E0A901C701B6010E94ED0E1816ED
S1130C004CF012C00F2EC12CD12CF0E8EF2EFFE3D4
S1130C10FF2EF02DAF9A09C00F2EC12CD12CF0E875
S1130C20EF2EFFEBFF2EF02DAF98C701B6019F7793
S1130C3020E030EC47E454E40E94FA0E0E94E50DF3
S1130C407BBD6ABD36C0C130A1F520E030E0A9010A
S1130C50C701B6010E946E0D88235CF408C00F2EF4
S1130C60C12CD12CF0E8EF2EFFEBFF2EF02DAE9A25
S1130C7001C0AE98C701B6019F7720E030EC47E48D
S1130C8054E40E94FA0E0E94E50D79BD68BD11C0BE
S1130C90CC2311F20CC0CC2309F4B4CF0F2EC12CF9
S1130CA0D12CF0E8EF2EFFE3FF2EF02DCCCFC13096
S1130CB0B1F2CF91FF90EF90DF90CF9008954F92D3
S1130CC05F926F927F928F929F92AF92BF92CF92D8
S1130CD0DF92EF92FF92CF93DF93CDB7DEB72897E1
S1130CE00FB6F894DEBF0FBECDBF4B015C01298364
S1130CF03A834B835C830E94B5086D837E838F8324
S1130D00988720E030E0A901C501B4010E94ED0EEE
S1130D10181694F020E030E0A901C501B4010E9446
S1130D206E0D882394F40F2EC12CD12CF0E8EF2EF5
S1130D30FFE3FF2EF02D0CC00F2EC12CD12CF0E8B8
S1130D40EF2EFFEBFF2EF02D03C0C12CD12C76012A
S1130D5020E030E0A90169817A818B819C810E9425
S1130D60ED0E1816A4F020E030E0A90169817A8123
S1130D708B819C810E946E0D882394F40F2E412C4C
S1130D80512CF0E86F2EFFEB7F2EF02D0CC00F2EB0
S1130D90412C512CF0E86F2EFFE37F2EF02D03C081
S1130DA0412C512C32012D813E814F8158856DECAF
S1130DB07CEC84E091E40E94730D6D837E838F83C9
S1130DC0988728E439EA44E05CE3C501B4010E9451
S1130DD0FA0E4B015C012AED36EE46E45CE3C701F2
S1130DE0B6010E94FA0E9B01AC01C501B4010E9438
S1130DF0900C2D813E814F8158850E94FA0E4B0143
S1130E005C0123EF3DE848EE5BE369817A818B81E5
S1130E109C810E94FA0E6B017C012AED36EE46E4B9
S1130E205CE3C301B2010E94FA0E9B01AC01C7014D
S1130E30B6010E94900C2D813E814F8158850E94FD
S1130E40FA0E6B017C01C501B4019F772AE037EDEE
S1130E5043E25CE30E946E0D88231CF4812C912CE8
S1130E6054012AE037ED43E25CE3C701B6019F7702
S1130E700E946E0D88231CF4C12CD12C7601B5017F
S1130E80A40180E00E94D805B701A60181E00E9478
S1130E90D80528960FB6F894DEBF0FBECDBFDF91FC
S1130EA0CF91FF90EF90DF90CF90BF90AF909F9045
S1130EB08F907F906F905F904F9008954F925F92C4
S1130EC06F927F928F929F92AF92BF92CF92DF9256
S1130ED0EF92FF920E94AE0A843609F451C030F4B6
S1130EE0803209F464C08136A1F179C08337D1F02E
S1130EF0873709F074C020E030E040E85FE3609198
S1130F002F037091300380913103909132030E943A
S1130F10900C60932F03709330038093310390936C
S1130F2032035DC020E030E040E85FE360912F03CE
S1130F307091300380913103909132030E948F0CA1
S1130F4060932F03709330038093310390933203A3
S1130F5046C020E030E040E85FE360912C027091ED
S1130F602D0280912E0290912F020E94900C60938A
S1130F702C0270932D0280932E0290932F022FC087
S1130F8020E030E040E85FE360912C0270912D0294
S1130F9080912E0290912F020E948F0C60932C025C
S1130FA070932D0280932E0290932F0218C01092FA
S1130FB02F031092300310923103109232031092D7
S1130FC02C0210922D0210922E0210922F021092D7
S1130FD02001109221011092220110922301C0904D
S1130FE02F03D0903003E0903103F09032038090CF
S1130FF02C0290902D02A0902E02B0902F02A501F9
S11310009401C701B6010E948F0C2B013C01A5017C
S11310109401C701B6010E94900CA30192010E94A1
S11310205F06FF90EF90DF90CF90BF90AF909F90BE
S11310308F907F906F905F904F9008954F925F9242
S11310406F927F928F929F92AF92BF92CF92DF92D4
S1131050EF92FF920F931F93CF93DF93EC018B01D9
S113106080E00E94EB0B4B015C0181E00E94EB0BE2
S11310706B017C018091080190910901A0910A0102
S1131080B0910B0126013701481A590A6A0A7B0AF2
S113109080910C0190910D01A0910E01B0910F016E
S11310A0A5019401281B390B4A0B5B0BCA01B9013A
S11310B00E94160E2AEE3AEB4CEB5BE30E94FA0E0A
S11310C02AE037ED43E25CE30E94730D6883798381
S11310D08A839B83C301B2010E94160E2AEE3AEB67
S11310E04CEB5BE30E94FA0E2AE037ED43E25CE34B
S11310F00E94730DF80160837183828393838092CD
S11311000C0190920D01A0920E01B0920F01C092B9
S11311100801D0920901E0920A01F0920B01DF91DB
S1131120CF911F910F91FF90EF90DF90CF90BF90E0
S1131130AF909F908F907F906F905F904F900895A5
S11311400E94840A08950895CF93DF93CDB7DEB744
S1131150DF91CF91089587B1836287B986B187689B
S113116086B9369A3699FECF089587B1836287B9D6
S1131170369A3699FECF65B170E080E090E00E9427
S1131180140E20E030E04FE753E40E94730D28E48E
S113119031EE42E151E40E94FA0E20E030E040E5F5
S11311A050E40E94FA0E08959F92AF92BF92CF929C
S11311B0DF92EF92FF920F931F93CF93DF93CDB7FC
S11311C0DEB76E970FB6F894DEBF0FBECDBF0E9498
S11311D0B508D62EC72EB82EA92E26E636E646EE3C
S11311E050E40E946E0D88230CF041C078941A825A
S11311F01982FE0133968CE1DF011D928A95E9F78D
S11312000F2EF2EDEF2EF0E0FF2EF02D8E010F5F8A
S11312101F4F6894992491F8AF92BF92CF92DF92B6
S1131220FF92EF921F930F930E947914C8010E94BA
S1131230F40A8BB389258BBBBFEF29E688E1B15053
S113124020408040E1F700C000008BB389258BBBB0
S11312509FEFA9E6B8E19150A040B040E1F700C08B
S113126000000FB6F894DEBF0FBECDBFD5CF6E968B
S11312700FB6F894DEBF0FBECDBFDF91CF911F91A3
S11312800F91FF90EF90DF90CF90BF90AF909F9021
S1131290089584E986BF06B604FCFDCF089594EA58
S11312A096BF06B607FEFDCF806D83B984E886BF7E
S11312B006B607FEFDCF0895CF93DF93D82FC62F30
S11312C080E00E944F09D3B984E886BF06B607FEC2
S11312D0FDCFC3B984E886BF06B607FEFDCF0E94E2
S11312E04909DF91CF9108950F931F93CF93DF9313
S11312F0082F162FD72FC42F80E00E944F0903B95F
S113130084E886BF06B607FEFDCF81E00E944F0940
S11313104C2F50E014161506CCF4E12FFD2F80E07D
S113132090E0BA0161507109A4E834EC68177907B8
S113133011F0232F01C02A2F26BF06B607FEFDCFCA
S113134023B1219301968417950781F70E944909D7
S1131350DF91CF911F910F9108950F931F93CF9316
S1131360DF9300D000D000D0CDB7DEB78C0146E0CB
S1131370BE016F5F7F4F8DE10E947409898190E007
S1131380982F88272A81822BE0E1F1E020813181A6
S1131390821B930BD80111969C938E938B8190E0C2
S11313A0982F88272C81822B22813381821B930BD7
S11313B013969C938E9312978D8190E0982F882793
S11313C02E81822B24813581821B930B15969C934D
S11313D08E93149726960FB6F894DEBF0FBECDBF3A
S11313E0DF91CF911F910F9108954F925F926F9269
S11313F07F928F929F92AF92BF92CF92DF92EF92A1
S1131400FF920F931F93CF93DF9300D000D000D0AF
S1131410CDB7DEB700E410E0C12CD12C7601812CCD
S1131420912C5401412C512C3201CE0101960E9481
S1131430AD0989819A81092E000CAA0BBB0B480EB9
S1131440591E6A1E7B1E8B819C81092E000CAA0BDF
S1131450BB0B880E991EAA1EBB1E8D819E81092E70
S1131460000CAA0BBB0BC80ED91EEA1EFB1E8FE193
S11314709EE40197F1F700C0000001501109A9F69C
S1131480E0E1F1E0689415F87594679457944794F3
S11314901694D1F751824082689415F8B594A794B4
S11314A0979487941694D1F793828282689415F85E
S11314B0F594E794D794C7941694D1F7D582C4824F
S11314C026960FB6F894DEBF0FBECDBFDF91CF9145
S11314D01F910F91FF90EF90DF90CF90BF90AF904E
S11314E09F908F907F906F905F904F90089582E0CF
S11314F080B960E085E10E945C0963E186E10E94B5
S11315005C090E94F50908958FE793E090933D03E9
S113151080933C0381E090E090933F0380933E03EB
S113152010924103109240030895109216011092F4
S113153017011092370310922B021092420380B5C8
S11315408F7780BD10BC8CE089B9599880B58068CC
S113155080BD86E880BD88ED8AB9089590913703EF
S113156080912B02981789F0E0912B0281E08E0F75
S113157080932B02F0E0E05DFD4F808190912B027F
S11315809F3F21F410922B02089580E008955D9B03
S113159017C09091160180911701981789F0E09176
S11315A0170181E08E0F80931701F0E0E45DFE4F98
S11315B080818CB9809117018F3F11F4109217012B
S11315C00895E091160191E09E0F90931601F0E0CA
S11315D0E45DFE4F8083809116018F3F11F41092D9
S11315E016010E94C70A0895CF93DF93EC01888106
S11315F0882331F021960E94E10A89918111FBCF61
S1131600DF91CF9108959CB1E091370381E08E0F73
S113161080933703F0E0E05DFD4F908380913703C2
S11316208F3F11F41092370380914203E82FF0E0CA
S1131630E151FF4F2081921311C08F5F80934203C9
S11316408A3071F483E60E94E10A99E088E10FB6DA
S1131650F894A89581BD0FBE91BDFFCF10924203AF
S113166008951F920F920FB60F9211242F933F9358
S11316704F935F936F937F938F939F93AF93BF9396
S1131680EF93FF930E94C70AFF91EF91BF91AF912F
S11316909F918F917F916F915F914F913F912F9186
S11316A00F900FBE0F901F9018951F920F920FB6B8
S11316B00F9211242F933F934F935F936F937F93D4
S11316C08F939F93AF93BF93EF93FF930E94030B6A
S11316D0FF91EF91BF91AF919F918F917F916F9106
S11316E05F914F913F912F910F900FBE0F901F90DC
S11316F01895BF9ABD9ABB9AB89ABC9A6C9A6E9A7E
S11317006B986A9888B3896188BB0895811105C074
S11317106B986A98C4986D980895813029F46B98F1
S11317206A98C0986D980895823029F46B9A6A9AE1
S1131730C3986D980895833619F488B3896188BB7A
S113174008958FB9779BFECF8FB10895CF93DF9320
S1131750D62FC42F0E94860B8D2F0E94A10B8C2F95
S11317600E94A10B83E60E94860BDF91CF9108951E
S1131770CF93C62F0E94860B8C2F0E94A10B83E669
S11317800E94860BCF91089544E060E980E00E94B6
S1131790A60B43E068E880E00E94A60B60E280E0CC
S11317A00E94B80B40E060E980E00E94A60B44E090
S11317B060E981E00E94A60B43E068E881E00E94B2
S11317C0A60B60E281E00E94B80B40E060E981E092
S11317D00E94A60B0895CF92DF92EF92FF92CF93CF
S11317E0DF93C82F0E94860B80E60E94A10B80E045
S11317F00E94A10BD82F80E00E94A10BC82ED12CEF
S1131800E12CF12C7601DD24CC24FD2A80E00E9419
S1131810A10BD82F80E00E94A10BC82ADD2A83E601
S11318200E94860BC13041F4F094E094D094C094AB
S1131830C11CD11CE11CF11CC701B601DF91CF9181
S1131840FF90EF90DF90CF900895CF93DF93D82F40
S1131850C62F82E00E94860B8D2F0E94A10B8C2F35
S11318600E94A10B83E60E94860BDF91CF9108951D
S11318706AE08CE20E94250C6BE081E30E94250C57
S113188060E08DE20E94250C60E18DE20E94250C4F
S113189068E08DE20E94250C2FEF80E792E0215052
S11318A080409040E1F700C000000895CF93DF939B
S11318B0EC0182E00E94860B82EF0E94A10B80E083
S11318C00E94A10B90E09983888380E00E94A10B81
S11318D028813981382B3983288380E00E94A10B29
S11318E090E09B838A8380E00E94A10B2A813B8144
S11318F0382B3B832A8380E00E94A10B90E09D83D8
S11319008C8380E00E94A10B2C813D81382B3D8388
S11319102C8383E60E94860BDF91CF910895505863
S1131920BB27AA270E94A70C0C94B30E0E94A50EF5
S113193038F00E94AC0E20F039F49F3F19F426F4DD
S11319400C947B0E0EF4E095E7FB0C94750EE92FD6
S11319500E94C40E58F3BA176207730784079507E9
S113196020F079F4A6F50C94E60E0EF4E0950B2E17
S1131970BA2FA02D0B01B90190010C01CA01A001DD
S11319801124FF27591B99F0593F50F4503E68F138
S11319901A16F040A22F232F342F4427585FF3CF79
S11319A0469537952795A795F0405395C9F77EF44A
S11319B01F16BA0B620B730B840BBAF09150A1F093
S11319C0FF0FBB1F661F771F881FC2F70EC0BA0F19
S11319D0621F731F841F48F4879577956795B795A1
S11319E0F7959E3F08F0B0CF9395880F08F099279C
S11319F0EE0F9795879508950E94A50E60F080E8F4
S1131A0091E009F49EEF0E94AC0E28F040E851E00A
S1131A1071F45EEF0CC00C947B0E0C94E60EE92F6F
S1131A20E0780E94C40E40F3092E052AB1F326176C
S1131A3037074807590738F00E2E07F8E02569F0F4
S1131A40E025E0640AC0EF6307F8009407FADB01BD
S1131A50B9019D01DC01CA01AD01EF930E948A0D19
S1131A600E94B30E0E943F0D5F91552339F02BED78
S1131A703FE049E450FD49EC0C94900C0895DF9349
S1131A80DD27B92FBF7740E85FE31616170648072E
S1131A905B0718F4D92F0E94F20E9F938F937F93C4
S1131AA06F930E94670FE4E5F0E00E947E0E0E94AF
S1131AB0B30E2F913F914F915F910E940D0FDD2343
S1131AC051F09058A2EA2AED3FE049EC5FE3D07868
S1131AD05D270E94A70CDF910C94B30E0E94510E57
S1131AE008F481E008950E94870D0C94B30E0E94BF
S1131AF0AC0E58F00E94A50E40F029F45F3F29F087
S1131B000C94750E51110C94E70E0C947B0E0E94EC
S1131B10C40E68F39923B1F3552391F3951B550B28
S1131B20BB27AA2762177307840738F09F5F5F4FAC
S1131B30220F331F441FAA1FA9F335D00E2E3AF0EB
S1131B40E0E832D091505040E695001CCAF72BD003
S1131B50FE2F29D0660F771F881FBB1F2617370754
S1131B604807AB07B0E809F0BB0B802DBF01FF2786
S1131B7093585F4F3AF09E3F510578F00C94750EE0
S1131B800C94E70E5F3FE4F3983ED4F38695779583
S1131B906795B795F7959F5FC9F7880F911D96953F
S1131BA0879597F90895E1E0660F771F881FBB1F9B
S1131BB0621773078407BA0720F0621B730B840B48
S1131BC0BA0BEE1F88F7E09508950E94CC0E88F0BA
S1131BD09F5798F0B92F9927B751B0F0E1F0660FED
S1131BE0771F881F991F1AF0BA95C9F714C0B1302E
S1131BF091F00E94E60EB1E008950C94E60E672F72
S1131C00782F8827B85F39F0B93FCCF3869577955C
S1131C106795B395D9F73EF4909580957095619545
S1131C207F4F8F4F9F4F0895E89409C097FB3EF470
S1131C3090958095709561957F4F8F4F9F4F992315
S1131C40A9F0F92F96E9BB279395F6958795779593
S1131C506795B795F111F8CFFAF4BB0F11F460FF53
S1131C601BC06F5F7F4F8F4F9F4F16C0882311F0AB
S1131C7096E911C0772321F09EE8872F762F05C0BF
S1131C80662371F096E8862F70E060E02AF09A955A
S1131C90660F771F881FDAF7880F9695879597F94F
S1131CA00895990F0008550FAA0BE0E8FEEF1616E9
S1131CB01706E807F907C0F012161306E407F5073C
S1131CC098F0621B730B840B950B39F40A2661F0B0
S1131CD0232B242B252B21F408950A2609F4A14053
S1131CE0A6958FEF811D811D089597F99F6780E860
S1131CF070E060E008959FEF80EC0895DF93CF9348
S1131D001F930F93FF92EF92DF927B018C016894F3
S1131D1006C0DA2EEF010E940D0FFE01E894A59192
S1131D202591359145915591A6F3EF010E94A70C99
S1131D30FE019701A801DA9469F7DF90EF90FF9014
S1131D400F911F91CF91DF91089500240A941616E4
S1131D50170618060906089500240A941216130695
S1131D60140605060895092E0394000C11F4882323
S1131D7052F0BB0F40F4BF2B11F460FF04C06F5F3F
S1131D807F4F8F4F9F4F089557FD9058440F551F15
S1131D9059F05F3F71F04795880F97FB991F61F0E9
S1131DA09F3F79F087950895121613061406551F60
S1131DB0F2CF4695F1DF08C0161617061806991FCC
S1131DC0F1CF86957105610508940895E894BB27C1
S1131DD066277727CB0197F908950E94510E08F4DE
S1131DE08FEF08959B01AC0160E070E080E89FE311
S1131DF00C94730D0E940D0F0C94B30E0E94A50E4B
S1131E0038F00E94AC0E20F0952311F00C94750E5E
S1131E100C947B0E11240C94E70E0E94C40E70F3F4
S1131E20959FC1F3950F50E0551F629FF001729F7B
S1131E30BB27F00DB11D639FAA27F00DB11DAA1F8A
S1131E40649F6627B00DA11D661F829F2227B00DD7
S1131E50A11D621F739FB00DA11D621F839FA00D62
S1131E60611D221F749F3327A00D611D231F849FB2
S1131E70600D211D822F762F6A2F11249F57504009
S1131E809AF0F1F088234AF0EE0FFF1FBB1F661F84
S1131E90771F881F91505040A9F79E3F510580F04D
S1131EA00C94750E0C94E70E5F3FE4F3983ED4F364
S1131EB0869577956795B795F795E7959F5FC1F7F1
S1131EC0FE2B880F911D9695879597F908959B0190
S1131ED0AC010C94FA0EA0E1B0E0E1E7FFE00C9451
S1131EE0E8127C011B016A01FC01178216828381BE
S1131EF081FF44C39E012F5F3F4F3901F701938156
S1131F00F10193FD859193FF81911F01882309F4C9
S1131F1031C3853239F493FD859193FF81911F017B
S1131F20853239F4B70190E00E940D145601650121
S1131F30E5CF10E0512C912CFFE1F915D8F08B324C
S1131F4079F038F4803279F08332A1F4F92DF0611C
S1131F502EC08D3261F0803369F4292D21602DC0AB
S1131F60392D3260932E892D8460982E2AC0E92D54
S1131F70E86015C097FC2DC020ED280F2A3088F4A6
S1131F8096FE06C03AE0139F200D1124122F19C0AB
S1131F908AE0589E200D1124522EE92DE0629E2ED7
S1131FA010C08E3231F496FCE5C2F92DF0649F2EF8
S1131FB008C08C3621F4292D2068922E02C0883660
S1131FC041F4F10193FD859193FF81911F018111EA
S1131FD0B3CF9BEB980F933020F4992D9061805EE2
S1131FE007C09BE9980F933008F066C1992D9F7E36
S1131FF096FF16E09F73992E853619F49064992EF6
S113200008C0863621F4392F3068932E02C011118E
S1132010115097FE07C01C3350F444244394410EDE
S113202027E00BC0183038F027E017E005C027E0A0
S11320309CE3492E02C0212F412C560184E0A80EB6
S1132040B11CF6016081718182819381042DA30109
S11320500E941F136C01F981FC87F0FF02C0F3FF9B
S113206006C091FC06C092FE06C000E205C00DE267
S113207003C00BE201C000E08C858C7019F00111E3
S11320805AC29BC297FE10C04C0CFC85F4FF04C0DE
S11320908A81813309F44A94141474F528E02415D0
S11320A078F588E0482E2CC096FC2AC0812F90E059
S11320B08C159D059CF03CEFC3163FEFD30674F0DE
S11320C0892D8068982E0AC0E2E0F0E0EC0FFD1F35
S11320D0E10FF11D8081803319F411501111F4CFF7
S11320E097FE0EC044244394410E812F90E0C816FD
S11320F0D9062CF41C1904C04424439401C010E0F4
S113210097FE06C01C141D0434F4C601019605C0D4
S113211085E090E002C081E090E001110196112376
S113212031F0212F30E02F5F3F4F820F931F252D79
S113213030E08217930714F4581A01C0512C892DEA
S1132140897049F4552039F0B70180E290E00E948B
S11321500D145A94F7CF002329F0B701802F90E093
S11321600E940D1493FC09C0552039F0B70180E397
S113217090E00E940D145A94F7CF97FE4CC046018C
S1132180D7FE02C0812C912CC60188199909F3014C
S1132190E80FF91FFE87ED87960124193109388B62
S11321A02F87012F10E01195019511093FEF831638
S11321B0930629F4B7018EE290E00E940D14C8142E
S11321C0D9044CF08F8598898815990524F4ED85F8
S11321D0FE85818101C080E3F1E08F1A91082D858D
S11321E03E852F5F3F4F3E872D87801691062CF04A
S11321F0B70190E00E940D14D9CFC814D90441F45A
S11322009A81963320F4953319F43C8534FF81E3A5
S1132210B70190E04EC08A81813319F09C859F7E7E
S11322209C87B70190E00E940D14111105C094FC25
S113223018C085E690E017C0B7018EE290E00E94D6
S11322400D141E5F82E001E0080FF301E80FF11D99
S11322508081B70190E00E940D14802F0113F3CF09
S1132260E6CF85E490E0B7010E940D14D7FC06C0C8
S1132270C114D10441F4EC85E4FF05C0D194C194A8
S1132280D1088DE201C08BE2B70190E00E940D14E9
S113229080E32AE0C216D1042CF08F5FFAE0CF1A53
S11322A0D108F7CFB70190E00E940D14B701C60121
S11322B0C0960E940D1454C1833631F0833779F0EF
S11322C0833509F056C020C0560132E0A30EB11C7C
S11322D0F6018081898301E010E0630112C0560198
S11322E0F2E0AF0EB11CF601C080D18096FE03C0AF
S11322F0612F70E002C06FEF7FEFC6010E940214ED
S11323008C01F92DFF7714C0560122E0A20EB11CF6
S1132310F601C080D18096FE03C0612F70E002C038
S11323206FEF7FEFC6010E94F7138C01F92DF0685F
S11323309F2EF3FD1AC0852D90E008171907A8F405
S1132340B70180E290E00E940D145A94F4CFF60194
S113235097FC859197FE81916F01B70190E00E94EF
S11323600D1451105A94015011090115110579F7F2
S1132370F7C0843611F0893661F5560197FE09C01D
S113238024E0A20EB11CF6016081718182819381E7
S11323900AC0F2E0AF0EB11CF60160817181072E14
S11323A0000C880B990BF92DFF769F2E97FF09C01F
S11323B090958095709561957F4F8F4F9F4FF068F2
S11323C09F2E2AE030E0A3010E949B14C82EC61859
S11323D03FC0092D853721F40F7E2AE030E01DC06F
S11323E0097F8F3691F018F4883559F0C3C08037CF
S11323F019F0883711F0BEC0006104FF09C0046001
S113240007C094FE08C0066006C028E030E005C09E
S113241020E130E002C020E132E0560107FF09C0AC
S113242084E0A80EB11CF6016081718182819381E0
S113243008C0F2E0AF0EB11CF6016081718180E04A
S113244090E0A3010E949B14C82EC6180F77902E0B
S113245096FE0BC0092D0E7FC11650F494FE0AC0DF
S113246092FC08C0092D0E7E05C0DC2C092D03C08A
S1132470DC2C01C0D12E04FF0DC0FE01EC0DF11DBA
S11324808081803311F4097E09C002FF06C0D39411
S1132490D39404C0802F867809F0D39403FD11C02F
S11324A000FF06C01C2DD51480F4150D1D190DC098
S11324B0D51458F4B70180E290E00E940D14D3942F
S11324C0F7CFD51410F45D1801C0512C04FF10C0CF
S11324D0B70180E390E00E940D1402FF17C001FDD4
S11324E003C088E790E002C088E590E0B7010CC023
S11324F0802F867859F001FF02C08BE201C080E290
S113250007FD8DE2B70190E00E940D14C11638F466
S1132510B70180E390E00E940D141150F7CFCA94E4
S1132520F301EC0DF11D8081B70190E00E940D14C0
S1132530C110F5CF15C0F4E0F51560F584E0581A24
S113254093FE1FC0011127C02C8523FF2AC002E877
S113255010E0392D3071932EF8018491811124C03B
S1132560552009F4E4CCB70180E290E00E940D14F8
S11325705A94F6CFF7018681978126C08FEF9FEF9B
S113258023C0B70180E290E00E940D145A945110C8
S1132590F8CFD8CF512CB701802F90E00E940D14B2
S11325A0D3CF06E810E0D5CF91108052B70190E068
S11325B00E940D140F5F1F4FCFCF23E0251510F499
S11325C083E0BDCF512CC0CF6096E2E10C9404139C
S11325D02F923F924F925F926F927F928F929F922F
S11325E0AF92BF92CF92DF92EF92FF920F931F931D
S11325F0CF93DF93CDB7DEB7CA1BDB0B0FB6F894CE
S1132600DEBF0FBECDBF09942A88398848885F840D
S11326106E847D848C849B84AA84B984C884DF807E
S1132620EE80FD800C811B81AA81B981CE0FD11D62
S11326300FB6F894DEBF0FBECDBFED01089528306C
S113264008F027E03327DA01990F311D87FD9160E7
S113265000966105710539F432602E5F3D9330E3D5
S11326602A95E1F708959F3F30F0803871056105A0
S113267009F03C5F3C5F3D93913008F08068911D08
S1132680DF93CF931F930F93FF92EF92192F987FAD
S11326909695E92F96959695E90FFF27EC51FF4FF4
S11326A099273327EE24FF24A701E7010590089416
S11326B0079428F4360FE71EF81E491F511D660FB4
S11326C0771F881F991F0694A1F70590079428F493
S11326D0E70EF81E491F561FC11D770F881F991F4B
S11326E0661F0694A1F70590079428F4F80E491F75
S11326F0561FC71FD11D880F991F661F771F069489
S1132700A1F70590079420F4490F561FC71FD81F3F
S1132710990F661F771F881F0694A9F78491109557
S1132720177041F0D695C79557954795F794E79458
S11327301A95C1F7EAE8F0E068941590159135917F
S11327406591959105907FE27395E118F10A430B29
S1132750560BC90BD009C0F7E10CF11E431F561FDD
S1132760C91FD01D7EF4703311F48A95E6CFE89426
S1132770015030F0080F0AF40027021708F4202F44
S11327802395022F7A3328F079E37D932A95E9F78C
S113279010C07D932A9589F6069497956795379589
S11327A017951794E118F10A430B560BC90BD0097E
S11327B098F023957E9173957A3308F070E37C93B7
S11327C02013B8F77E9170617D9330F0839571E3A7
S11327D07D9370E32A95E1F71124EF90FF900F9118
S11327E01F91CF91DF91992787FD90950895FC0162
S11327F00590615070400110D8F7809590958E0F28
S11328009F1F0895FC016150704001900110D8F79A
S1132810809590958E0F9F1F08950F931F93CF93CC
S1132820DF93FB01238121FD03C08FEF9FEF2CC0B9
S113283022FF16C0468157812481358142175307F0
S113284044F4A081B1819D012F5F3F4F31832083E8
S11328508C93268137812F5F3F4F3783268314C0A3
S11328608B01EC01FB010084F185E02D0995892B96
S1132870E1F6D80116968D919C91179701961796BB
S11328809C938E931697CE01DF91CF911F910F9158
S11328900895AEE0B0E0EFE4F4E10C94F6120D8993
S11328A01E898F89988D26E02C831A83098397FFCC
S11328B002C080E090E801979E838D83AE01455E5F
S11328C05F4F698D7A8DCE0101960E946B0F4D8109
S11328D05E8157FD0AC02F813885421753070CF4D7
S11328E09A01F801E20FF31F10822E96E4E00C9493
S11328F01213AEE0B0E0EFE7F4E10C94F6120D89A8
S11329001E8986E08C831A8309838FEF9FE79E8359
S11329108D83AE01475E5F4F6F89788DCE0101963E
S11329200E946B0FEF81F885E00FF11F10822E9645
S1132930E4E00C941213FA01AA27283051F1203153
S113294081F1E8946F936E7F6E5F7F4F8F4F9F4F3F
S1132950AF4FB1E03ED0B4E03CD0670F781F891F81
S11329609A1FA11D680F791F8A1F911DA11D6A0F4F
S1132970711D811D911DA11D20D009F468943F9102
S11329802AE0269F11243019305D3193DEF6CF0101
S11329900895462F4770405D4193B3E00FD0C9F7C7
S11329A0F6CF462F4F70405D4A3318F0495D31FD34
S11329B04052419302D0A9F7EACFB4E0A695979587
S11329C0879577956795BA95C9F70097610571055D
S11329D008959B01AC010A2E0694579547953795A7
S11329E02795BA95C9F7620F731F841F951FA01D01
S10929F00895F894FFCFE6
S11329F6016D6973730D0A00526F626F74657220FC
S1132A0669737420756D676566616C6C656E0D0A15
S1132A1600526561637469766174696F6E20696ECC
S1132A26203220736563733A0D0A0076526164207E
S1132A363D2025332E35662C20416C7068613A2082
S1132A4625332E35660A0D0046494E4953484544FA
S1132A5620494E495449414C495A4154494F4E0D17
S1132A660A00416B6B75206C6565722120555F41C8
S1132A766B6B75203D20252E316656200A0D0042CB
S10D2A864F4F544C4F414445520099
S9030000FC
