S01600004B6C65696E726F626F74657254312E7372656399
S11300000C94AB000C94C8000C94C8000C94C80069
S11300100C94C8000C94C8000C94C8000C94C8003C
S11300200C94C8000C94C8000C946D010C94C80086
S11300300C94C8000C9473070C94C8000C944F07DC
S11300400C94C8000C94C8000C94C8000C94C8000C
S11300500C94C8006E616E00696E660000407A10F0
S1130060F35A00A0724E18090010A5D4E80000E865
S11300707648170000E40B54020000CA9A3B0000C3
S113008000E1F505000080969800000040420F0052
S11300900000A08601000000102700000000E80313
S11300A0000000006400000000000A0000000000DE
S11300B00100000000002C76D888DC674F0823DF9D
S11300C0C1DFAE59E1B1B796E5E3E453C63AE65170
S11300D0997696E8E6C28426EB898C9B62ED407C97
S11300E06FFCEFBC9C9F40F2BAA56FA5F490055A33
S11300F02AF75C936B6CF9676DC11BFCE0E40D4758
S1130100FEF520E6B500D0ED902E0300943577057A
S11301100080841E080000204E0A000000C80C3332
S11301203333330F986E12831141EF8D2114893BC1
S1130130E65516CFFEE6DB18D1844B381BF77C1D41
S1130140901DA4BBE424203284725E228100C9F194
S113015024ECA1E53D2711241FBECFE5D8E0DEBF86
S1130160CDBF10E0A0E6B0E0E6E7F0E202C0059003
S11301700D92A43EB107D9F723E0A4EEB0E001C08C
S11301801D92A031B207E1F70E94CC000C94391003
S11301900C94000008950895CF93DF93CDB7DEB794
S11301A067970FB6F894DEBF0FBECDBFD29AD19A2F
S11301B0D09AB99AD89A2FEF89E698E121508040D5
S11301C09040E1F700C0000089B7826089BF8DE0EC
S11301D083BF8EE48CBF0E94B3060E94C9040E94B0
S11301E082010E9497070E94E2070E9456080E941B
S11301F095060E94BE040E94CA000E94F2047894EC
S113020088E690E00E941207D898D99AB299FECF56
S11302102FEF89E698E1215080409040E1F700C03B
S11302200000D998DA9A8091E4008823E1F31092CF
S1130230E40080916000811103C00E9480033AC0F1
S1130240813019F40E94CB0035C0823079F58E01DB
S11302500F5F1F4F9E01285F3F4FAE01445F5F4F0A
S1130260BE01605F7F4FCE0144960E94C104A88402
S1130270B984CA84DB84EC84FD840E851F852889B7
S113028039894A895B896C897D898E899F89EC814A
S1130290EF93EB81EF93EA81EF93E981EF930E946F
S11302A0C2040F900F900F900F9004C0833011F48C
S11302B00E9480038091E400882309F4B4CF87E08E
S11302C0E1E6F0E0DE01119601900D928A95E1F7E6
S11302D0CE0101960E941207A6CF1F920F920FB66D
S11302E00F9211248F939F9381E08093E40098B33D
S11302F082E0892788BB9F918F910F900FBE0F904A
S11303001F901895A79AA69A8D9A8C9A82EA8FBD07
S113031088E18EBD8EB581608EBD8FE193E097BD7F
S113032086BD0895CF92DF92EF92FF92CF93C82FAC
S11303306A017B0120E030E040E85FE3C701B601D9
S11303400E94390A18160CF460C020E030E040E83E
S11303505FEBC701B6010E94E10888230CF452C088
S1130360C1112BC020E030E0A901C701B6010E94F1
S1130370390A18164CF012C00F2EC12CD12CF0E8FB
S1130380EF2EFFE3FF2EF02DAF9A09C00F2EC12CE4
S1130390D12CF0E8EF2EFFEBFF2EF02DAF98C70124
S11303A0B6019F7720E030EC47E454E40E943E0A13
S11303B00E9458097BBD6ABD36C0C130A1F520E05A
S11303C030E0A901C701B6010E94E10888235CF46A
S11303D008C00F2EC12CD12CF0E8EF2EFFEBFF2E1E
S11303E0F02DAE9A01C0AE98C701B6019F7720E008
S11303F030EC47E454E40E943E0A0E94580979BD57
S113040068BD11C0CC2311F20CC0CC2309F4B4CFC5
S11304100F2EC12CD12CF0E8EF2EFFE3FF2EF02D90
S1130420CCCFC130B1F2CF91FF90EF90DF90CF905D
S113043008954F925F926F927F928F929F92AF92A4
S1130440BF92CF92DF92EF92FF92CF93DF93CDB71B
S1130450DEB72C970FB6F894DEBF0FBECDBF6D8309
S11304607E838F83988769017A010E94D30469830C
S11304707A838B839C8320E030E0A9016D817E81A7
S11304808F8198850E94390A1816A4F020E030E084
S1130490A9016D817E818F8198850E94E10888235E
S11304A094F40F2E812C912CF0E8AF2EFFE3BF2E95
S11304B0F02D0CC00F2E812C912CF0E8AF2EFFEB09
S11304C0BF2EF02D03C0812C912C540120E030E08C
S11304D0A901C701B6010E94390A181694F020E058
S11304E030E0A901C701B6010E94E108882394F411
S11304F00F2E412C512CF0E86F2EFFEB7F2EF02DA8
S11305000CC00F2E412C512CF0E86F2EFFE37F2EF0
S1130510F02D03C0412C512C320129813A814B81A9
S11305205C816DEC7CEC84E091E40E94E6086983D4
S11305307A838B839C8328E439EA44E05CE3C70133
S1130540B6010E943E0A6B017C012AED36EE46E4B8
S11305505CE3C301B2010E943E0A9B01AC01C701E6
S1130560B6010E94750829813A814B815C810E9401
S11305703E0A69877A878B879C8728E439EA44E0B6
S11305805CE36D817E818F8198850E943E0A6B01B8
S11305907C012AED36EE46E45CE3C501B4010E9419
S11305A03E0A9B01AC01C701B6010E94750829816E
S11305B03A814B815C810E943E0AAB01BC0180E020
S11305C00E94920149855A856B857C8581E00E9451
S11305D092012C960FB6F894DEBF0FBECDBFDF910B
S11305E0CF91FF90EF90DF90CF90BF90AF909F900E
S11305F08F907F906F905F904F9008954F925F928D
S11306006F927F928F929F92AF92BF92CF92DF921E
S1130610EF92FF920F931F93CF93DF93EC018B0123
S113062080E00E9409084B015C0181E00E940908F6
S11306306B017C018091E5009091E600A091E700B8
S1130640B091E80026013701481A590A6A0A7B0A60
S11306508091E9009091EA00A091EB00B091EC0048
S1130660A5019401281B390B4A0B5B0BCA01B90184
S11306700E9489092AEE3AEB4CEB5BE30E943E0AA6
S11306802AE037ED43E25CE30E94E608688379835D
S11306908A839B83C301B2010E9489092AEE3AEB43
S11306A04CEB5BE30E943E0A2AE037ED43E25CE355
S11306B00E94E608F80160837183828393838092A9
S11306C0E9009092EA00A092EB00B092EC00C09294
S11306D0E500D092E600E092E700F092E800DF91B6
S11306E0CF911F910F91FF90EF90DF90CF90BF902B
S11306F0AF909F908F907F906F905F904F900895F0
S11307002F923F924F925F926F927F928F929F921D
S1130710AF92BF92CF92DF92EF92FF920F931F930B
S1130720CF93DF93CDB7DEB7CE59D1090FB6F89486
S1130730DEBF0FBECDBF0E94CC06843609F451C083
S113074030F4803209F464C08136A1F179C0833772
S1130750D1F0873709F074C020E030E040E85FE36F
S1130760609104037091050380910603909107033F
S11307700E94750860930403709305038093060335
S1130780909307035DC020E030E040E85FE36091B0
S113079004037091050380910603909107030E945E
S11307A07408609304037093050380930603909385
S11307B0070346C020E030E040E85FE360910102B7
S11307C07091020280910302909104020E947508C4
S11307D060930102709302028093030290930402D7
S11307E02FC020E030E040E85FE3609101027091A7
S11307F0020280910302909104020E9474086093A3
S1130800010270930202809303029093040218C0C1
S1130810109204031092050310920603109207032A
S1130820109201021092020210920302109204022A
S11308301092F9001092FA001092FB001092FC0042
S113084040900403509005036090060370900703E2
S1130850C0900102D0900202E0900302F0900402E2
S1130860A7019601C301B2010E947408862E972E37
S1130870282E392EA7019601C301B2010E947508E2
S1130880E62EF72E082F192FBE0165567F4FCE0195
S113089089569F4F0E94FE023F922F929F928F9201
S11308A0C256DF4F8881CE59D0408F93C356DF4F55
S11308B08881CD59D0408F93C456DF4F8881CC595D
S11308C0D0408F93C556DF4F8881CB59D0408F934A
S11308D01F930F93FF92EF92C656DF4F8881CA5938
S11308E0D0408F93C756DF4F8881C959D0408F932A
S11308F0C856DF4F8881C859D0408F93C956DF4FFF
S11309008881C759D0408F9382E890E09F938F935A
S11309101F9286E98F93CE0101965C019F938F937A
S11309200E94890FC5010E941207282D392D422DDE
S1130930532D6E2D7F2D802F912F0E9419020FB6FB
S1130940F894DEBF0FBECDBFC256DF4F0FB6F8948A
S1130950DEBF0FBECDBFDF91CF911F910F91FF90EE
S1130960EF90DF90CF90BF90AF909F908F907F904B
S11309706F905F904F903F902F9008950E94A20631
S113098008950895CF93DF93CDB7DEB7DF91CF916C
S1130990089587B1836287B986B1876886B9369A24
S11309A03699FECF089587B1836287B9369A36990E
S11309B0FECF65B170E080E090E00E94870920E0FE
S11309C030E04FE753E40E94E60828E431EE42E1C8
S11309D051E40E943E0A20E030E040E550E40E94E9
S11309E03E0A08959F92AF92BF92CF92DF92EF9208
S11309F0FF920F931F93CF93DF93CDB7DEB76E971C
S1130A000FB6F894DEBF0FBECDBF0E94D304D62E1E
S1130A10C72EB82EA92E26E636E646EE50E40E94EE
S1130A20E10888230CF041C078941A821982FE01EF
S1130A3033968CE1DF011D928A95E9F70F2EFBEBCB
S1130A40EF2EF0E0FF2EF02D8E010F5F1F4F689404
S1130A50992491F8AF92BF92CF92DF92FF92EF92D6
S1130A601F930F930E94B90FC8010E9412078BB302
S1130A7089258BBBBFEF29E688E1B1502040804037
S1130A80E1F700C000008BB389258BBB9FEFA9E67B
S1130A90B8E19150A040B040E1F700C000000FB6AB
S1130AA0F894DEBF0FBECDBFD5CF6E960FB6F894C7
S1130AB0DEBF0FBECDBFDF91CF911F910F91FF908D
S1130AC0EF90DF90CF90BF90AF909F90089584E90E
S1130AD086BF06B604FCFDCF089594EA96BF06B619
S1130AE007FEFDCF806D83B984E886BF06B607FE96
S1130AF0FDCF0895CF93DF93D82FC62F80E00E94B7
S1130B006D05D3B984E886BF06B607FEFDCFC3B929
S1130B1084E886BF06B607FEFDCF0E946705DF9115
S1130B20CF9108950F931F93CF93DF93082F162F20
S1130B30D72FC42F80E00E946D0503B984E886BFD7
S1130B4006B607FEFDCF81E00E946D054C2F50E0F4
S1130B5014161506CCF4E12FFD2F80E090E0BA01C5
S1130B6061507109A4E834EC6817790711F0232F58
S1130B7001C02A2F26BF06B607FEFDCF23B121935D
S1130B8001968417950781F70E946705DF91CF913D
S1130B901F910F9108950F931F93CF93DF9300D06C
S1130BA000D000D0CDB7DEB78C0146E0BE016F5F48
S1130BB07F4F8DE10E949205898190E0982F8827CC
S1130BC02A81822BEDEEF0E020813181821B930B90
S1130BD0D80111969C938E938B8190E0982F88274F
S1130BE02C81822B22813381821B930B13969C933D
S1130BF08E9312978D8190E0982F88272E81822BD7
S1130C0024813581821B930B15969C938E931497A4
S1130C1026960FB6F894DEBF0FBECDBFDF91CF91FD
S1130C201F910F9108954F925F926F927F928F92CE
S1130C309F92AF92BF92CF92DF92EF92FF920F9367
S1130C401F93CF93DF9300D000D000D0CDB7DEB791
S1130C5000E410E0C12CD12C7601812C912C54019C
S1130C60412C512C3201CE0101960E94CB05898181
S1130C709A81092E000CAA0BBB0B480E591E6A1E42
S1130C807B1E8B819C81092E000CAA0BBB0B880E4A
S1130C90991EAA1EBB1E8D819E81092E000CAA0BD3
S1130CA0BB0BC80ED91EEA1EFB1E8FE19EE4019702
S1130CB0F1F700C0000001501109A9F6EDEEF0E0D3
S1130CC0689415F875946794579447941694D1F7DB
S1130CD051824082689415F8B594A79497948794A8
S1130CE01694D1F793828282689415F8F594E79468
S1130CF0D794C7941694D1F7D582C48226960FB69A
S1130D00F894DEBF0FBECDBFDF91CF911F910F913D
S1130D10FF90EF90DF90CF90BF90AF909F908F9017
S1130D207F906F905F904F90089582E080B960E06B
S1130D3085E10E947A0563E186E10E947A050E94BA
S1130D40130608958FE793E090930A0380930903B1
S1130D5081E090E090930C0380930B0310920E03B8
S1130D6010920D0308951092F3001092F400109263
S1130D7008031092000210920F0380B58F7780BD94
S1130D8010BC8CE089B9599880B5806880BD86E82C
S1130D9080BD88ED8AB9089590910803809100027E
S1130DA0981789F0E091000281E08E0F8093000291
S1130DB0F0E0EB5FFD4F8081909100029F3F21F4B2
S1130DC010920002089580E008955D9B17C09091F1
S1130DD0F3008091F400981789F0E091F40081E029
S1130DE08E0F8093F400F0E0EF5FFE4F80818CB9AA
S1130DF08091F4008F3F11F41092F4000895E09173
S1130E00F30091E09E0F9093F300F0E0EF5FFE4F4C
S1130E1080838091F3008F3F11F41092F3000E94BD
S1130E20E5060895CF93DF93EC018881882331F0A0
S1130E3021960E94FF0689918111FBCFDF91CF910A
S1130E4008959CB1E091080381E08E0F809308031C
S1130E50F0E0EB5FFD4F9083809108038F3F11F426
S1130E601092080380910F03E82FF0E0E852FF4F3F
S1130E702081921311C08F5F80930F038A3071F425
S1130E8083E60E94FF0699E088E10FB6F894A895DE
S1130E9081BD0FBE91BDFFCF10920F0308951F9225
S1130EA00F920FB60F9211242F933F934F935F939A
S1130EB06F937F938F939F93AF93BF93EF93FF931E
S1130EC00E94E506FF91EF91BF91AF919F918F91A1
S1130ED07F916F915F914F913F912F910F900FBE32
S1130EE00F901F9018951F920F920FB60F92112416
S1130EF02F933F934F935F936F937F938F939F931E
S1130F00AF93BF93EF93FF930E942107FF91EF915B
S1130F10BF91AF919F918F917F916F915F914F910D
S1130F203F912F910F900FBE0F901F901895BF9A6D
S1130F30BD9ABB9AB89ABC9A6C9A6E9A6B986A9846
S1130F4088B3896188BB0895811105C06B986A983C
S1130F50C4986D980895813029F46B986A98C09864
S1130F606D980895823029F46B9A6A9AC3986D98A3
S1130F700895833619F488B3896188BB08958FB9BD
S1130F80779BFECF8FB10895CF93DF93D62FC42FD5
S1130F900E94A4078D2F0E94BF078C2F0E94BF07B9
S1130FA083E60E94A407DF91CF910895CF93C62FC3
S1130FB00E94A4078C2F0E94BF0783E60E94A40707
S1130FC0CF91089544E060E980E00E94C40743E0C3
S1130FD068E880E00E94C40760E280E00E94D607CF
S1130FE040E060E980E00E94C40744E060E981E0F9
S1130FF00E94C40743E068E881E00E94C40760E2FD
S113100081E00E94D60740E060E981E00E94C407C5
S11310100895CF92DF92EF92FF92CF93DF93C82F80
S11310200E94A40780E60E94BF0780E00E94BF07D9
S1131030D82F80E00E94BF07C82ED12CE12CF12CC0
S11310407601DD24CC24FD2A80E00E94BF07D82F3E
S113105080E00E94BF07C82ADD2A83E60E94A40715
S1131060C13041F4F094E094D094C094C11CD11CDC
S1131070E11CF11CC701B601DF91CF91FF90EF9005
S1131080DF90CF900895CF93DF93D82FC62F82E0BF
S11310900E94A4078D2F0E94BF078C2F0E94BF07B8
S11310A083E60E94A407DF91CF9108956AE08CE261
S11310B00E9443086BE081E30E94430860E08DE2F4
S11310C00E94430860E18DE20E94430868E08DE2DB
S11310D00E9443082FEF80E792E021508040904027
S11310E0E1F700C0000008955058BB27AA270E94CA
S11310F08C080C94FF090E94F10938F00E94F80949
S113110020F039F49F3F19F426F40C94EE090EF400
S1131110E095E7FB0C94E809E92F0E94100A58F3C4
S1131120BA17620773078407950720F079F4A6F5C8
S11311300C94320A0EF4E0950B2EBA2FA02D0B015D
S1131140B90190010C01CA01A0011124FF27591B08
S113115099F0593F50F4503E68F11A16F040A22F0E
S1131160232F342F4427585FF3CF4695379527957F
S1131170A795F0405395C9F77EF41F16BA0B620B7E
S1131180730B840BBAF09150A1F0FF0FBB1F661FC5
S1131190771F881FC2F70EC0BA0F621F731F841F08
S11311A048F4879577956795B795F7959E3F08F02E
S11311B0B0CF9395880F08F09927EE0F97958795F0
S11311C008950E94C40908F481E008950E94FA0871
S11311D00C94FF090E94F80958F00E94F10940F0AC
S11311E029F45F3F29F00C94E80951110C94330A57
S11311F00C94EE090E94100A68F39923B1F3552365
S113120091F3951B550BBB27AA2762177307840715
S113121038F09F5F5F4F220F331F441FAA1FA9F3AB
S113122035D00E2E3AF0E0E832D091505040E69599
S1131230001CCAF72BD0FE2F29D0660F771F881FFA
S1131240BB1F261737074807AB07B0E809F0BB0BED
S1131250802DBF01FF2793585F4F3AF09E3F510501
S113126078F00C94E8090C94330A5F3FE4F3983E59
S1131270D4F3869577956795B795F7959F5FC9F7EA
S1131280880F911D9695879597F90895E1E0660F6B
S1131290771F881FBB1F621773078407BA0720F0E4
S11312A0621B730B840BBA0BEE1F88F7E09508954D
S11312B00E94180A88F09F5798F0B92F9927B751C0
S11312C0B0F0E1F0660F771F881F991F1AF0BA95E6
S11312D0C9F714C0B13091F00E94320AB1E0089508
S11312E00C94320A672F782F8827B85F39F0B93FFA
S11312F0CCF3869577956795B395D9F73EF4909599
S11313008095709561957F4F8F4F9F4F0895E89416
S113131009C097FB3EF490958095709561957F4F39
S11313208F4F9F4F9923A9F0F92F96E9BB279395E7
S1131330F695879577956795B795F111F8CFFAF4F7
S1131340BB0F11F460FF1BC06F5F7F4F8F4F9F4F28
S113135016C0882311F096E911C0772321F09EE886
S1131360872F762F05C0662371F096E8862F70E0EC
S113137060E02AF09A95660F771F881FDAF7880FC6
S11313809695879597F90895990F0008550FAA0B1C
S1131390E0E8FEEF16161706E807F907C0F0121684
S11313A01306E407F50798F0621B730B840B950B87
S11313B039F40A2661F0232B242B252B21F40895DC
S11313C00A2609F4A140A6958FEF811D811D089579
S11313D097F99F6780E870E060E008959FEF80ECE4
S11313E0089500240A941616170618060906089587
S11313F000240A9412161306140605060895092EED
S11314000394000C11F4882352F0BB0F40F4BF2B5B
S113141011F460FF04C06F5F7F4F8F4F9F4F08959B
S113142057FD9058440F551F59F05F3F71F0479591
S1131430880F97FB991F61F09F3F79F08795089576
S1131440121613061406551FF2CF4695F1DF08C095
S1131450161617061806991FF1CF869571056105B2
S113146008940895E894BB2766277727CB0197F95A
S113147008950E94C40908F48FEF08950E94510A48
S11314800C94FF090E94F10938F00E94F80920F039
S1131490952311F00C94E8090C94EE0911240C9492
S11314A0330A0E94100A70F3959FC1F3950F50E020
S11314B0551F629FF001729FBB27F00DB11D639F02
S11314C0AA27F00DB11DAA1F649F6627B00DA11DA8
S11314D0661F829F2227B00DA11D621F739FB00D4E
S11314E0A11D621F839FA00D611D221F749F3327BE
S11314F0A00D611D231F849F600D211D822F762F57
S11315006A2F11249F5750409AF0F1F088234AF033
S1131510EE0FFF1FBB1F661F771F881F915050409F
S1131520A9F79E3F510580F00C94E8090C94330A06
S11315305F3FE4F3983ED4F3869577956795B79526
S1131540F795E7959F5FC1F7FE2B880F911D969540
S1131550879597F90895A0E1B0E0E1EBFAE00C94E7
S1131560280E7C011B016A01FC011782168283810B
S113157081FF44C39E012F5F3F4F3901F7019381DF
S1131580F10193FD859193FF81911F01882309F453
S113159031C3853239F493FD859193FF81911F0105
S11315A0853239F4B70190E00E944D0F5601650170
S11315B0E5CF10E0512C912CFFE1F915D8F08B32D6
S11315C079F038F4803279F08332A1F4F92DF061A6
S11315D02EC08D3261F0803369F4292D21602DC035
S11315E0392D3260932E892D8460982E2AC0E92DDE
S11315F0E86015C097FC2DC020ED280F2A3088F430
S113160096FE06C03AE0139F200D1124122F19C034
S11316108AE0589E200D1124522EE92DE0629E2E60
S113162010C08E3231F496FCE5C2F92DF0649F2E81
S113163008C08C3621F4292D2068922E02C08836E9
S113164041F4F10193FD859193FF81911F01811173
S1131650B3CF9BEB980F933020F4992D9061805E6B
S113166007C09BE9980F933008F066C1992D9F7EBF
S113167096FF16E09F73992E853619F49064992E7F
S113168008C0863621F4392F3068932E02C0111118
S1131690115097FE07C01C3350F444244394410E68
S11316A027E00BC0183038F027E017E005C027E02A
S11316B09CE3492E02C0212F412C560184E0A80E40
S11316C0B11CF6016081718182819381042DA30193
S11316D00E945F0E6C01F981FC87F0FF02C0F3FFEA
S11316E006C091FC06C092FE06C000E205C00DE2F1
S11316F003C00BE201C000E08C858C7019F001116D
S11317005AC29BC297FE10C04C0CFC85F4FF04C067
S11317108A81813309F44A94141474F528E0241559
S113172078F588E0482E2CC096FC2AC0812F90E0E2
S11317308C159D059CF03CEFC3163FEFD30674F067
S1131740892D8068982E0AC0E2E0F0E0EC0FFD1FBE
S1131750E10FF11D8081803319F411501111F4CF80
S113176097FE0EC044244394410E812F90E0C81686
S1131770D9062CF41C1904C04424439401C010E07D
S113178097FE06C01C141D0434F4C601019605C05E
S113179085E090E002C081E090E001110196112300
S11317A031F0212F30E02F5F3F4F820F931F252D03
S11317B030E08217930714F4581A01C0512C892D74
S11317C0897049F4552039F0B70180E290E00E9415
S11317D04D0F5A94F7CF002329F0B701802F90E0E2
S11317E00E944D0F93FC09C0552039F0B70180E3E6
S11317F090E00E944D0F5A94F7CF97FE4CC04601DB
S1131800D7FE02C0812C912CC60188199909F301D5
S1131810E80FF91FFE87ED87960124193109388BEB
S11318202F87012F10E01195019511093FEF8316C1
S1131830930629F4B7018EE290E00E944D0FC8147C
S1131840D9044CF08F8598898815990524F4ED8581
S1131850FE85818101C080E3F1E08F1A91082D8516
S11318603E852F5F3F4F3E872D87801691062CF0D3
S1131870B70190E00E944D0FD9CFC814D90441F4A8
S11318809A81963320F4953319F43C8534FF81E32F
S1131890B70190E04EC08A81813319F09C859F7E08
S11318A09C87B70190E00E944D0F111105C094FC74
S11318B018C085E690E017C0B7018EE290E00E9460
S11318C04D0F1E5F82E001E0080FF301E80FF11DE8
S11318D08081B70190E00E944D0F802F0113F3CF58
S11318E0E6CF85E490E0B7010E944D0FD7FC06C017
S11318F0C114D10441F4EC85E4FF05C0D194C19432
S1131900D1088DE201C08BE2B70190E00E944D0F37
S113191080E32AE0C216D1042CF08F5FFAE0CF1ADC
S1131920D108F7CFB70190E00E944D0FB701C6016F
S1131930C0960E944D0F54C1833631F0833779F03D
S1131940833509F056C020C0560132E0A30EB11C05
S1131950F6018081898301E010E0630112C0560121
S1131960F2E0AF0EB11CF601C080D18096FE03C038
S1131970612F70E002C06FEF7FEFC6010E94420F3B
S11319808C01F92DFF7714C0560122E0A20EB11C80
S1131990F601C080D18096FE03C0612F70E002C0C2
S11319A06FEF7FEFC6010E94370F8C01F92DF068AD
S11319B09F2EF3FD1AC0852D90E008171907A8F48F
S11319C0B70180E290E00E944D0F5A94F4CFF601E3
S11319D097FC859197FE81916F01B70190E00E9479
S11319E04D0F51105A94015011090115110579F741
S11319F0F7C0843611F0893661F5560197FE09C0A7
S1131A0024E0A20EB11CF601608171818281938170
S1131A100AC0F2E0AF0EB11CF60160817181072E9D
S1131A20000C880B990BF92DFF769F2E97FF09C0A8
S1131A3090958095709561957F4F8F4F9F4FF0687B
S1131A409F2E2AE030E0A3010E94DB0FC82EC618A7
S1131A503FC0092D853721F40F7E2AE030E01DC0F8
S1131A60097F8F3691F018F4883559F0C3C0803758
S1131A7019F0883711F0BEC0006104FF09C004608A
S1131A8007C094FE08C0066006C028E030E005C028
S1131A9020E130E002C020E132E0560107FF09C036
S1131AA084E0A80EB11CF60160817181828193816A
S1131AB008C0F2E0AF0EB11CF6016081718180E0D4
S1131AC090E0A3010E94DB0FC82EC6180F77902E5A
S1131AD096FE0BC0092D0E7FC11650F494FE0AC069
S1131AE092FC08C0092D0E7E05C0DC2C092D03C014
S1131AF0DC2C01C0D12E04FF0DC0FE01EC0DF11D44
S1131B008081803311F4097E09C002FF06C0D3949A
S1131B10D39404C0802F867809F0D39403FD11C0B8
S1131B2000FF06C01C2DD51480F4150D1D190DC021
S1131B30D51458F4B70180E290E00E944D0FD3947D
S1131B40F7CFD51410F45D1801C0512C04FF10C058
S1131B50B70180E390E00E944D0F02FF17C001FD22
S1131B6003C088E790E002C088E590E0B7010CC0AC
S1131B70802F867859F001FF02C08BE201C080E219
S1131B8007FD8DE2B70190E00E944D0FC11638F4B5
S1131B90B70180E390E00E944D0F1150F7CFCA9433
S1131BA0F301EC0DF11D8081B70190E00E944D0F0F
S1131BB0C110F5CF15C0F4E0F51560F584E0581AAE
S1131BC093FE1FC0011127C02C8523FF2AC004E502
S1131BD010E0392D3071932EF8018491811124C0C5
S1131BE0552009F4E4CCB70180E290E00E944D0F47
S1131BF05A94F6CFF7018681978126C08FEF9FEF25
S1131C0023C0B70180E290E00E944D0F5A94511016
S1131C10F8CFD8CF512CB701802F90E00E944D0F00
S1131C20D3CF08E510E0D5CF91108052B70190E0F2
S1131C300E944D0F0F5F1F4FCFCF23E0251510F4E7
S1131C4083E0BDCF512CC0CF6096E2E10C94440EEA
S1131C502F923F924F925F926F927F928F929F92B8
S1131C60AF92BF92CF92DF92EF92FF920F931F93A6
S1131C70CF93DF93CDB7DEB7CA1BDB0B0FB6F89457
S1131C80DEBF0FBECDBF09942A88398848885F8497
S1131C906E847D848C849B84AA84B984C884DF8008
S1131CA0EE80FD800C811B81AA81B981CE0FD11DEC
S1131CB00FB6F894DEBF0FBECDBFED0108952830F6
S1131CC008F027E03327DA01990F311D87FD916071
S1131CD000966105710539F432602E5F3D9330E35F
S1131CE02A95E1F708959F3F30F08038710561052A
S1131CF009F03C5F3C5F3D93913008F08068911D92
S1131D00DF93CF931F930F93FF92EF92192F987F36
S1131D109695E92F96959695E90FFF27EA54FF4F7C
S1131D2099273327EE24FF24A701E701059008949F
S1131D30079428F4360FE71EF81E491F511D660F3D
S1131D40771F881F991F0694A1F70590079428F41C
S1131D50E70EF81E491F561FC11D770F881F991FD4
S1131D60661F0694A1F70590079428F4F80E491FFE
S1131D70561FC71FD11D880F991F661F771F069412
S1131D80A1F70590079420F4490F561FC71FD81FC9
S1131D90990F661F771F881F0694A9F784911095E1
S1131DA0177041F0D695C79557954795F794E794E2
S1131DB01A95C1F7ECE5F0E068941590159135910A
S1131DC06591959105907FE27395E118F10A430BB3
S1131DD0560BC90BD009C0F7E10CF11E431F561F67
S1131DE0C91FD01D7EF4703311F48A95E6CFE894B0
S1131DF0015030F0080F0AF40027021708F4202FCE
S1131E002395022F7A3328F079E37D932A95E9F715
S1131E1010C07D932A9589F6069497956795379512
S1131E2017951794E118F10A430B560BC90BD00907
S1131E3098F023957E9173957A3308F070E37C9340
S1131E402013B8F77E9170617D9330F0839571E330
S1131E507D9370E32A95E1F71124EF90FF900F91A1
S1131E601F91CF91DF91992787FD90950895FC01EB
S1131E700590615070400110D8F7809590958E0FB1
S1131E809F1F0895FC016150704001900110D8F724
S1131E90809590958E0F9F1F08950F931F93CF9356
S1131EA0DF93FB01238121FD03C08FEF9FEF2CC043
S1131EB022FF16C04681578124813581421753077A
S1131EC044F4A081B1819D012F5F3F4F3183208372
S1131ED08C93268137812F5F3F4F3783268314C02D
S1131EE08B01EC01FB010084F185E02D0995892B20
S1131EF0E1F6D80116968D919C9117970196179645
S1131F009C938E931697CE01DF91CF911F910F91E1
S1131F100895AEE0B0E0EFE8FFE00C94360E0D89D2
S1131F201E898F89988D26E02C831A83098397FF55
S1131F3002C080E090E801979E838D83AE01455EE8
S1131F405F4F698D7A8DCE0101960E94AB0A4D8157
S1131F505E8157FD0AC02F813885421753070CF460
S1131F609A01F801E20FF31F10822E96E4E00C941C
S1131F70520EAEE0B0E0EFEBFFE00C94360E0D89AC
S1131F801E8986E08C831A8309838FEF9FE79E83E3
S1131F908D83AE01475E5F4F6F89788DCE010196C8
S1131FA00E94AB0AEF81F885E00FF11F10822E9694
S1131FB0E4E00C94520EFA01AA27283051F12031A2
S1131FC081F1E8946F936E7F6E5F7F4F8F4F9F4FC9
S1131FD0AF4FB1E03ED0B4E03CD0670F781F891F0B
S1131FE09A1FA11D680F791F8A1F911DA11D6A0FD9
S1131FF0711D811D911DA11D20D009F468943F918C
S11320002AE0269F11243019305D3193DEF6CF018A
S11320100895462F4770405D4193B3E00FD0C9F750
S1132020F6CF462F4F70405D4A3318F0495D31FDBD
S11320304052419302D0A9F7EACFB4E0A695979510
S1132040879577956795BA95C9F7009761057105E6
S113205008959B01AC010A2E069457954795379530
S11320602795BA95C9F7620F731F841F951FA01D8A
S10920700895F894FFCF6F
S1132076036D6973730D0A0046494E495348454436
S113208620494E495449414C495A4154494F4E0DF1
S11320960A004C5F6973743A20252E32662C204C54
S11320A65F736F6C6C3A20252E3266202C20525FAB
S11320B66973743A20252E32662C20525F736F6C36
S11320C66C3A20252E3266200D0A00416B6B752072
S11320D66C6565722120555F416B6B75203D20252B
S11320E62E316656200A0D00424F4F544C4F414440
S10720F6455200004B
S9030000FC
