:100000000C94C2000C94DF000C94DF000C94DF0011
:100010000C94DF000C94DF000C94DF000C94DF00E4
:100020000C94DF000C94DF000C94D6020C94DF00DB
:100030000C94DF000C94DC070C94DF000C94B807E0
:100040000C94DF000C94DF000C94DF000C94DF00B4
:100050000C94DF00084AD73B3BCE016E84BCBFFD49
:10006000C12F3D6C74319ABD56833DDA3D00C77F88
:1000700011BED9E4BB4C3E916BAAAABE0000008021
:100080003F006E616E00696E660000407A10F35AA0
:1000900000A0724E18090010A5D4E80000E87648C8
:1000A000170000E40B54020000CA9A3B000000E174
:1000B000F505000080969800000040420F00000007
:1000C000A08601000000102700000000E8030000E7
:1000D00000006400000000000A00000000000100B1
:1000E000000000002C76D888DC674F0823DFC1DFD2
:1000F000AE59E1B1B796E5E3E453C63AE6519976D5
:1001000096E8E6C28426EB898C9B62ED407C6FFC0E
:10011000EFBC9C9F40F2BAA56FA5F490055A2AF750
:100120005C936B6CF9676DC11BFCE0E40D47FEF559
:1001300020E6B500D0ED902E0300943577050080C1
:10014000841E080000204E0A000000C80C33333320
:10015000330F986E12831141EF8D2114893BE655C0
:1001600016CFFEE6DB18D1844B381BF77C1D901DA3
:10017000A4BBE424203284725E228100C9F124EC05
:10018000A1E53D2711241FBECFE5D8E0DEBFCDBFDE
:1001900010E0A0E6B0E0E0E9F2E202C005900D92C6
:1001A000A23FB107D9F723E0A2EFB0E001C01D9252
:1001B000A232B207E1F70E9428020C9446110C9477
:1001C00000004F925F926F927F928F929F92AF92B8
:1001D000BF92CF92DF92EF92FF922B013C0125E577
:1001E0003FEA42E259E30E94470B4B015C01209138
:1001F0000B0130910C0140910D0150910E010E94B4
:10020000DD086B017C0125E53FEA42EA59E3C301C1
:10021000B2010E94470B20910301309104014091EB
:100220000501509106010E94DD082B013C0122E7E7
:1002300033E74BEF5FE3C701B6010E94470B9B0119
:10024000AC01C301B2010E94DD0860930B01709301
:100250000C0180930D0190930E012FE83FE047E7DA
:100260005FEBC701B6010E94470BA50194010E94F4
:10027000DD0860930301709304018093050190935E
:100280000601C701B601FF90EF90DF90CF90BF90BD
:10029000AF909F908F907F906F905F904F90089558
:1002A0008F929F92AF92BF92CF92DF92EF92FF9286
:1002B0000F931F93CF93DF93CDB7DEB7C25AD10907
:1002C0000FB6F894DEBF0FBECDBF7C018B01CE010F
:1002D00001960E94A308CE0107960E943406698108
:1002E0007A81072E000C880B990B0E94630A4B0140
:1002F0005C016D817E81072E000C880B990B0E949A
:10030000630AA50194010E945C0920EE3EE245E6E5
:1003100052E40E94470BD62EC72EB82EA92E69850F
:100320007A85072E000C880B990B0E94630A20E047
:1003300030E04AEF5CE30E94470B2AE037ED43E2EE
:100340005CE30E94470B2091F2003091F300409152
:10035000F4005091F5000E94DD089B01AC01609310
:10036000F2007093F3008093F4009093F5006D2DEC
:100370007C2D8B2D9A2D0E94DC080E94E10020919B
:10038000F2003091F3004091F4005091F5000E948A
:10039000DD08262F372F462F572F682F792FF7018B
:1003A00040835183628373839F938F933F932F93F3
:1003B0008091F5008F938091F4008F938091F300EA
:1003C0008F938091F2008F93AF92BF92CF92DF9282
:1003D00088E690E09F938F931F9286E98F937E012A
:1003E000FDE0EF0EF11CFF92EF920E949610C70104
:1003F0000E947B0769857A85072E000C880B990B74
:100400000E94630A20E030E04AEF5CE30E94470B61
:10041000F80160837183828393830FB6F894DEBF03
:100420000FBECDBFCE55DF4F0FB6F894DEBF0FBE67
:10043000CDBFDF91CF911F910F91FF90EF90DF9093
:10044000CF90BF90AF909F908F900895089508959A
:10045000CF93DF93CDB7DEB767970FB6F894DEBFC3
:100460000FBECDBFD29AD19AD09AB99AD89A2FEF0F
:1004700089E698E1215080409040E1F700C00000FB
:1004800089B7826089BF8DE083BF8EE48CBF0E94F4
:100490001C070E9432050E94EB020E9400080E9485
:1004A0004B080E9485080E94FE060E9427050E94B4
:1004B00026020E945B0578948FEA90E00E947B07F9
:1004C000D898D99AB299FECF2FEF89E698E12150BA
:1004D00080409040E1F700C00000D998DA9A8091FE
:1004E000F6008823E1F31092F600809160008111FC
:1004F00003C00E94670447C0813019F40E9427029C
:1005000042C0823079F58E010F5F1F4F9E01285F38
:100510003F4FAE01445F5F4FBE01605F7F4FCE0132
:1005200044960E942A05A884B984CA84DB84EC849A
:10053000FD840E851F85288939894A895B896C89E4
:100540007D898E899F89EC81EF93EB81EF93EA811E
:10055000EF93E981EF930E942B050F900F900F907E
:100560000F9011C0833079F4188619861A861B867D
:1005700019821A821B821C82BE016F5F7F4FCE01DF
:1005800008960E9450018091F600882309F4A7CFB5
:1005900087E0E1E6F0E0DE01119601900D928A9588
:1005A000E1F7CE0101960E947B0799CF1F920F922F
:1005B0000FB60F9211248F939F9381E08093F600E2
:1005C00098B382E0892788BB9F918F910F900FBECF
:1005D0000F901F901895A79AA69A8D9A8C9A82EAE6
:1005E0008FBD88E18EBD8EB581608EBD8FE193E0B9
:1005F00097BD86BD0895CF92DF92EF92FF92CF9381
:10060000C82F6A017B0120E030E040E85FE3C701CA
:10061000B6010E943A0B18160CF460C020E030E0DE
:1006200040E85FEBC701B6010E94BB0988230CF4C8
:1006300052C0C1112BC020E030E0A901C701B601B2
:100640000E943A0B18164CF012C00F2EC12CD12C60
:10065000F0E8EF2EFFE3FF2EF02DAF9A09C00F2E2A
:10066000C12CD12CF0E8EF2EFFEBFF2EF02DAF9830
:10067000C701B6019F7720E030EC47E454E40E94C4
:10068000470B0E94320A7BBD6ABD36C0C130A1F55E
:1006900020E030E0A901C701B6010E94BB09882310
:1006A0005CF408C00F2EC12CD12CF0E8EF2EFFEB2C
:1006B000FF2EF02DAE9A01C0AE98C701B6019F770C
:1006C00020E030EC47E454E40E94470B0E94320AD9
:1006D00079BD68BD11C0CC2311F20CC0CC2309F444
:1006E000B4CF0F2EC12CD12CF0E8EF2EFFE3FF2E5C
:1006F000F02DCCCFC130B1F2CF91FF90EF90DF90D1
:10070000CF9008954F925F926F927F928F929F92B7
:10071000AF92BF92CF92DF92EF92FF92CF93DF938F
:10072000CDB7DEB72C970FB6F894DEBF0FBECDBFA6
:100730006D837E838F83988769017A010E943C05CF
:1007400069837A838B839C8320E030E0A9016D81EB
:100750007E818F8198850E943A0B1816A4F020E0C4
:1007600030E0A9016D817E818F8198850E94BB094F
:10077000882394F40F2E812C912CF0E8AF2EFFE308
:10078000BF2EF02D0CC00F2E812C912CF0E8AF2E37
:10079000FFEBBF2EF02D03C0812C912C540120E0E3
:1007A00030E0A901C701B6010E943A0B181694F077
:1007B00020E030E0A901C701B6010E94BB098823EF
:1007C00094F40F2E412C512CF0E86F2EFFEB7F2E6E
:1007D000F02D0CC00F2E412C512CF0E86F2EFFE3B2
:1007E0007F2EF02D03C0412C512C320129813A81FA
:1007F0004B815C816DEC7CEC84E091E40E94C0094B
:1008000069837A838B839C8328E439EA44E05CE340
:10081000C701B6010E94470B6B017C012AED36EE41
:1008200046E45CE3C301B2010E94470B9B01AC01AB
:10083000C701B6010E94DD0829813A814B815C81A4
:100840000E94470B69877A878B879C8728E439EA5F
:1008500044E05CE36D817E818F8198850E94470B27
:100860006B017C012AED36EE46E45CE3C501B40180
:100870000E94470B9B01AC01C701B6010E94DD0835
:1008800029813A814B815C810E94470BAB01BC01FD
:1008900080E00E94FB0249855A856B857C8581E05A
:1008A0000E94FB022C960FB6F894DEBF0FBECDBFA0
:1008B000DF91CF91FF90EF90DF90CF90BF90AF90FE
:1008C0009F908F907F906F905F904F9008954F9280
:1008D0005F926F927F928F929F92AF92BF92CF92D0
:1008E000DF92EF92FF920E943507843609F451C0DF
:1008F00030F4803209F464C08136A1F179C08337C5
:10090000D1F0873709F074C020E030E040E85FE3C1
:100910006091160370911703809118039091190349
:100920000E94DD08609316037093170380931803E9
:10093000909319035DC020E030E040E85FE36091F0
:1009400016037091170380911803909119030E9468
:10095000DC08609316037093170380931803909339
:10096000190346C020E030E040E85FE360911302E5
:100970007091140280911502909116020E94DD0878
:1009800060931302709314028093150290931602E1
:100990002FC020E030E040E85FE3609113027091E7
:1009A000140280911502909116020E94DC08609357
:1009B000130270931402809315029093160218C0CC
:1009C0001092160310921703109218031092190335
:1009D0001092130210921402109215021092160235
:1009E00010920701109208011092090110920A0159
:1009F000C0901603D0901703E0901803F0901903ED
:100A00008090130290901402A0901502B0901602EC
:100A1000A5019401C701B6010E94DC082B013C012D
:100A2000A5019401C701B6010E94DD08A30192014E
:100A30000E948203FF90EF90DF90CF90BF90AF9025
:100A40009F908F907F906F905F904F9008950E943D
:100A50000B0708950895CF93DF93CDB7DEB7DF91ED
:100A6000CF91089587B1836287B986B1876886B9C7
:100A7000369A3699FECF089587B1836287B9369A40
:100A80003699FECF65B170E080E090E00E94610A87
:100A900020E030E04FE753E40E94C00928E431EE43
:100AA00042E151E40E94470B20E030E040E550E491
:100AB0000E94470B08959F92AF92BF92CF92DF9210
:100AC000EF92FF920F931F93CF93DF93CDB7DEB7D3
:100AD0006E970FB6F894DEBF0FBECDBF0E943C05E7
:100AE000D62EC72EB82EA92E26E636E646EE50E4C0
:100AF0000E94BB0988230CF041C078941A821982A5
:100B0000FE0133968CE1DF011D928A95E9F70F2EE5
:100B1000F9ECEF2EF0E0FF2EF02D8E010F5F1F4F4E
:100B20006894992491F8AF92BF92CF92DF92FF928E
:100B3000EF921F930F930E94C610C8010E947B077B
:100B40008BB389258BBBBFEF29E688E1B1502040EC
:100B50008040E1F700C000008BB389258BBB9FEF7D
:100B6000A9E6B8E19150A040B040E1F700C0000014
:100B70000FB6F894DEBF0FBECDBFD5CF6E960FB6C1
:100B8000F894DEBF0FBECDBFDF91CF911F910F91C3
:100B9000FF90EF90DF90CF90BF90AF909F9008951F
:100BA00084E986BF06B604FCFDCF089594EA96BF9B
:100BB00006B607FEFDCF806D83B984E886BF06B612
:100BC00007FEFDCF0895CF93DF93D82FC62F80E087
:100BD0000E94D605D3B984E886BF06B607FEFDCFCE
:100BE000C3B984E886BF06B607FEFDCF0E94D005D4
:100BF000DF91CF9108950F931F93CF93DF93082F29
:100C0000162FD72FC42F80E00E94D60503B984E8A1
:100C100086BF06B607FEFDCF81E00E94D6054C2FA9
:100C200050E014161506CCF4E12FFD2F80E090E083
:100C3000BA0161507109A4E834EC6817790711F022
:100C4000232F01C02A2F26BF06B607FEFDCF23B1F2
:100C5000219301968417950781F70E94D005DF91B3
:100C6000CF911F910F9108950F931F93CF93DF930F
:100C700000D000D000D0CDB7DEB78C0146E0BE0179
:100C80006F5F7F4F8DE10E94FB05898190E0982F77
:100C900088272A81822BE7EFF0E020813181821BB7
:100CA000930BD80111969C938E938B8190E0982F93
:100CB00088272C81822B22813381821B930B1396F0
:100CC0009C938E9312978D8190E0982F88272E8188
:100CD000822B24813581821B930B15969C938E93D6
:100CE000149726960FB6F894DEBF0FBECDBFDF91E6
:100CF000CF911F910F9108954F925F926F927F92C3
:100D00008F929F92AF92BF92CF92DF92EF92FF921B
:100D10000F931F93CF93DF9300D000D000D0CDB7B7
:100D2000DEB700E410E0C12CD12C7601812C912C8F
:100D30005401412C512C3201CE0101960E943406FF
:100D400089819A81092E000CAA0BBB0B480E591EF3
:100D50006A1E7B1E8B819C81092E000CAA0BBB0B8B
:100D6000880E991EAA1EBB1E8D819E81092E000C25
:100D7000AA0BBB0BC80ED91EEA1EFB1E8FE19EE418
:100D80000197F1F700C0000001501109A9F6E7EF43
:100D9000F0E0689415F87594679457944794169406
:100DA000D1F751824082689415F8B594A79497942E
:100DB00087941694D1F793828282689415F8F594FB
:100DC000E794D794C7941694D1F7D582C482269617
:100DD0000FB6F894DEBF0FBECDBFDF91CF911F914C
:100DE0000F91FF90EF90DF90CF90BF90AF909F90CA
:100DF0008F907F906F905F904F90089582E080B9C0
:100E000060E085E10E94E30563E186E10E94E3057D
:100E10000E947C0608958FE793E090931C038093D3
:100E20001B0381E090E090931E0380931D031092BA
:100E3000200310921F0308951092FD001092FE00EF
:100E400010921A03109212021092210380B58F772C
:100E500080BD10BC8CE089B9599880B5806880BD90
:100E600086E880BD88ED8AB9089590911A03809133
:100E70001202981789F0E091120281E08E0F8093A0
:100E80001202F0E0E95EFD4F8081909112029F3FD7
:100E900021F410921202089580E008955D9B17C01E
:100EA0009091FD008091FE00981789F0E091FE007E
:100EB00081E08E0F8093FE00F0E0ED5EFE4F8081BA
:100EC0008CB98091FE008F3F11F41092FE000895BE
:100ED000E091FD0091E09E0F9093FD00F0E0ED5E4B
:100EE000FE4F80838091FD008F3F11F41092FD0032
:100EF0000E944E070895CF93DF93EC0188818823E9
:100F000031F021960E94680789918111FBCFDF9112
:100F1000CF9108959CB1E0911A0381E08E0F8093E8
:100F20001A03F0E0E95EFD4F908380911A038F3F32
:100F300011F410921A0380912103E82FF0E0EA5196
:100F4000FF4F2081921311C08F5F809321038A305D
:100F500071F483E60E94680799E088E10FB6F8947F
:100F6000A89581BD0FBE91BDFFCF109221030895BA
:100F70001F920F920FB60F9211242F933F934F930E
:100F80005F936F937F938F939F93AF93BF93EF93F1
:100F9000FF930E944E07FF91EF91BF91AF919F91F8
:100FA0008F917F916F915F914F913F912F910F9012
:100FB0000FBE0F901F9018951F920F920FB60F92B1
:100FC00011242F933F934F935F936F937F938F934E
:100FD0009F93AF93BF93EF93FF930E948A07FF9174
:100FE000EF91BF91AF919F918F917F916F915F91A1
:100FF0004F913F912F910F900FBE0F901F9018951A
:10100000BF9ABD9ABB9AB89ABC9A6C9A6E9A6B9822
:101010006A9888B3896188BB0895811105C06B986F
:101020006A98C4986D980895813029F46B986A98ED
:10103000C0986D980895823029F46B9A6A9AC39883
:101040006D980895833619F488B3896188BB089533
:101050008FB9779BFECF8FB10895CF93DF93D62FB3
:10106000C42F0E940D088D2F0E9428088C2F0E94EB
:10107000280883E60E940D08DF91CF910895CF9351
:10108000C62F0E940D088C2F0E94280883E60E941C
:101090000D08CF91089544E060E980E00E942D089A
:1010A00043E068E880E00E942D0860E280E00E9452
:1010B0003F0840E060E980E00E942D0844E060E9DC
:1010C00081E00E942D0843E068E881E00E942D083D
:1010D00060E281E00E943F0840E060E981E00E9418
:1010E0002D080895CF93DF93D82FC62F82E00E945A
:1010F0000D088D2F0E9428088C2F0E94280883E657
:101100000E940D08DF91CF9108956AE08CE20E9461
:1011100072086BE081E30E94720860E08DE20E9439
:10112000720860E18DE20E94720868E08DE20E9420
:1011300072082FEF80E792E0215080409040E1F765
:1011400000C000000895CF93DF93EC0182E00E947D
:101150000D0882EF0E94280880E00E94280890E095
:101160009983888380E00E94280828813981382B60
:101170003983288380E00E94280890E09B838A833B
:1011800080E00E9428082A813B81382B3B832A83F8
:1011900080E00E94280890E09D838C8380E00E947C
:1011A00028082C813D81382B3D832C8383E60E94C7
:1011B0000D08DF91CF9108955058BB27AA270E94B0
:1011C000F4080C94000B0E94F20A38F00E94F90A0D
:1011D00020F039F49F3F19F426F40C94C80A0EF459
:1011E000E095E7FB0C94C20AE92F0E94110B58F31B
:1011F000BA17620773078407950720F079F4A6F5FC
:101200000C94330B0EF4E0950B2EBA2FA02D0B018E
:10121000B90190010C01CA01A0011124FF27591B3B
:1012200099F0593F50F4503E68F11A16F040A22F41
:10123000232F342F4427585FF3CF469537952795B2
:10124000A795F0405395C9F77EF41F16BA0B620BB1
:10125000730B840BBAF09150A1F0FF0FBB1F661FF8
:10126000771F881FC2F70EC0BA0F621F731F841F3B
:1012700048F4879577956795B795F7959E3F08F061
:10128000B0CF9395880F08F09927EE0F9795879523
:1012900008950E94F20A60F080E891E009F49EEF60
:1012A0000E94F90A28F040E851E071F45EEF0CC0AA
:1012B0000C94C80A0C94330BE92FE0780E94110BB0
:1012C00040F3092E052AB1F32617370748075907B7
:1012D00038F00E2E07F8E02569F0E025E0640AC03A
:1012E000EF6307F8009407FADB01B9019D01DC0107
:1012F000CA01AD01EF930E94D7090E94000B0E9422
:101300008C095F91552339F02BED3FE049E450FD06
:1013100049EC0C94DD080895DF93DD27B92FBF77E2
:1013200040E85FE31616170648075B0718F4D92F45
:101330000E943F0B9F938F937F936F930E94B40BF8
:10134000E4E5F0E00E94CB0A0E94000B2F913F9150
:101350004F915F910E945A0BDD2351F09058A2EA01
:101360002AED3FE049EC5FE3D0785D270E94F40866
:10137000DF910C94000B0E949E0A08F481E008950E
:101380000E94D4090C94000B0E94F90A58F00E94A4
:10139000F20A40F029F45F3F29F00C94C20A51117F
:1013A0000C94340B0C94C80A0E94110B68F3992317
:1013B000B1F3552391F3951B550BBB27AA27621751
:1013C0007307840738F09F5F5F4F220F331F441F5E
:1013D000AA1FA9F335D00E2E3AF0E0E832D0915092
:1013E0005040E695001CCAF72BD0FE2F29D0660F7F
:1013F000771F881FBB1F261737074807AB07B0E8C2
:1014000009F0BB0B802DBF01FF2793585F4F3AF0C7
:101410009E3F510578F00C94C20A0C94340B5F3F48
:10142000E4F3983ED4F3869577956795B795F7954D
:101430009F5FC9F7880F911D9695879597F9089535
:10144000E1E0660F771F881FBB1F621773078407D1
:10145000BA0720F0621B730B840BBA0BEE1F88F7E0
:10146000E09508950E94190B88F09F5798F0B92FC6
:101470009927B751B0F0E1F0660F771F881F991FC9
:101480001AF0BA95C9F714C0B13091F00E94330B2D
:10149000B1E008950C94330B672F782F8827B85F3D
:1014A00039F0B93FCCF3869577956795B395D9F721
:1014B0003EF490958095709561957F4F8F4F9F4F2B
:1014C0000895E89409C097FB3EF490958095709537
:1014D00061957F4F8F4F9F4F9923A9F0F92F96E980
:1014E000BB279395F695879577956795B795F111F5
:1014F000F8CFFAF4BB0F11F460FF1BC06F5F7F4F92
:101500008F4F9F4F16C0882311F096E911C07723A3
:1015100021F09EE8872F762F05C0662371F096E8AC
:10152000862F70E060E02AF09A95660F771F881F7B
:10153000DAF7880F9695879597F90895990F00081F
:10154000550FAA0BE0E8FEEF16161706E807F90795
:10155000C0F012161306E407F50798F0621B730B30
:10156000840B950B39F40A2661F0232B242B252BB1
:1015700021F408950A2609F4A140A6958FEF811D54
:10158000811D089597F99F6780E870E060E00895F5
:101590009FEF80EC0895DF93CF931F930F93FF92FB
:1015A000EF92DF927B018C01689406C0DA2EEF0186
:1015B0000E945A0BFE01E894A59125913591459121
:1015C0005591A6F3EF010E94F408FE019701A801CE
:1015D000DA9469F7DF90EF90FF900F911F91CF9110
:1015E000DF91089500240A941616170618060906B6
:1015F000089500240A941216130614060506089589
:10160000092E0394000C11F4882352F0BB0F40F410
:10161000BF2B11F460FF04C06F5F7F4F8F4F9F4F50
:10162000089557FD9058440F551F59F05F3F71F0D2
:101630004795880F97FB991F61F09F3F79F0879539
:101640000895121613061406551FF2CF4695F1DFC2
:1016500008C0161617061806991FF1CF8695710552
:10166000610508940895E894BB2766277727CB0186
:1016700097F908950E949E0A08F48FEF08959B0140
:10168000AC0160E070E080E89FE30C94C0090E9428
:101690005A0B0C94000B0E94F20A38F00E94F90ACF
:1016A00020F0952311F00C94C20A0C94C80A11245E
:1016B0000C94340B0E94110B70F3959FC1F3950F9E
:1016C00050E0551F629FF001729FBB27F00DB11DC6
:1016D000639FAA27F00DB11DAA1F649F6627B00D56
:1016E000A11D661F829F2227B00DA11D621F739F3F
:1016F000B00DA11D621F839FA00D611D221F749F4D
:101700003327A00D611D231F849F600D211D822F93
:10171000762F6A2F11249F5750409AF0F1F08823BA
:101720004AF0EE0FFF1FBB1F661F771F881F9150E7
:101730005040A9F79E3F510580F00C94C20A0C94CA
:10174000340B5F3FE4F3983ED4F386957795679525
:10175000B795F795E7959F5FC1F7FE2B880F911D11
:101760009695879597F908959B01AC010C94470BCA
:10177000A0E1B0E0EEEBFBE00C94350F7C011B0127
:101780006A01FC0117821682838181FF44C39E0196
:101790002F5F3F4F3901F7019381F10193FD85914F
:1017A00093FF81911F01882309F431C3853239F4F5
:1017B00093FD859193FF81911F01853239F4B70123
:1017C00090E00E945A1056016501E5CF10E0512CBF
:1017D000912CFFE1F915D8F08B3279F038F4803292
:1017E00079F08332A1F4F92DF0612EC08D3261F0D1
:1017F000803369F4292D21602DC0392D3260932E5C
:10180000892D8460982E2AC0E92DE86015C097FCC8
:101810002DC020ED280F2A3088F496FE06C03AE04D
:10182000139F200D1124122F19C08AE0589E200DFD
:101830001124522EE92DE0629E2E10C08E3231F41A
:1018400096FCE5C2F92DF0649F2E08C08C3621F479
:10185000292D2068922E02C0883641F4F10193FDB3
:10186000859193FF81911F018111B3CF9BEB980F5D
:10187000933020F4992D9061805E07C09BE9980F0A
:10188000933008F066C1992D9F7E96FF16E09F73F6
:10189000992E853619F49064992E08C0863621F465
:1018A000392F3068932E02C01111115097FE07C0D6
:1018B0001C3350F444244394410E27E00BC01830ED
:1018C00038F027E017E005C027E09CE3492E02C06E
:1018D000212F412C560184E0A80EB11CF601608135
:1018E000718182819381042DA3010E946C0F6C0190
:1018F000F981FC87F0FF02C0F3FF06C091FC06C02F
:1019000092FE06C000E205C00DE203C00BE201C07A
:1019100000E08C858C7019F001115AC29BC297FEB1
:1019200010C04C0CFC85F4FF04C08A81813309F49B
:101930004A94141474F528E0241578F588E0482EAC
:101940002CC096FC2AC0812F90E08C159D059CF040
:101950003CEFC3163FEFD30674F0892D8068982EB4
:101960000AC0E2E0F0E0EC0FFD1FE10FF11D808105
:10197000803319F411501111F4CF97FE0EC0442496
:101980004394410E812F90E0C816D9062CF41C19FF
:1019900004C04424439401C010E097FE06C01C1408
:1019A0001D0434F4C601019605C085E090E002C034
:1019B00081E090E001110196112331F0212F30E0F8
:1019C0002F5F3F4F820F931F252D30E08217930723
:1019D00014F4581A01C0512C892D897049F45520EE
:1019E00039F0B70180E290E00E945A105A94F7CF84
:1019F000002329F0B701802F90E00E945A1093FC39
:101A000009C0552039F0B70180E390E00E945A10D8
:101A10005A94F7CF97FE4CC04601D7FE02C0812CE6
:101A2000912CC60188199909F301E80FF91FFE8767
:101A3000ED87960124193109388B2F87012F10E08B
:101A40001195019511093FEF8316930629F4B7010B
:101A50008EE290E00E945A10C814D9044CF08F8591
:101A600098898815990524F4ED85FE85818101C04A
:101A700080E3F1E08F1A91082D853E852F5F3F4F5F
:101A80003E872D87801691062CF0B70190E00E94CA
:101A90005A10D9CFC814D90441F49A81963320F44E
:101AA000953319F43C8534FF81E3B70190E04EC0D3
:101AB0008A81813319F09C859F7E9C87B70190E0D5
:101AC0000E945A10111105C094FC18C085E690E0E0
:101AD00017C0B7018EE290E00E945A101E5F82E0AC
:101AE00001E0080FF301E80FF11D8081B70190E0DC
:101AF0000E945A10802F0113F3CFE6CF85E490E0C7
:101B0000B7010E945A10D7FC06C0C114D10441F499
:101B1000EC85E4FF05C0D194C194D1088DE201C0E9
:101B20008BE2B70190E00E945A1080E32AE0C216CF
:101B3000D1042CF08F5FFAE0CF1AD108F7CFB701AC
:101B400090E00E945A10B701C601C0960E945A1038
:101B500054C1833631F0833779F0833509F056C0AC
:101B600020C0560132E0A30EB11CF60180818983AA
:101B700001E010E0630112C05601F2E0AF0EB11CAB
:101B8000F601C080D18096FE03C0612F70E002C0D4
:101B90006FEF7FEFC6010E944F108C01F92DFF7788
:101BA00014C0560122E0A20EB11CF601C080D18003
:101BB00096FE03C0612F70E002C06FEF7FEFC60199
:101BC0000E9444108C01F92DF0689F2EF3FD1AC07D
:101BD000852D90E008171907A8F4B70180E290E07E
:101BE0000E945A105A94F4CFF60197FC859197FE03
:101BF00081916F01B70190E00E945A1051105A94E0
:101C0000015011090115110579F7F7C0843611F05B
:101C1000893661F5560197FE09C024E0A20EB11C79
:101C2000F60160817181828193810AC0F2E0AF0E7A
:101C3000B11CF60160817181072E000C880B990B95
:101C4000F92DFF769F2E97FF09C09095809570958E
:101C500061957F4F8F4F9F4FF0689F2E2AE030E0B5
:101C6000A3010E94E810C82EC6183FC0092D853771
:101C700021F40F7E2AE030E01DC0097F8F3691F0FD
:101C800018F4883559F0C3C0803719F0883711F03F
:101C9000BEC0006104FF09C0046007C094FE08C014
:101CA000066006C028E030E005C020E130E002C058
:101CB00020E132E0560107FF09C084E0A80EB11C04
:101CC000F601608171818281938108C0F2E0AF0EDC
:101CD000B11CF6016081718180E090E0A3010E9457
:101CE000E810C82EC6180F77902E96FE0BC0092D4F
:101CF0000E7FC11650F494FE0AC092FC08C0092D54
:101D00000E7E05C0DC2C092D03C0DC2C01C0D12EB9
:101D100004FF0DC0FE01EC0DF11D8081803311F434
:101D2000097E09C002FF06C0D394D39404C0802F5B
:101D3000867809F0D39403FD11C000FF06C01C2D66
:101D4000D51480F4150D1D190DC0D51458F4B70124
:101D500080E290E00E945A10D394F7CFD51410F48B
:101D60005D1801C0512C04FF10C0B70180E390E062
:101D70000E945A1002FF17C001FD03C088E790E0DF
:101D800002C088E590E0B7010CC0802F867859F03A
:101D900001FF02C08BE201C080E207FD8DE2B701C6
:101DA00090E00E945A10C11638F4B70180E390E029
:101DB0000E945A101150F7CFCA94F301EC0DF11D97
:101DC0008081B70190E00E945A10C110F5CF15C074
:101DD000F4E0F51560F584E0581A93FE1FC0011178
:101DE00027C02C8523FF2AC002E810E0392D30716E
:101DF000932EF8018491811124C0552009F4E4CC7C
:101E0000B70180E290E00E945A105A94F6CFF70191
:101E10008681978126C08FEF9FEF23C0B70180E2B4
:101E200090E00E945A105A945110F8CFD8CF512CFC
:101E3000B701802F90E00E945A10D3CF06E810E03F
:101E4000D5CF91108052B70190E00E945A100F5FD9
:101E50001F4FCFCF23E0251510F483E0BDCF512CC9
:101E6000C0CF6096E2E10C94510F2F923F924F92B7
:101E70005F926F927F928F929F92AF92BF92CF921A
:101E8000DF92EF92FF920F931F93CF93DF93CDB723
:101E9000DEB7CA1BDB0B0FB6F894DEBF0FBECDBF9B
:101EA00009942A88398848885F846E847D848C846C
:101EB0009B84AA84B984C884DF80EE80FD800C8175
:101EC0001B81AA81B981CE0FD11D0FB6F894DEBF58
:101ED0000FBECDBFED010895283008F027E033276D
:101EE000DA01990F311D87FD91600096610571053A
:101EF00039F432602E5F3D9330E32A95E1F708957F
:101F00009F3F30F080387105610509F03C5F3C5F10
:101F10003D93913008F08068911DDF93CF931F931C
:101F20000F93FF92EF92192F987F9695E92F969530
:101F30009695E90FFF27EC51FF4F99273327EE24A1
:101F4000FF24A701E70105900894079428F4360FB1
:101F5000E71EF81E491F511D660F771F881F991F26
:101F60000694A1F70590079428F4E70EF81E491F80
:101F7000561FC11D770F881F991F661F0694A1F772
:101F80000590079428F4F80E491F561FC71FD11D4E
:101F9000880F991F661F771F0694A1F70590079475
:101FA00020F4490F561FC71FD81F990F661F771FB0
:101FB000881F0694A9F784911095177041F0D69563
:101FC000C79557954795F794E7941A95C1F7EAE8AE
:101FD000F0E0689415901591359165919591059073
:101FE0007FE27395E118F10A430B560BC90BD00938
:101FF000C0F7E10CF11E431F561FC91FD01D7EF410
:10200000703311F48A95E6CFE894015030F0080F50
:102010000AF40027021708F4202F2395022F7A33A1
:1020200028F079E37D932A95E9F710C07D932A95EE
:1020300089F6069497956795379517951794E11843
:10204000F10A430B560BC90BD00998F023957E91EA
:1020500073957A3308F070E37C932013B8F77E9180
:1020600070617D9330F0839571E37D9370E32A95E1
:10207000E1F71124EF90FF900F911F91CF91DF9125
:10208000992787FD90950895FC0105906150704057
:102090000110D8F7809590958E0F9F1F0895FC0131
:1020A0006150704001900110D8F7809590958E0F87
:1020B0009F1F08950F931F93CF93DF93FB012381FD
:1020C00021FD03C08FEF9FEF2CC022FF16C0468179
:1020D0005781248135814217530744F4A081B1818F
:1020E0009D012F5F3F4F318320838C932681378161
:1020F0002F5F3F4F3783268314C08B01EC01FB0118
:102100000084F185E02D0995892BE1F6D80116961A
:102110008D919C911797019617969C938E93169785
:10212000CE01DF91CF911F910F910895AEE0B0E005
:10213000ECE9F0E10C94430F0D891E898F89988D8D
:1021400026E02C831A83098397FF02C080E090E881
:1021500001979E838D83AE01455E5F4F698D7A8DB9
:10216000CE0101960E94B80B4D815E8157FD0AC0D9
:102170002F813885421753070CF49A01F801E20FBA
:10218000F31F10822E96E4E00C945F0FAEE0B0E0F7
:10219000ECECF0E10C94430F0D891E8986E08C83F2
:1021A0001A8309838FEF9FE79E838D83AE01475E7D
:1021B0005F4F6F89788DCE0101960E94B80BEF8139
:1021C000F885E00FF11F10822E96E4E00C945F0F6B
:1021D000FA01AA27283051F1203181F1E8946F9358
:1021E0006E7F6E5F7F4F8F4F9F4FAF4FB1E03ED0FE
:1021F000B4E03CD0670F781F891F9A1FA11D680F9C
:10220000791F8A1F911DA11D6A0F711D811D911DCE
:10221000A11D20D009F468943F912AE0269F112443
:102220003019305D3193DEF6CF010895462F4770A7
:10223000405D4193B3E00FD0C9F7F6CF462F4F7002
:10224000405D4A3318F0495D31FD4052419302D060
:10225000A9F7EACFB4E0A695979587957795679506
:10226000BA95C9F700976105710508959B01AC0106
:102270000A2E06945795479537952795BA95C9F72D
:10228000620F731F841F951FA01D0895F894FFCF40
:10229000036D6973730D0A0025332E35662C2533C3
:1022A0002E35662C25332E35660A0D00526F626F6F
:1022B0007465722069737420756D676566616C6CF6
:1022C000656E0D0A00526561637469766174696FA9
:1022D0006E20696E203220736563733A0D0A0046E2
:1022E000494E495348454420494E495449414C4977
:1022F0005A4154494F4E0D0A00416B6B75206C6575
:1023000065722120555F416B6B75203D20252E3174
:102310006656200A0D00424F4F544C4F41444552DF
:022320000000BB
:00000001FF
