S01600004B6C65696E726F626F74657254312E7372656399
S11300000C94AB000C94C8000C94C8000C94C80069
S11300100C94C8000C94C8000C94C8000C94C8003C
S11300200C94C8000C94C8000C942A020C94C800C8
S11300300C94C8000C9456060C94C8000C94320618
S11300400C94C8000C94C8000C94C8000C94C8000C
S11300500C94C8006E616E00696E660000407A10F0
S1130060F35A00A0724E18090010A5D4E80000E865
S11300707648170000E40B54020000CA9A3B0000C3
S113008000E1F505000080969800000040420F0052
S11300900000A08601000000102700000000E80313
S11300A0000000006400000000000A0000000000DE
S11300B00100000000002C76D888DC674F0823DF9D
S11300C0C1DFAE59E1B1B796E5E3E453C63AE65170
S11300D0997696E8E6C28426EB898C9B62ED407C97
S11300E06FFCEFBC9C9F40F2BAA56FA5F490055A33
S11300F02AF75C936B6CF9676DC11BFCE0E40D4758
S1130100FEF520E6B500D0ED902E0300943577057A
S11301100080841E080000204E0A000000C80C3332
S11301203333330F986E12831141EF8D2114893BC1
S1130130E65516CFFEE6DB18D1844B381BF77C1D41
S1130140901DA4BBE424203284725E228100C9F194
S113015024ECA1E53D2711241FBECFE5D8E0DEBF86
S1130160CDBF10E0A0E6B0E0E2E3FEE102C00590FE
S11301700D92AE3BB107D9F722E0AEEBB0E001C07F
S11301801D92AE3DB207E1F70E94CC000C94170F0C
S11301900C94000008950895CF93DF93CDB7DEB794
S11301A0CE59D1090FB6F894DEBF0FBECDBFD29A97
S11301B0D19AD09AB99AD89A2FEF89E698E121502A
S11301C080409040E1F700C0000089B7826089BF99
S11301D08DE083BF8EE48CBF0E9496050E94AC0321
S11301E00E943F020E947A060E94C5060E943907B7
S11301F00E9478050E94A1030E94CA000E94D503B0
S1130200789488E690E00E94F505D898D99AB29936
S1130210FECFEFEFF9E628E1E150F0402040E1F7AE
S113022000C00000D998DA9A0F2EF2E88F2EF0E081
S11302309F2EF02DCE0101962C013E0191E8690E0E
S1130240711CFE01EB57FF4FCF56DF4FF983E88354
S1130250C159D040CE0187579F4FCD56DF4F998368
S11302608883C359D0403896CB56DF4FF983E8834F
S1130270C559D040242C352CC956DF4F6882C75944
S1130280D040C856DF4F7882C859D040CF56DF4F90
S1130290F881C159D040C756DF4FF883C959D040BF
S11302A0CE56DF4F2881C259D040C656DF4F28832F
S11302B0CA59D040CD56DF4F8881C359D040C55666
S11302C0DF4F8883CB59D040CC56DF4F9881C45937
S11302D0D040C456DF4F9883CC59D040CB56DF4F23
S11302E0E881C559D040C356DF4FE883CD59D0408B
S11302F0CA56DF4FF881C659D040C256DF4FF88343
S1130300CE59D0408091BE008823E1F31092BE0004
S113031080916000811103C00E94A90288C08130CD
S113032019F40E94CB0083C0823009F058C0022D1A
S1130330132DC956DF4F2881C759D040C856DF4F07
S11303403881C859D040C756DF4F4881C959D04079
S1130350C656DF4F5881CA59D040C556DF4F688111
S1130360CB59D040C456DF4F7881CC59D040C356C6
S1130370DF4F8881CD59D040C256DF4F9881CE5986
S1130380D0400E94A403F301A080B180C280D38036
S1130390CB57DF4FE880F9800A811B81C558D040D4
S11303A0C757DF4F288139814A815B81C958D040C2
S11303B0C357DF4F688179818A819B81CD58D040B2
S11303C0EC81EF93EB81EF93EA81EF93E981EF9373
S11303D00E94A5030F900F900F900F9028C08330B8
S11303E031F50E94A90280E00E94EC06162F072F27
S11303F0F82EE92E81E00E94EC069F938F937F9361
S11304006F93EF92FF920F931F939F928F921F927D
S1130410F0E8FF935F924F920E94670E822D932D16
S11304200E94F5050FB6F894DEBF0FBECDBF8091D4
S1130430BE00882309F466CF87E0E1E6F0E0A22D50
S1130440B32D01900D928A95E1F7822D932D0E9490
S1130450F50558CF1F920F920FB60F9211248F9368
S11304609F9381E08093BE0098B382E0892788BB84
S11304709F918F910F900FBE0F901F901895A79A80
S1130480A69A8D9A8C9A82EA8FBD88E18EBD8EB52C
S113049081608EBD8FE193E097BD86BD0895CF92B4
S11304A0DF92EF92FF926A017B01811126C020E066
S11304B030E0A901C701B6010E94C40788237CF477
S11304C0AF9AC701B601905820E030EC47E454E4F9
S11304D00E941C090E943B087BBD6ABD35C0AF98D1
S11304E020E030EC47E454E4C701B6010E941C0943
S11304F00E943B087BBD6ABD27C0813029F520E0FE
S113050030E0A901C701B6010E94C40788237CF426
S1130510AE9AC701B601905820E030EC47E454E4A9
S11305200E941C090E943B0879BD68BD0DC0AE98AD
S113053020E030EC47E454E4C701B6010E941C09F2
S11305400E943B0879BD68BDFF90EF90DF90CF908B
S113055008954F925F926F927F928F929F92AF9283
S1130560BF92CF92DF92EF92FF92CF93DF9300D0AE
S113057000D0CDB7DEB70E94AF05843669F030F401
S1130580803209F465C08136F1F082C0833709F402
S113059048C0873779F17CC02AE037ED43E25CE359
S11305A06091CE027091CF028091D0029091D102DD
S11305B00E9458076093CE027093CF028093D002BA
S11305C09093D10265C02AE037ED43E25CE3609189
S11305D0D2027091D3028091D4029091D5020E94EC
S11305E058076093D2027093D3028093D4029093FD
S11305F0D5024EC02AE037ED43E25CE36091CB01C3
S11306007091CC018091CD019091CE010E94580748
S11306106093CB017093CC018093CD019093CE0174
S113062037C02AE037ED43E25CE36091C700709184
S1130630C8008091C9009091CA000E945807609335
S1130640C7007093C8008093C9009093CA0020C06B
S11306501092CE021092CF021092D0021092D102C8
S11306601092D2021092D3021092D4021092D502A8
S11306701092CB011092CC011092CD011092CE01B8
S11306801092C7001092C8001092C9001092CA00BC
S11306902091D2023091D3024091D4025091D502DC
S11306A06091CE027091CF028091D0029091D102DC
S11306B00E9457074B015C014090CB015090CC0144
S11306C06090CD017090CE01C090C700D090C8005A
S11306D0E090C900F090CA00A30192010E9458075B
S11306E0A70196010E94570769837A838B839C83B1
S11306F0A3019201C501B4010E945707A701960105
S11307000E945807AB01BC0180E00E944F0249815E
S11307105A816B817C8181E00E944F020F900F907F
S11307200F900F90DF91CF91FF90EF90DF90CF90DB
S1130730BF90AF909F908F907F906F905F904F90FD
S113074008950E94850508950895CF93DF93CDB74A
S1130750DEB7DF91CF91089587B1836287B986B1FF
S1130760876886B9369A3699FECF089587B1836231
S113077087B9369A3699FECF65B170E080E090E093
S11307800E946A0820E030E04FE753E40E94C90762
S113079028E431EE42E151E40E941C0920E030E0FB
S11307A040E550E40E941C0908959F92AF92BF92C5
S11307B0CF92DF92EF92FF920F931F93CF93DF9329
S11307C0CDB7DEB76E970FB6F894DEBF0FBECDBFC0
S11307D00E94B603D62EC72EB82EA92E26E636E6DC
S11307E046EE50E40E94C40788230CF041C078947C
S11307F01A821982FE0133968CE1DF011D928A95DB
S1130800E9F70F2EF6E9EF2EF0E0FF2EF02D8E0122
S11308100F5F1F4F6894992491F8AF92BF92CF92C3
S1130820DF92FF92EF921F930F930E94970EC801DD
S11308300E94F5058BB389258BBBBFEF29E688E1C0
S1130840B15020408040E1F700C000008BB38925FF
S11308508BBB9FEFA9E6B8E19150A040B040E1F70F
S113086000C000000FB6F894DEBF0FBECDBFD5CFD9
S11308706E960FB6F894DEBF0FBECDBFDF91CF9159
S11308801F910F91FF90EF90DF90CF90BF90AF90AA
S11308909F90089584E986BF06B604FCFDCF0895B1
S11308A094EA96BF06B607FEFDCF806D83B984E84F
S11308B086BF06B607FEFDCF0895CF93DF93D82FEA
S11308C0C62F80E00E945004D3B984E886BF06B6E0
S11308D007FEFDCFC3B984E886BF06B607FEFDCF89
S11308E00E944A04DF91CF9108950F931F93CF93F1
S11308F0DF93082F162FD72FC42F80E00E945004B7
S113090003B984E886BF06B607FEFDCF81E00E94E6
S113091050044C2F50E014161506CCF4E12FFD2F93
S113092080E090E0BA0161507109A4E834EC6817E2
S1130930790711F0232F01C02A2F26BF06B607FE20
S1130940FDCF23B1219301968417950781F70E9467
S11309504A04DF91CF911F910F9108950F931F9334
S1130960CF93DF9300D000D000D0CDB7DEB78C0199
S113097046E0BE016F5F7F4F8DE10E94750489815F
S113098090E0982F88272A81822BEFEBF0E02081DA
S11309903181821B930BD80111969C938E938B818A
S11309A090E0982F88272C81822B22813381821B0F
S11309B0930B13969C938E9312978D8190E0982FAE
S11309C088272E81822B24813581821B930B1596D7
S11309D09C938E93149726960FB6F894DEBF0FBEA1
S11309E0CDBFDF91CF911F910F9108954F925F92E8
S11309F06F927F928F929F92AF92BF92CF92DF922B
S1130A00EF92FF920F931F93CF93DF9300D000D008
S1130A1000D0CDB7DEB700E410E0C12CD12C7601B4
S1130A20812C912C5401412C512C3201CE01019680
S1130A300E94AE0489819A81092E000CAA0BBB0B7B
S1130A40480E591E6A1E7B1E8B819C81092E000C48
S1130A50AA0BBB0B880E991EAA1EBB1E8D819E81FC
S1130A60092E000CAA0BBB0BC80ED91EEA1EFB1ED6
S1130A708FE19EE40197F1F700C0000001501109D5
S1130A80A9F6EFEBF0E0689415F875946794579421
S1130A9047941694D1F751824082689415F8B5941E
S1130AA0A794979487941694D1F79382828268943A
S1130AB015F8F594E794D794C7941694D1F7D58292
S1130AC0C48226960FB6F894DEBF0FBECDBFDF9169
S1130AD0CF911F910F91FF90EF90DF90CF90BF9037
S1130AE0AF909F908F907F906F905F904F900895FC
S1130AF082E080B960E085E10E945D0463E186E103
S1130B000E945D040E94F60408958FE793E0909399
S1130B10D8028093D70281E090E09093DA02809328
S1130B20D9021092DC021092DB0208951092C500E3
S1130B301092C6001092D6021092CA011092DD02E1
S1130B4080B58F7780BD10BC8CE089B9599880B589
S1130B50806880BD86E880BD88ED8AB9089590914B
S1130B60D6028091CA01981789F0E091CA0181E008
S1130B708E0F8093CA01F0E0E153FE4F8081909183
S1130B80CA019F3F21F41092CA01089580E008959C
S1130B905D9B17C09091C5008091C600981789F09D
S1130BA0E091C60081E08E0F8093C600F0E0E5532B
S1130BB0FF4F80818CB98091C6008F3F11F4109251
S1130BC0C6000895E091C50091E09E0F9093C50082
S1130BD0F0E0E553FF4F80838091C5008F3F11F40F
S1130BE01092C5000E94C8050895CF93DF93EC01CD
S1130BF08881882331F021960E94E2058991811130
S1130C00FBCFDF91CF9108959CB1E091D60281E0B2
S1130C108E0F8093D602F0E0E153FE4F90838091D3
S1130C20D6028F3F11F41092D6028091DD02E82F94
S1130C30F0E0ED54FF4F2081921311C08F5F809339
S1130C40DD028A3071F483E60E94E20599E088E1CE
S1130C500FB6F894A89581BD0FBE91BDFFCF109239
S1130C60DD0208951F920F920FB60F9211242F9355
S1130C703F934F935F936F937F938F939F93AF9320
S1130C80BF93EF93FF930E94C805FF91EF91BF912B
S1130C90AF919F918F917F916F915F914F913F9110
S1130CA02F910F900FBE0F901F9018951F920F92C7
S1130CB00FB60F9211242F933F934F935F936F932B
S1130CC07F938F939F93AF93BF93EF93FF930E9470
S1130CD00406FF91EF91BF91AF919F918F917F9106
S1130CE06F915F914F913F912F910F900FBE0F9095
S1130CF01F901895BF9ABD9ABB9AB89ABC9A6C9AE1
S1130D006E9A6B986A9888B3896188BB089581113B
S1130D1005C0C4986B986A986D980895813029F439
S1130D20C0986B986A986D980895823029F4C39896
S1130D306B9A6A9A6D980895833619F488B3896119
S1130D4088BB08958FB9779BFECF8FB10895CF9359
S1130D50DF93D62FC42F0E9487068D2F0E94A206F0
S1130D608C2F0E94A20683E60E948706DF91CF9112
S1130D700895CF93C62F0E9487068C2F0E94A20647
S1130D8083E60E948706CF91089544E060E980E0FD
S1130D900E94A70643E068E880E00E94A70660E29C
S1130DA080E00E94B90640E060E980E00E94A70666
S1130DB044E060E981E00E94A70643E068E881E03E
S1130DC00E94A70660E281E00E94B90640E060E963
S1130DD081E00E94A7060895CF92DF92EF92FF92DE
S1130DE0CF93DF93C82F0E94870680E60E94A20655
S1130DF080E00E94A206D82F80E00E94A206C82E9E
S1130E00D12CE12CF12C7601DD24CC24FD2A80E0C8
S1130E100E94A206D82F80E00E94A206C82ADD2ADA
S1130E2083E60E948706C13041F4F094E094D094A4
S1130E30C094C11CD11CE11CF11CC701B601DF9197
S1130E40CF91FF90EF90DF90CF900895CF93DF93F1
S1130E50D82FC62F82E00E9487068D2F0E94A206FB
S1130E608C2F0E94A20683E60E948706DF91CF9111
S1130E7008956AE08CE20E9426076BE081E30E94F9
S1130E80260760E08DE20E94260760E18DE20E9461
S1130E90260768E08DE20E9426072FEF80E792E0A4
S1130EA0215080409040E1F700C000000895505860
S1130EB0BB27AA270E946F070C94E2080E94D4085B
S1130EC038F00E94DB0820F039F49F3F19F426F42F
S1130ED00C94D1080EF4E095E7FB0C94CB08E92FB1
S1130EE00E94F30858F3BA1762077307840795073B
S1130EF020F079F4A6F50C9415090EF4E0950B2E68
S1130F00BA2FA02D0B01B90190010C01CA01A00157
S1130F101124FF27591B99F0593F50F4503E68F1B2
S1130F201A16F040A22F232F342F4427585FF3CFF3
S1130F30469537952795A795F0405395C9F77EF4C4
S1130F401F16BA0B620B730B840BBAF09150A1F00D
S1130F50FF0FBB1F661F771F881FC2F70EC0BA0F93
S1130F60621F731F841F48F4879577956795B7951B
S1130F70F7959E3F08F0B0CF9395880F08F0992716
S1130F80EE0F9795879508950E94A70808F481E0CD
S1130F9008950E94DD070C94E2080E94DB0858F0D3
S1130FA00E94D40840F029F45F3F29F00C94CB0848
S1130FB051110C9416090C94D1080E94F30868F39B
S1130FC09923B1F3552391F3951B550BBB27AA27FE
S1130FD062177307840738F09F5F5F4F220F331F38
S1130FE0441FAA1FA9F335D00E2E3AF0E0E832D000
S1130FF091505040E695001CCAF72BD0FE2F29D003
S1131000660F771F881FBB1F261737074807AB07D4
S1131010B0E809F0BB0B802DBF01FF2793585F4F49
S11310203AF09E3F510578F00C94CB080C941609C5
S11310305F3FE4F3983ED4F3869577956795B7952B
S1131040F7959F5FC9F7880F911D9695879597F936
S11310500895E1E0660F771F881FBB1F62177307AF
S11310608407BA0720F0621B730B840BBA0BEE1FC4
S113107088F7E09508950E94FB0888F09F5798F040
S1131080B92F9927B751B0F0E1F0660F771F881F89
S1131090991F1AF0BA95C9F714C0B13091F00E94A3
S11310A01509B1E008950C941509672F782F882746
S11310B0B85F39F0B93FCCF3869577956795B395CA
S11310C0D9F73EF490958095709561957F4F8F4F39
S11310D09F4F0895E89409C097FB3EF4909580953E
S11310E0709561957F4F8F4F9F4F9923A9F0F92FEA
S11310F096E9BB279395F695879577956795B79568
S1131100F111F8CFFAF4BB0F11F460FF1BC06F5F4D
S11311107F4F8F4F9F4F16C0882311F096E911C05F
S1131120772321F09EE8872F762F05C0662371F080
S113113096E8862F70E060E02AF09A95660F771F94
S1131140881FDAF7880F9695879597F90895990F70
S11311500008550FAA0BE0E8FEEF16161706E8077D
S1131160F907C0F012161306E407F50798F0621B9E
S1131170730B840B950B39F40A2661F0232B242B73
S1131180252B21F408950A2609F4A140A6958FEF92
S1131190811D811D089597F99F6780E870E060E0E4
S11311A008959FEF80EC089500240A9416161706FC
S11311B018060906089500240A9412161306140644
S11311C005060895092E0394000C11F4882352F0A7
S11311D0BB0F40F4BF2B11F460FF04C06F5F7F4F5F
S11311E08F4F9F4F089557FD9058440F551F59F046
S11311F05F3F71F04795880F97FB991F61F09F3F00
S113120079F087950895121613061406551FF2CF28
S11312104695F1DF08C0161617061806991FF1CF78
S113122086957105610508940895E894BB2766279F
S11312307727CB0197F908950E942F090C94E208AF
S11312400E94D40838F00E94DB0820F0952311F0A6
S11312500C94CB080C94D10811240C9416090E9408
S1131260F30870F3959FC1F3950F50E0551F629FEB
S1131270F001729FBB27F00DB11D639FAA27F00DEB
S1131280B11DAA1F649F6627B00DA11D661F829F12
S11312902227B00DA11D621F739FB00DA11D621FF7
S11312A0839FA00D611D221F749F3327A00D611D14
S11312B0231F849F600D211D822F762F6A2F1124F6
S11312C09F5750409AF0F1F088234AF0EE0FFF1F29
S11312D0BB1F661F771F881F91505040A9F79E3F80
S11312E0510580F00C94CB080C9416095F3FE4F38D
S11312F0983ED4F3869577956795B795F795E795D6
S11313009F5FC1F7FE2B880F911D9695879597F9DE
S11313100895A0E1B0E0EFE8F9E00C94060D7C013B
S11313201B016A01FC0117821682838181FF44C379
S11313309E012F5F3F4F3901F7019381F10193FD26
S1131340859193FF81911F01882309F431C385326C
S113135039F493FD859193FF81911F01853239F40E
S1131360B70190E00E942B0E56016501E5CF10E015
S1131370512C912CFFE1F915D8F08B3279F038F427
S1131380803279F08332A1F4F92DF0612EC08D32D0
S113139061F0803369F4292D21602DC0392D32602C
S11313A0932E892D8460982E2AC0E92DE86015C0FB
S11313B097FC2DC020ED280F2A3088F496FE06C035
S11313C03AE0139F200D1124122F19C08AE0589E71
S11313D0200D1124522EE92DE0629E2E10C08E3273
S11313E031F496FCE5C2F92DF0649F2E08C08C36CA
S11313F021F4292D2068922E02C0883641F4F1018F
S113140093FD859193FF81911F018111B3CF9BEBD4
S1131410980F933020F4992D9061805E07C09BE96A
S1131420980F933008F066C1992D9F7E96FF16E0C1
S11314309F73992E853619F49064992E08C08636C8
S113144021F4392F3068932E02C01111115097FEE8
S113145007C01C3350F444244394410E27E00BC0CE
S1131460183038F027E017E005C027E09CE3492E48
S113147002C0212F412C560184E0A80EB11CF601B4
S11314806081718182819381042DA3010E943D0DAD
S11314906C01F981FC87F0FF02C0F3FF06C091FCE8
S11314A006C092FE06C000E205C00DE203C00BE2D6
S11314B001C000E08C858C7019F001115AC29BC2E6
S11314C097FE10C04C0CFC85F4FF04C08A81813364
S11314D009F44A94141474F528E0241578F588E086
S11314E0482E2CC096FC2AC0812F90E08C159D05B7
S11314F09CF03CEFC3163FEFD30674F0892D80684F
S1131500982E0AC0E2E0F0E0EC0FFD1FE10FF11DA0
S11315108081803319F411501111F4CF97FE0EC05D
S113152044244394410E812F90E0C816D9062CF42C
S11315301C1904C04424439401C010E097FE06C063
S11315401C141D0434F4C601019605C085E090E026
S113155002C081E090E001110196112331F0212FA6
S113156030E02F5F3F4F820F931F252D30E082170D
S1131570930714F4581A01C0512C892D897049F429
S1131580552039F0B70180E290E00E942B0E5A9466
S1131590F7CF002329F0B701802F90E00E942B0E93
S11315A093FC09C0552039F0B70180E390E00E9414
S11315B02B0E5A94F7CF97FE4CC04601D7FE02C0BB
S11315C0812C912CC60188199909F301E80FF91FA0
S11315D0FE87ED87960124193109388B2F87012F57
S11315E010E01195019511093FEF8316930629F434
S11315F0B7018EE290E00E942B0EC814D9044CF07F
S11316008F8598898815990524F4ED85FE85818157
S113161001C080E3F1E08F1A91082D853E852F5F8C
S11316203F4F3E872D87801691062CF0B70190E03E
S11316300E942B0ED9CFC814D90441F49A81963351
S113164020F4953319F43C8534FF81E3B70190E02D
S11316504EC08A81813319F09C859F7E9C87B70197
S113166090E00E942B0E111105C094FC18C085E671
S113167090E017C0B7018EE290E00E942B0E1E5F2F
S113168082E001E0080FF301E80FF11D8081B7014A
S113169090E00E942B0E802F0113F3CFE6CF85E458
S11316A090E0B7010E942B0ED7FC06C0C114D104F0
S11316B041F4EC85E4FF05C0D194C194D1088DE2D6
S11316C001C08BE2B70190E00E942B0E80E32AE078
S11316D0C216D1042CF08F5FFAE0CF1AD108F7CFED
S11316E0B70190E00E942B0EB701C601C0960E947C
S11316F02B0E54C1833631F0833779F0833509F0EA
S113170056C020C0560132E0A30EB11CF601808100
S1131710898301E010E0630112C05601F2E0AF0ECC
S1131720B11CF601C080D18096FE03C0612F70E029
S113173002C06FEF7FEFC6010E94200E8C01F92DCD
S1131740FF7714C0560122E0A20EB11CF601C0803E
S1131750D18096FE03C0612F70E002C06FEF7FEF6F
S1131760C6010E94150E8C01F92DF0689F2EF3FD21
S11317701AC0852D90E008171907A8F4B70180E274
S113178090E00E942B0E5A94F4CFF60197FC8591B9
S113179097FE81916F01B70190E00E942B0E5110CA
S11317A05A94015011090115110579F7F7C08436CF
S11317B011F0893661F5560197FE09C024E0A20EA6
S11317C0B11CF60160817181828193810AC0F2E0CB
S11317D0AF0EB11CF60160817181072E000C880BDD
S11317E0990BF92DFF769F2E97FF09C09095809550
S11317F0709561957F4F8F4F9F4FF0689F2E2AE021
S113180030E0A3010E94B90EC82EC6183FC0092DAE
S1131810853721F40F7E2AE030E01DC0097F8F3622
S113182091F018F4883559F0C3C0803719F088371F
S113183011F0BEC0006104FF09C0046007C094FE3B
S113184008C0066006C028E030E005C020E130E0B2
S113185002C020E132E0560107FF09C084E0A80E6F
S1131860B11CF601608171818281938108C0F2E02C
S1131870AF0EB11CF6016081718180E090E0A3019C
S11318800E94B90EC82EC6180F77902E96FE0BC074
S1131890092D0E7FC11650F494FE0AC092FC08C0B4
S11318A0092D0E7E05C0DC2C092D03C0DC2C01C0E3
S11318B0D12E04FF0DC0FE01EC0DF11D808180339B
S11318C011F4097E09C002FF06C0D394D39404C066
S11318D0802F867809F0D39403FD11C000FF06C061
S11318E01C2DD51480F4150D1D190DC0D51458F4F4
S11318F0B70180E290E00E942B0ED394F7CFD51469
S113190010F45D1801C0512C04FF10C0B70180E32E
S113191090E00E942B0E02FF17C001FD03C088E770
S113192090E002C088E590E0B7010CC0802F867873
S113193059F001FF02C08BE201C080E207FD8DE295
S1131940B70190E00E942B0EC11638F4B70180E372
S113195090E00E942B0E1150F7CFCA94F301EC0DC6
S1131960F11D8081B70190E00E942B0EC110F5CFCC
S113197015C0F4E0F51560F584E0581A93FE1FC015
S1131980011127C02C8523FF2AC004E510E0392D5E
S11319903071932EF8018491811124C0552009F4EB
S11319A0E4CCB70180E290E00E942B0E5A94F6CF6B
S11319B0F7018681978126C08FEF9FEF23C0B7017F
S11319C080E290E00E942B0E5A945110F8CFD8CFA9
S11319D0512CB701802F90E00E942B0ED3CF08E545
S11319E010E0D5CF91108052B70190E00E942B0EE9
S11319F00F5F1F4FCFCF23E0251510F483E0BDCF39
S1131A00512CC0CF6096E2E10C94220D2F923F92AC
S1131A104F925F926F927F928F929F92AF92BF92FA
S1131A20CF92DF92EF92FF920F931F93CF93DF93A6
S1131A30CDB7DEB7CA1BDB0B0FB6F894DEBF0FBE03
S1131A40CDBF09942A88398848885F846E847D8450
S1131A508C849B84AA84B984C884DF80EE80FD8052
S1131A600C811B81AA81B981CE0FD11D0FB6F894C8
S1131A70DEBF0FBECDBFED010895283008F027E08A
S1131A803327DA01990F311D87FD916000966105B6
S1131A90710539F432602E5F3D9330E32A95E1F706
S1131AA008959F3F30F080387105610509F03C5F6F
S1131AB03C5F3D93913008F08068911DDF93CF9394
S1131AC01F930F93FF92EF92192F987F9695E92F0A
S1131AD096959695E90FFF27EA54FF4F99273327E8
S1131AE0EE24FF24A701E70105900894079428F445
S1131AF0360FE71EF81E491F511D660F771F881FFA
S1131B00991F0694A1F70590079428F4E70EF81E90
S1131B10491F561FC11D770F881F991F661F069402
S1131B20A1F70590079428F4F80E491F561FC71F04
S1131B30D11D880F991F661F771F0694A1F7059082
S1131B40079420F4490F561FC71FD81F990F661F0B
S1131B50771F881F0694A9F784911095177041F098
S1131B60D695C79557954795F794E7941A95C1F775
S1131B70ECE5F0E068941590159135916591959197
S1131B8005907FE27395E118F10A430B560BC90BDC
S1131B90D009C0F7E10CF11E431F561FC91FD01D09
S1131BA07EF4703311F48A95E6CFE894015030F056
S1131BB0080F0AF40027021708F4202F2395022F98
S1131BC07A3328F079E37D932A95E9F710C07D9361
S1131BD02A9589F6069497956795379517951794DE
S1131BE0E118F10A430B560BC90BD00998F0239561
S1131BF07E9173957A3308F070E37C932013B8F7E1
S1131C007E9170617D9330F0839571E37D9370E3F1
S1131C102A95E1F71124EF90FF900F911F91CF9136
S1131C20DF91992787FD90950895FC0105906150F7
S1131C3070400110D8F7809590958E0F9F1F0895DE
S1131C40FC016150704001900110D8F78095909587
S1131C508E0F9F1F08950F931F93CF93DF93FB0164
S1131C60238121FD03C08FEF9FEF2CC022FF16C0FC
S1131C7046815781248135814217530744F4A0815A
S1131C80B1819D012F5F3F4F318320838C93268147
S1131C9037812F5F3F4F3783268314C08B01EC01BC
S1131CA0FB010084F185E02D0995892BE1F6D8012B
S1131CB016968D919C911797019617969C938E93E7
S1131CC01697CE01DF91CF911F910F910895AEE049
S1131CD0B0E0EDE6FEE00C94140D0D891E898F89A9
S1131CE0988D26E02C831A83098397FF02C080E035
S1131CF090E801979E838D83AE01455E5F4F698DA9
S1131D007A8DCE0101960E9489094D815E8157FD2D
S1131D100AC02F813885421753070CF49A01F80141
S1131D20E20FF31F10822E96E4E00C94300DAEE027
S1131D30B0E0EDE9FEE00C94140D0D891E8986E0F7
S1131D408C831A8309838FEF9FE79E838D83AE0173
S1131D50475E5F4F6F89788DCE0101960E94890995
S1131D60EF81F885E00FF11F10822E96E4E00C94C9
S1131D70300DFA01AA27283051F1203181F1E8947D
S1131D806F936E7F6E5F7F4F8F4F9F4FAF4FB1E06A
S1131D903ED0B4E03CD0670F781F891F9A1FA11D65
S1131DA0680F791F8A1F911DA11D6A0F711D811D66
S1131DB0911DA11D20D009F468943F912AE0269F2B
S1131DC011243019305D3193DEF6CF010895462F8A
S1131DD04770405D4193B3E00FD0C9F7F6CF462F6B
S1131DE04F70405D4A3318F0495D31FD40524193D4
S1131DF002D0A9F7EACFB4E0A69597958795779591
S1131E006795BA95C9F700976105710508959B0117
S1131E10AC010A2E06945795479537952795BA95A0
S1131E20C9F7620F731F841F951FA01D0895F894AE
S1051E30FFCFDE
S1131E32036D6973730D0A0046494E49534845447C
S1131E4220494E495449414C495A4154494F4E0D37
S1131E520A004C3A2025366C642C20523A2025364E
S1131E626C64200D0A00416B6B75206C65657221F0
S1131E7220555F416B6B75203D20252E316656201F
S1111E820A0D00424F4F544C4F41444552004C
S9030000FC
