:100000000C94CF070C94EC070C94EC070C94EC07C1
:100010000C94EC070C94EC070C94EC070C94EC0794
:100020000C94EC070C94EC070C94B60C0C94EC07B5
:100030000C94EC070C94C4160C94EC070C94A016CA
:100040000C94EC070C94EC070C94EC070C94EC0764
:100050000C94EC07084AD73B3BCE016E84BCBFFD35
:10006000C12F3D6C74319ABD56833DDA3D00C77F88
:1000700011BED9E4BB4C3E916BAAAABE0000008021
:100080003F05A84CCDB2D44EB93836A9020C50B9B0
:10009000918688083CA6AAAA2ABE000000803F00DC
:1000A0006E616E00696E660000407A10F35A00A01F
:1000B000724E18090010A5D4E80000E87648170031
:1000C00000E40B54020000CA9A3B000000E1F50571
:1000D000000080969800000040420F000000A086BB
:1000E00001000000102700000000E80300000000ED
:1000F0006400000000000A00000000000100000091
:1001000000002C76D888DC674F0823DFC1DFAE59AA
:10011000E1B1B796E5E3E453C63AE651997696E83D
:10012000E6C28426EB898C9B62ED407C6FFCEFBCC1
:100130009C9F40F2BAA56FA5F490055A2AF75C93EC
:100140006B6CF9676DC11BFCE0E40D47FEF520E622
:10015000B500D0ED902E0300943577050080841E05
:10016000080000204E0A000000C80C333333330F60
:10017000986E12831141EF8D2114893BE65516CFFD
:10018000FEE6DB18D1844B381BF77C1D901DA4BB09
:10019000E424203284725E228100C9F124ECA1E5BE
:1001A0003D270000000000000000000000000000EB
:1001B000000000000000000000000000000000003F
:1001C000000000000000000000000000000000002F
:1001D000000000000000000000000000000000001F
:1001E000000000000000000000000000000000000F
:1001F00000000000000000000000000000000000FF
:1002000000000000000000000000000000000000EE
:1002100000000000000000000000000000000000DE
:1002200000000000000000000000000000000000CE
:1002300000000000000000000000000000000000BE
:1002400000000000000000000000000000000000AE
:10025000000000000000000000000000000000009E
:10026000000000000000000000000000000000008E
:10027000000000000000000000000000000000007E
:10028000000000000000000000000000000000006E
:10029000000000000000000000000000000000005E
:1002A00000000000000000000000000000E9E9E993
:1002B000E9E9E9EAEAEAEAEAEAEAEAEAEAEAEAEAA1
:1002C000EAEAEAEAEAEAEAEAEAEAEAEAEAEAEAEA8E
:1002D000EAEAEAEAEAEBEBEBEBEBEBEBEBEBEBEB73
:1002E000EBEBEBEBEBECECECECECECECECECECEC53
:1002F000ECECEDEDEDEDEDEDEDEDEDEDEDEEEEEE2D
:10030000EEEEEEEEEEEEEEEFEFEFEFEFEFEFEFEF04
:10031000F0F0F0F0F0F0F0F0F0F1F1F1F1F1F1F1D6
:10032000F1F2F2F2F2F2F2F2F3F3F3F3F3F3F3F4A5
:10033000F4F4F4F4F4F4F5F5F5F5F5F5F5F6F6F670
:10034000F6F6F6F6F7F7F7F7F7F7F8F8F8F8F8F83B
:10035000F8F9F9F9F9F9F9FAFAFAFAFAFAFBFBFB02
:10036000FBFBFBFCFCFCFCFCFCFDFDFDFDFDFDFEC8
:10037000FEFEFEFEFEFFFFFFFFFFFF00000000008D
:100380000001010101010102020202020203030352
:100390000303030404040404040505050505050618
:1003A00006060606060707070707070808080808DD
:1003B00008090909090909090A0A0A0A0A0A0B0BA4
:1003C0000B0B0B0B0B0C0C0C0C0C0C0C0D0D0D0D6E
:1003D0000D0D0D0E0E0E0E0E0E0E0E0F0F0F0F0F3B
:1003E0000F0F0F101010101010101011111111110B
:1003F00011111111121212121212121212121313DF
:1004000013131313131313131314141414141414B5
:100410001414141414141515151515151515151592
:100420001515151515151516161616161616161673
:10043000161616161616161616161616161616165C
:100440001616161616161616161717171717171745
:100450001717171717161616161616161616161637
:10046000161616161616161616161616161616162C
:100470001616161616161615151515151515151525
:100480001515151515151515141414141414141424
:100490001414141414131313131313131313131327
:1004A0001212121212121212121211111111111132
:1004B00011111110101010101010100F0F0F0F0F3E
:1004C0000F0F0F0E0E0E0E0E0E0E0E0D0D0D0D0D4E
:1004D0000D0D0C0C0C0C0C0C0C0B0B0B0B0B0B0B61
:1004E0000A0A0A0A0A0A0909090909090908080879
:1004F0000808080707070707070606060606060690
:1005000005050505050504040404040403030303A9
:1005100003030202020202020101010101010000C3
:1005200000000000000000000000000000000000CB
:1005300000000000000000000000000000000000BB
:1005400000000000000000000000000000000000AB
:10055000000000000000000000000000000000009B
:10056000000000000000000000000000000000008B
:10057000000000000000000000000000000000007B
:10058000000000000000000000000000000000006B
:10059000000000000000000000000000000000005B
:1005A000000000000000000000000000000000004B
:1005B000000000000000000000000000000000003B
:1005C000000000000000000000000000000000002B
:1005D000000000000000000000000000000000001B
:1005E000000000000000000000000000000000000B
:1005F00000000000000000000000000000000000FB
:1006000000000000000000000000000000000000EA
:1006100000000000000000000000000000000000DA
:100620000000000000000000000000000000FFFFCC
:10063000FFFFFFFFFEFEFEFEFEFEFDFDFDFDFDFDDC
:10064000FCFCFCFCFCFCFBFBFBFBFBFBFAFAFAFAF8
:10065000FAFAFAF9F9F9F9F9F9F8F8F8F8F8F8F70F
:10066000F7F7F7F7F7F7F6F6F6F6F6F6F5F5F5F528
:10067000F5F5F5F4F4F4F4F4F4F4F3F3F3F3F3F33D
:10068000F3F2F2F2F2F2F2F2F2F1F1F1F1F1F1F150
:10069000F1F0F0F0F0F0F0F0F0EFEFEFEFEFEFEF60
:1006A000EFEFEEEEEEEEEEEEEEEEEEEEEDEDEDED6C
:1006B000EDEDEDEDEDEDEDECECECECECECECECEC73
:1006C000ECECECECEBEBEBEBEBEBEBEBEBEBEBEB76
:1006D000EBEBEBEBEBEAEAEAEAEAEAEAEAEAEAEA75
:1006E000EAEAEAEAEAEAEAEAEAEAEAEAEAEAEAEA6A
:1006F000EAEAEAEAEAEAEAE9E9E9E9E9E9E9E9E963
:10070000E9E9E9EAEAEAEAEAEAEAEAEAEAEAEAEA4C
:10071000EAEAEAEAEAEAEAEAEAEAEAEAEAEAEAEA39
:10072000EAEAEAEAEAEBEBEBEBEBEBEBEBEBEBEB1E
:10073000EBEBEBEBEBEBECECECECECECECECECECFF
:10074000ECECECEDEDEDEDEDEDEDEDEDEDEDEEEEDA
:10075000EEEEEEEEEEEEEEEEEFEFEFEFEFEFEFEFB1
:10076000EFF0F0F0F0F0F0F0F0F1F1F1F1F1F1F183
:10077000F1F2F2F2F2F2F2F2F2F3F3F3F3F3F3F353
:10078000F4F4F4F4F4F4F4F5F5F5F5F5F5F5F6F61E
:10079000F6F6F6F6F7F7F7F7F7F7F7F8F8F8F8F8E8
:1007A000F8F9F9F9F9F9F9FAFAFAFAFAFAFBFBFBAE
:1007B000FBFBFBFCFCFCFCFCFCFDFDFDFDFDFDFE74
:1007C000FEFEFEFEFEFFFFFFFFFFFF000000000039
:1007D00000010101010101020202020202030303FE
:1007E00003030304040404040405050505050506C4
:1007F0000606060606070707070707080808080889
:1008000008080909090909090A0A0A0A0A0A0A0B51
:100810000B0B0B0B0B0B0C0C0C0C0C0C0C0D0D0D1B
:100820000D0D0D0D0E0E0E0E0E0E0E0F0F0F0F0FE7
:100830000F0F0F10101010101010101011111111B7
:10084000111111111112121212121212121212138C
:100850001313131313131313131314141414141462
:10086000141414141414141515151515151515153F
:10087000151515151515151616161616161616161F
:100880001616161616161616161616161616161608
:1008900016161616161616161617171717171717F1
:1008A0000000000000000000000000000000000048
:1008B0000000000000000000000000000000000038
:1008C0000000000000000000000000000000000028
:1008D0000000000000000000000000000000000018
:1008E0000000000000000000000000000000000008
:1008F00000000000000000000000000000000000F8
:1009000000000000000000000000000000000000E7
:1009100000000000000000000000000000000000D7
:1009200000000000000000000000000000000000C7
:1009300000000000000000000000000000000000B7
:1009400000000000000000000000000000000000A7
:100950000000000000000000000000000000000097
:100960000000000000000000000000000000000087
:100970000000000000000000000000000000000077
:100980000000000000000000000000000000000067
:100990000000000000000000000000000000000057
:1009A00000000000000000000000000000FFFFFF4A
:1009B000FFFEFEFEFEFEFDFDFDFDFCFCFCFCFCFB67
:1009C000FBFBFBFAFAFAFAFAF9F9F9F9F8F8F8F890
:1009D000F8F7F7F7F7F6F6F6F6F6F5F5F5F5F5F4B8
:1009E000F4F4F4F4F3F3F3F3F3F2F2F2F2F2F1F1DC
:1009F000F1F1F1F0F0F0F0F0EFEFEFEFEFEEEEEEFF
:100A0000EEEEEEEDEDEDEDEDEDECECECECECECEB1B
:100A1000EBEBEBEBEBEAEAEAEAEAEAE9E9E9E9E936
:100A2000E9E9E8E8E8E8E8E8E8E8E7E7E7E7E7E74A
:100A3000E7E7E6E6E6E6E6E6E6E6E6E5E5E5E5E559
:100A4000E5E5E5E5E5E4E4E4E4E4E4E4E4E4E4E461
:100A5000E4E3E3E3E3E3E3E3E3E3E3E3E3E3E3E365
:100A6000E3E3E3E2E2E2E2E2E2E2E2E2E2E2E2E263
:100A7000E2E2E2E2E2E2E2E2E2E2E2E2E2E2E2E256
:100A8000E2E2E2E2E2E2E2E2E2E2E2E2E2E2E2E246
:100A9000E2E2E2E2E2E3E3E3E3E3E3E3E3E3E3E32B
:100AA000E3E3E3E3E3E3E4E4E4E4E4E4E4E4E4E40C
:100AB000E4E4E4E5E5E5E5E5E5E5E5E5E5E6E6E6E6
:100AC000E6E6E6E6E6E6E7E7E7E7E7E7E7E7E8E8BA
:100AD000E8E8E8E8E8E9E9E9E9E9E9E9EAEAEAEA87
:100AE000EAEAEAEBEBEBEBEBEBECECECECECECED51
:100AF000EDEDEDEDEDEEEEEEEEEEEFEFEFEFEFEF15
:100B0000F0F0F0F0F0F1F1F1F1F1F2F2F2F2F2F3D3
:100B1000F3F3F3F3F4F4F4F4F4F5F5F5F5F5F6F690
:100B2000F6F6F7F7F7F7F7F8F8F8F8F8F9F9F9F94A
:100B3000FAFAFAFAFAFBFBFBFBFCFCFCFCFCFDFD01
:100B4000FDFDFEFEFEFEFEFFFFFFFF0000000001B8
:100B5000010101010202020203030303030404046E
:100B60000405050505050606060607070707070825
:100B700008080809090909090A0A0A0A0A0B0B0BDD
:100B80000B0B0C0C0C0C0D0D0D0D0D0E0E0E0E0E98
:100B90000F0F0F0F0F101010101010111111111155
:100BA0001212121212121313131313141414141416
:100BB00014151515151515151616161616161717DC
:100BC00017171717171818181818181819191919A6
:100BD000191919191A1A1A1A1A1A1A1A1A1B1B1B76
:100BE0001B1B1B1B1B1B1B1B1C1C1C1C1C1C1C1C4D
:100BF0001C1C1C1C1D1D1D1D1D1D1D1D1D1D1D1D29
:100C00001D1D1D1D1D1D1E1E1E1E1E1E1E1E1E1E0A
:100C10001E1E1E1E1E1E1E1E1E1E1E1E1E1E1E0012
:100C20001E1E1E1E1E1E1E1E1E1E1E1E1E1E1E1EE4
:100C30001E1E1E1E1E1E1E1E1E1E1E1E1E1E1E1ED4
:100C40001E1E1E1E1E1E1E1E1E1E1E1E1E1E1E1EC4
:100C50001E1E1E1E1E1E1E1E1E1E1E1E1E1E1E1EB4
:100C60001E1E1E1E1E1E1E1E1E1E1E1E1E1E1E1EA4
:100C70001E1E1E1E1E1E1E1E1E1E1E1E1E1E1E1E94
:100C80001E1E1E1E1E1E1E1E1E1E1E1E1E1E1E1E84
:100C90001E1E1E1E1E1E1E1E1E1E1E1E1E1E1E1E74
:100CA0001E1E1E1E1E1E1E1E1E1E1E1E1E1E1E1E64
:100CB0001E1E1E1E1E1E1E1E1E1E1E1E1E1E1E1E54
:100CC0001E1E1E1E1E1E1E1E1E1E1E1E1E1E1E1E44
:100CD0001E1E1E1E1E1E1E1E1E1E1E1E1E1E1E1E34
:100CE0001E1E1E1E1E1E1E1E1E1E1E1E1E1E1E1E24
:100CF0001E1E1E1E1E1E1E1E1E1E1E1E1E1E1E1E14
:100D00001E1E1E1E1E1E1E1E1E1E1E1E1E1E1E1E03
:100D10001E1E1E1E1E1E1E1E1E1E1E1E1E1E1E1EF3
:100D20001E1E1E1E1E1E1E1E1E1E1E1E1E1E1E1EE3
:100D30001E1E1E1E1E1E1E1E1E1E1E1E1E1E1E1ED3
:100D40001E1E1D1D1D1D1D1D1D1D1D1D1D1D1D1DD1
:100D50001D1D1D1D1C1C1C1C1C1C1C1C1C1C1C1CCF
:100D60001B1B1B1B1B1B1B1B1B1B1B1A1A1A1A1AD8
:100D70001A1A1A1A191919191919191918181818E3
:100D800018181817171717171717161616161616F6
:100D9000151515151515151414141414141313130F
:100DA000131312121212121211111111111010102C
:100DB0001010100F0F0F0F0F0E0E0E0E0E0D0D0D4B
:100DC0000D0D0C0C0C0C0B0B0B0B0B0A0A0A0A0A70
:100DD0000909090909080808080707070707060697
:100DE00006060505050505040404040303030303BF
:100DF00002020202010101010100000000FFFFFFE9
:100E0000FFFEFEFEFEFEFDFDFDFDFCFCFCFCFCFB12
:100E1000FBFBFBFAFAFAFAFAF9F9F9F9F8F8F8F83B
:100E2000F8F7F7F7F7F7F6F6F6F6F5F5F5F5F5F462
:100E3000F4F4F4F4F3F3F3F3F3F2F2F2F2F2F1F187
:100E4000F1F1F1F0F0F0F0F0EFEFEFEFEFEFEEEEA9
:100E5000EEEEEEEDEDEDEDEDEDECECECECECECEBC7
:100E6000EBEBEBEBEBEAEAEAEAEAEAEAE9E9E9E9E1
:100E7000E9E9E9E8E8E8E8E8E8E8E7E7E7E7E7E7F5
:100E8000E7E7E6E6E6E6E6E6E6E6E6E5E5E5E5E505
:100E9000E5E5E5E5E5E4E4E4E4E4E4E4E4E4E4E40D
:100EA000E4E4E3E3E3E3E3E3E3E3E3E3E3E3E3E310
:100EB000E3E3E3E2E2E2E2E2E2E2E2E2E2E2E2E20F
:100EC000E2E2E2E2E2E2E2E2E2E2E2E2E2E2E2E202
:100ED000E2E2E2E2E2E2E2E2E2E2E2E2E2E2E2E2F2
:100EE000E2E2E2E2E2E3E3E3E3E3E3E3E3E3E3E3D7
:100EF000E3E3E3E3E3E3E3E4E4E4E4E4E4E4E4E4B9
:100F0000E4E4E4E5E5E5E5E5E5E5E5E5E5E6E6E691
:100F1000E6E6E6E6E6E6E7E7E7E7E7E7E7E7E8E865
:100F2000E8E8E8E8E8E8E9E9E9E9E9E9E9EAEAEA34
:100F3000EAEAEAEBEBEBEBEBEBECECECECECECEDFC
:100F4000EDEDEDEDEDEEEEEEEEEEEEEFEFEFEFEFC1
:100F5000F0F0F0F0F0F1F1F1F1F1F2F2F2F2F2F37F
:100F6000F3F3F3F3F4F4F4F4F4F5F5F5F5F5F6F63C
:100F7000F6F6F6F7F7F7F7F8F8F8F8F8F9F9F9F9F7
:100F8000FAFAFAFAFAFBFBFBFBFCFCFCFCFCFDFDAD
:100F9000FDFDFEFEFEFEFEFFFFFFFF000000112430
:100FA0001FBECFE5D8E0DEBFCDBF10E0A0E6B0E0C9
:100FB000E0EBF1E402C005900D92AE3FB107D9F726
:100FC00023E0AEEFB0E001C01D92AF35B207E1F70C
:100FD0000E94150C0C94D6200C9400004F925F9246
:100FE0006F927F928F929F92AF92BF92CF92DF9239
:100FF000EF92FF922B013C0120EB33ED47EB58E3DE
:101000000E94AD1A4B015C012091400130914101D9
:1010100040914201509143010E94FF176B017C01F6
:1010200020EB33ED47E359E3C301B2010E94AD1A4F
:10103000209138013091390140913A0150913B01A2
:101040000E94FF172B013C012BE836E94CEF5FE3D0
:10105000C701B6010E94AD1A9B01AC01C301B201E8
:101060000E94FF17609340017093410180934201F9
:101070009093430121E134E449E75FEBC701B601F6
:101080000E94AD1AA50194010E94FF1760933801D8
:101090007093390180933A0190933B01C701B601E7
:1010A000FF90EF90DF90CF90BF90AF909F908F9088
:1010B0007F906F905F904F9008954F925F926F92E4
:1010C0007F928F929F92AF92BF92EF92FF920F9377
:1010D0001F93CF93DF93CDB7DEB72C970FB6F8945D
:1010E000DEBF0FBECDBF7C018B01CE0101960E94F9
:1010F000C517CE0107960E94C71369817A81072E12
:10110000000C880B990B0E948A194B015C016D81C0
:101110007E81072E000C880B990B0E948A19A5016D
:1011200094010E947E184B015C0169857A85072E27
:10113000000C880B990B0E948A1920E030E04AEFDE
:101140005CE30E94AD1A2AE037ED43E25CE30E94C3
:10115000AD1A20915403309155034091560350919C
:1011600057030E94FF172B013C01609354037093B7
:101170005503809356039093570320EE3EE245E6D5
:1011800052E4C501B4010E94AD1AA30192010E946C
:10119000FE170E94EE079B01AC0160915403709111
:1011A000550380915603909157030E94FF17F70152
:1011B000608371838283938369857A85072E000C0F
:1011C000880B990B0E948A1920E030E04AEF5CE31B
:1011D0000E94AD1AF80160837183828393832C96F9
:1011E0000FB6F894DEBF0FBECDBFDF91CF911F9138
:1011F0000F91FF90EF90BF90AF909F908F907F9056
:101200006F905F904F9008954F925F926F927F9290
:101210008F929F92AF92BF92CF92DF92EF92FF9206
:101220000F931F9329013A019B01AC01C801B7013B
:101230000E94FE174B015C012AE037ED43E25CE3BC
:101240000E94AD1A20914F033091500340915103F9
:10125000509152030E94FF176B017C0160934F0372
:101260007093500380935103909352032FE538E914
:1012700048E750ECC501B4010E94AD1A4B015C0176
:101280002AEF3DEE4BE65CEBC701B6010E94AD1ABA
:101290009B01AC01C501B4010E94FF176B017C01E9
:1012A00027E230EA49E05BE3C301B2010E94AD1AD4
:1012B0009B01AC01C701B6010E94FF176B017C01C5
:1012C0008090480290904902A0904A02B0904B0250
:1012D000A50194010E94FF172B013C01A501940177
:1012E000C701B6010E94FE17A30192010E94E40DFE
:1012F0001F910F91FF90EF90DF90CF90BF90AF9034
:101300009F908F907F906F905F904F900895CF92B5
:10131000DF92EF92FF92CF93DF9300D000D000D006
:10132000CDB7DEB710924F031092500310925103C5
:1013300010925203109207011092080110920901B5
:1013400010920A01109203011092040110920501FB
:101350001092060110924001109241011092420138
:1013600010924301109238011092390110923A0103
:1013700010923B01CE0101960E94C51769817A81C6
:10138000072E000C880B990B0E948A196B017C01B7
:101390006D817E81072E000C880B990B0E948A19A3
:1013A000A70196010E947E1820EE3EE245E652E437
:1013B0000E94AD1A609354037093550380935603B3
:1013C0009093570326960FB6F894DEBF0FBECDBF9D
:1013D000DF91CF91FF90EF90DF90CF9008954F92E3
:1013E0005F926F927F928F929F92AF92BF92CF92B5
:1013F000DF92EF92FF920F931F93CF93DF93CDB7BE
:10140000DEB7EA970FB6F894DEBF0FBECDBF2B0153
:101410003C0149015A01EFAAF8AE09AF1AAF809119
:101420000201811138C120E030E044E352E4C501FB
:10143000B4019F770E94DD1888230CF014C10E942C
:101440001D16843609F451C030F4803209F464C0AA
:101450008136A1F179C08337D1F0873709F074C0A4
:1014600020E030E040E85FE360914B0370914C0373
:1014700080914D0390914E030E94FF1760934B03A0
:1014800070934C0380934D0390934E035DC020E016
:1014900030E040E85FE360914B0370914C03809132
:1014A0004D0390914E030E94FE1760934B0370937F
:1014B0004C0380934D0390934E0346C020E030E0F0
:1014C00040E85FE3609148027091490280914A02CE
:1014D00090914B020E94FF1760934802709349025B
:1014E00080934A0290934B022FC020E030E040E806
:1014F0005FE3609148027091490280914A029091A5
:101500004B020E94FE176093480270934902809339
:101510004A0290934B0218C010924B0310924C0356
:1015200010924D0310924E031092480210924902FD
:1015300010924A0210924B0210923C0110923D010F
:1015400010923E0110923F0125E33AEF4EE85CE332
:101550006FA978AD89AD9AAD0E94AD1A2DEC3CEC27
:1015600044E051E40E94AD1AA30192010E94FF17CA
:101570009B01AC0160914B0370914C0380914D0332
:1015800090914E030E94FE176B017C012AE037ED1B
:1015900043E25CE30E94AD1A2091070130910801FB
:1015A0004091090150910A010E94FF172B013C0153
:1015B00060930701709308018093090190930A01D9
:1015C00020910301309104014091050150910601E1
:1015D000C701B6010E94FE172AE037ED43E25CE343
:1015E0000E94E7186BAB7CAB8DAB9EABC092030146
:1015F000D0920401E0920501F09206012EE93EE549
:1016000049E15FE3C701B6010E94AD1A6B017C019D
:1016100026E434E946E45FE3C301B2010E94AD1A57
:101620009B01AC01C701B6010E94FF176B017C0151
:1016300024E237E94FE75CE36BA97CA98DA99EA959
:101640000E94AD1A9B01AC01C701B6010E94FF17B1
:101650007B018C012FA938AD49AD5AADC501B4014C
:101660000E94040978C081E08093020189E1E8E6E4
:10167000F0E0DE01119601900D928A95E1F7CE011E
:1016800001960E94631620E030E0A901CA01B90169
:101690000E94E40D60C0CA01B9019F7720E030E0EC
:1016A00040EA51E40E94DD1888230CF054C0C09039
:1016B000FE00D090FF00E0900001F0900101C11405
:1016C000D104E104F10409F58AE1E1E8F0E0DE018A
:1016D000119601900D928A95E1F7CE0101960E9434
:1016E00063168091FE009091FF00A0910001B091DF
:1016F00001010196A11DB11D8093FE009093FF0092
:10170000A0930001B093010126C0C701B6010E9459
:101710008A1920E030E048E453E40E94DD18882371
:1017200074F48FEFC81AD80AE80AF80AC092FE00CB
:10173000D092FF00E0920001F09201010CC01092E3
:1017400002011092FE001092FF0010920001109210
:1017500001010E948709EA960FB6F894DEBF0FBE1A
:10176000CDBFDF91CF911F910F91FF90EF90DF9050
:10177000CF90BF90AF909F908F907F906F905F9031
:101780004F9008958F929F92AF92BF92CF92DF9227
:10179000EF92FF920F931F93CF93DF93CDB7DEB7F6
:1017A00060970FB6F894DEBF0FBECDBFBE016B5F72
:1017B0007F4FCE0101960E945D08BE01635F7F4F9F
:1017C000CE0109960E94620DCD80DE80EF80F88404
:1017D00089809A80AB80BC802D853E854F85588955
:1017E00069857A858B859C850E94FF1720E030E013
:1017F00040E05FE30E94AD1A87017601A5019401E4
:101800000E94EF0960960FB6F894DEBF0FBECDBF01
:10181000DF91CF911F910F91FF90EF90DF90CF90CC
:10182000BF90AF909F908F900895CF93DF93CDB7E7
:10183000DEB767970FB6F894DEBF0FBECDBFD29A62
:10184000D19AD09AB99AD89A2FEF89E698E1215087
:1018500080409040E1F700C0000089B7826089BFF6
:101860008DE083BF8EE48CBF0E9404160E94C512D7
:101870000E94CB0C0E94E8160E9433170E94A71703
:101880000E9491140E9402100E9487090E94EE1289
:1018900078948BE990E00E946316D898D99AB2990F
:1018A000FECF2FEF89E698E1215080409040E1F78C
:1018B00000C00000D998DA9A80910B018823E1F3E7
:1018C00010920B0180916000811103C00E94360FBD
:1018D0003AC0813019F40E94C20B35C0823079F5CC
:1018E0008E010F5F1F4F9E01285F3F4FAE01445F87
:1018F0005F4FBE01605F7F4FCE0144960E9405108E
:10190000A884B984CA84DB84EC84FD840E851F8599
:10191000288939894A895B896C897D898E899F8963
:10192000EC81EF93EB81EF93EA81EF93E981EF9301
:101930000E9404110F900F900F900F9004C08330FD
:1019400011F40E94360F80910B01882309F4B4CF63
:1019500087E0E1E6F0E0DE01119601900D928A95B4
:10196000E1F7CE0101960E946316A6CF1F920F9257
:101970000FB60F9211248F939F9381E080930B01F8
:1019800098B382E0892788BB9F918F910F900FBEFB
:101990000F901F901895A79AA69A8D9A8C9A82EA12
:1019A0008FBD88E18EBD8EB581608EBD8FE193E0E5
:1019B00097BD86BD0895CF92DF92EF92FF92CF93AD
:1019C000C82F6A017B0120E030E040E85FE3C701F7
:1019D000B6010E94A01A18160CF460C020E030E096
:1019E00040E85FEBC701B6010E94DD1888230CF4C4
:1019F00052C0C1112BC020E030E0A901C701B601DF
:101A00000E94A01A18164CF012C00F2EC12CD12C17
:101A1000F0E8EF2EFFE3FF2EF02DAE9809C00F2E59
:101A2000C12CD12CF0E8EF2EFFEBFF2EF02DAE9A5B
:101A3000C701B6019F7720E030EC47E454E40E94F0
:101A4000AD1A0E94591979BD68BD36C0C130A1F5E3
:101A500020E030E0A901C701B6010E94DD1888230B
:101A60005CF408C00F2EC12CD12CF0E8EF2EFFEB58
:101A7000FF2EF02DAF9801C0AF9AC701B6019F7736
:101A800020E030EC47E454E40E94AD1A0E9459195A
:101A90007BBD6ABD11C0CC2311F20CC0CC2309F46C
:101AA000B4CF0F2EC12CD12CF0E8EF2EFFE3FF2E88
:101AB000F02DCCCFC130B1F2CF91FF90EF90DF90FD
:101AC000CF9008954F925F926F927F928F929F92E4
:101AD000AF92BF92CF92DF92EF92FF920F931F933C
:101AE000CF93DF93EC018B0180E00E945A174B01EA
:101AF0005C0181E00E945A176B017C0180910C010E
:101B000090910D01A0910E01B0910F0126013701B6
:101B1000481A590A6A0A7B0A8091100190911101B2
:101B2000A0911201B0911301A5019401281B390B5A
:101B30004A0B5B0BCA01B9010E948A192AEE3AEBE3
:101B40004CEB5BE30E94AD1A2AE037ED43E25CE325
:101B50000E94E718688379838A839B83C301B2015B
:101B60000E948A192AEE3AEB4CEB5BE30E94AD1A15
:101B70002AE037ED43E25CE30E94E718F801608356
:101B80007183828393838092100190921101A092BD
:101B90001201B0921301C0920C01D0920D01E0929B
:101BA0000E01F0920F01DF91CF911F910F91FF90E5
:101BB000EF90DF90CF90BF90AF909F908F907F90ED
:101BC0006F905F904F9008952F923F924F925F9247
:101BD0006F927F928F929F92AF92BF92CF92DF923D
:101BE000EF92FF920F931F93CF93DF93CDB7DEB7A2
:101BF000C65AD1090FB6F894DEBF0FBECDBF262E50
:101C0000372E082F192FCD55DF4F288339834A836C
:101C10005B83C35AD0400E94CF12F62EE72ED82EF7
:101C2000C92E20E030E0A901622D732D802F912F65
:101C30000E94A01A181614F120E030E0A901622DCC
:101C4000732D802F912F0E94DD18882374F5C156C3
:101C5000DF4F1882CF59D040C056DF4F1882C05A8C
:101C6000D04080E8CF55DF4F8883C15AD0409FEBEA
:101C7000CE55DF4F9883C25AD0402BC0C156DF4F9C
:101C80001882CF59D040C056DF4F1882C05AD0407A
:101C900080E8CF55DF4F8883C15AD0409FE3CE55AF
:101CA000DF4F9883C25AD04014C0C156DF4F18820C
:101CB000CF59D040C056DF4F1882C05AD040CF55C0
:101CC000DF4F1882C15AD040CE55DF4F1882C25A1A
:101CD000D040BE016B5F7F4FCE0101960E94620D26
:101CE0002F2D3E2D4D2D5C2D6CE57FE88AEF90E485
:101CF0000E94E7184B015C0121E935EB46E05CE30B
:101D0000622D732D802F912F0E94AD1A2B013C0163
:101D100029EC3FE14CE85CE3C156DF4FB881CF5975
:101D2000D040C056DF4FA881C05AD040CF55DF4FBA
:101D3000F881C15AD040CE55DF4FE881C25AD04019
:101D40006B2F7A2F8F2F9E2F0E94AD1A9B01AC0113
:101D5000C301B2010E94FF17A50194010E94AD1AB0
:101D6000462E572E682E792E21E935EB46E05CE3AE
:101D7000CD55DF4F688179818A819B81C35AD040DC
:101D80000E94AD1A20E030E0A9010E94FF17A501D2
:101D900094010E94AD1A4B015C01CE55DF4F888142
:101DA000C25AD0408F93CF55DF4F9881C15AD0404F
:101DB0009F93C056DF4F8881C05AD0408F93C15641
:101DC000DF4F9881CF59D0409F937F926F925F925F
:101DD0004F921F930F933F922F928C818F938B8101
:101DE0008F938A818F9389818F93CF92DF92EF9225
:101DF000FF9285EB90E09F938F931F9286E98F93DC
:101E00007E0189E0E80EF11CFF92EF920E942620ED
:101E1000C7010E946316442D552D662D772D80E055
:101E20000E94DB0CB501A40181E00E94DB0C0FB61F
:101E3000F894DEBF0FBECDBFCA55DF4F0FB6F89482
:101E4000DEBF0FBECDBFDF91CF911F910F91FF90ED
:101E5000EF90DF90CF90BF90AF909F908F907F904A
:101E60006F905F904F903F902F9008954F925F92A8
:101E70006F927F928F929F92AF92BF92CF92DF929A
:101E8000EF92FF920E941D168436F1F138F48032F1
:101E900009F471C0813609F44EC085C08337E9F07A
:101EA000873721F0813709F07EC05CC020E030E048
:101EB00040E450E460914B0370914C0380914D03DA
:101EC00090914E030E94FF1760934B0370934C0355
:101ED00080934D0390934E0366C020E030E040EACB
:101EE00050E460914B0370914C0380914D039091AD
:101EF0004E030E94FE1760934B0370934C03809334
:101F00004D0390934E034FC020E030E040E85FE384
:101F1000609148027091490280914A0290914B026F
:101F20000E94FF17609348027093490280934A020F
:101F300090934B0238C020E030E040E85FE36091CE
:101F400048027091490280914A0290914B020E948E
:101F5000FE17609348027093490280934A0290935F
:101F60004B0221C0109248021092490210924A027C
:101F700010924B0218C010924B0310924C03109217
:101F80004D0310924E031092480210924902109293
:101F90004A0210924B0210923C0110923D011092A5
:101FA0003E0110923F01C0904B03D0904C03E09053
:101FB0004D03F0904E038090480290904902A0900B
:101FC0004A02B0904B02A5019401C701B6010E94DC
:101FD000FE172B013C01A5019401C701B6010E9427
:101FE000FF17A30192010E94E40DFF90EF90DF9094
:101FF000CF90BF90AF909F908F907F906F905F90A9
:102000004F9008950E949E1408952F923F924F92F0
:102010005F926F927F928F929F92AF92BF92CF9278
:10202000DF92EF92FF920F931F93CF93DF93CDB781
:10203000DEB762970FB6F894DEBF0FBECDBF9E87A6
:102040008D87788B6F871A013A8B298BBE016B5F66
:102050007F4FCE0101960E94620D49805A806B80AD
:102060007C808D809E80AF80B884A5019401C301DF
:10207000B2010E94FF1720E030E040E05FE30E94E1
:10208000AD1A6B017C01A3019201C501B4010E944C
:10209000FE1726E636E64EE151E40E94E71869870E
:1020A0007A878B879C878090200190902101A09057
:1020B0002201B0902301C501B4010E94E2189B01E6
:1020C000AC01C701B6010E94AD1A2AE037ED43E228
:1020D0005CE30E94AD1A20912801309129014091C2
:1020E0002A0150912B010E94FF172B013C016093A4
:1020F00028017093290180932A0190932B01C50137
:10210000B4010E941A1B9B01AC01C701B6010E94D9
:10211000AD1A2AE037ED43E25CE30E94AD1A9B0161
:10212000AC0160912401709125018091260190916C
:1021300027010E94FF17609324017093250180936B
:102140002601909327012AE037ED43E25CE369859D
:102150007A858B859C850E94AD1AA50194010E9409
:10216000FF176093200170932101809322019093C7
:102170002301D1014D925D926D927C9213978091D3
:10218000240190912501A0912601B0912701E989B0
:10219000FA8980839183A283B383809120019091F7
:1021A0002101A0912201B0912301F8018083918344
:1021B000A283B383AD85BE85CD92DD92ED92FC9274
:1021C000139789859A85AB85BC85EF85F8898083CF
:1021D0009183A283B38362960FB6F894DEBF0FBEDD
:1021E000CDBFDF91CF911F910F91FF90EF90DF90C6
:1021F000CF90BF90AF909F908F907F906F905F90A7
:102200004F903F902F9008954F925F926F927F92E0
:102210008F929F92AF92BF92CF92DF92EF92FF92F6
:102220000F931F93CF93DF93CDB7DEB7A8970FB669
:10223000F894DEBF0FBECDBF698F7A8F8B8F9C8FD6
:10224000EDA2FEA20FA318A719821A821B821C827C
:102250001D821E821F82188619861A861B861C867E
:102260001D861E861F86188A9E01235F3F4FAE0182
:10227000475F5F4FBE016B5F7F4FCE0101960E94AB
:10228000AF1489819A81AB81BC81898B9A8BAB8B8E
:10229000BC8B2AE037ED43E25CE3BC01CD010E9438
:1022A000AD1A20911C0130911D0140911E015091E9
:1022B0001F010E94FF176D8B7E8B8F8B988F609311
:1022C0001C0170931D0180931E0190931F018D814D
:1022D0009E81AF81B8858D8F9E8FAF8FB8A32AE086
:1022E00037ED43E25CE3BC01CD010E94AD1A2091C1
:1022F00018013091190140911A0150911B010E945F
:10230000FF172B013C016093180170931901809312
:102310001A0190931B016BAD7CAD8DAD9EAD0E94FB
:10232000E21869A37AA38BA39CA39B01AC01698DDE
:102330007A8D8B8D9C8D0E94AD1A9B01AC016989B1
:102340007A898B899C890E94FE1724EE3BEC46E13A
:1023500051E40E94AD1A29853A854B855C850E941F
:10236000FF17698B7A8B8B8B9C8B2DA13EA14FA184
:1023700058A56D897E898F89988D0E94FE1723E26A
:1023800037EA41EB51E40E94AD1A9B01AC01698927
:102390007A898B899C890E94FF176D8B7E8B8F8B2E
:1023A000988F6BAD7CAD8DAD9EAD0E941A1B698B75
:1023B0007A8B8B8B9C8B9B01AC01698D7A8D8B8D7D
:1023C0009C8D0E94AD1A9B01AC016D8D7E8D8F8D11
:1023D00098A10E94FE1724EE3BEC46E151E40E94D6
:1023E000AD1A2D853E854F8558890E94FF176D8F48
:1023F0007E8F8F8F98A3A6019501C301B2010E9421
:10240000FE1723E237EA41EB51E40E94AD1A9B012B
:10241000AC016D8D7E8D8F8D98A10E94FF174B01B1
:102420005C012D893E894F89588D69A17AA18BA1C4
:102430009CA10E94AD1A2B013C01A5019401698960
:102440007A898B899C890E94AD1A9B01AC01C301DA
:10245000B2010E94FF172B013C01698D7A8D8B8D93
:102460009C8D9F772DEC3CEC4CE45DE30E94A01A20
:1024700018164CF5298D3A8D4B8D5C8D69A17AA18A
:102480008BA19CA10E94E718A50194010E94AD1A9E
:102490004B015C01298D3A8D4B8D5C8D69897A8960
:1024A0008B899C890E94E7182D893E894F89588D18
:1024B0000E94AD1A9B01AC01C501B4010E94FE1738
:1024C0006B017C0103C0C12CD12C76012AE037EDD1
:1024D00043E25CE3C301B2010E94AD1A20911401F2
:1024E0003091150140911601509117010E94FF177C
:1024F0006093140170931501809316019093170156
:102500009B01AC010E94FF174B015C0126E636E6F9
:102510004EE151E4C701B6010E94AD1A6B017C0186
:102520009B01AC01C501B4010E94FF1720E030E01F
:1025300040E05FE30E94AD1A2B013C01A701960128
:10254000C501B4010E94FE1720E030E040E05FE3E7
:102550000E94AD1AA30192010E94E40DA8960FB645
:10256000F894DEBF0FBECDBFDF91CF911F910F91C9
:10257000FF90EF90DF90CF90BF90AF909F908F90A3
:102580007F906F905F904F90089587B1836287B975
:1025900086B1876886B9369A3699FECF089587B195
:1025A000836287B9369A3699FECF65B170E080E0D4
:1025B00090E00E94881920E030E04FE753E40E9449
:1025C000E71828E431EE42E151E40E94AD1A20E020
:1025D00030E040E550E40E94AD1A08959F92AF921A
:1025E000BF92CF92DF92EF92FF920F931F93CF9300
:1025F000DF93CDB7DEB76E970FB6F894DEBF0FBE90
:10260000CDBF0E94CF12D62EC72EB82EA92E26E6F9
:1026100036E646EE50E40E94DD1888230CF041C0F7
:1026200078941A821982FE0133968CE1DF011D92A3
:102630008A95E9F70F2EF5EDEF2EF0E0FF2EF02D45
:102640008E010F5F1F4F6894992491F8AF92BF924B
:10265000CF92DF92FF92EF921F930F930E9456202A
:10266000C8010E9463168BB389258BBBBFEF29E697
:1026700088E1B15020408040E1F700C000008BB3FA
:1026800089258BBB9FEFA9E6B8E19150A040B040EF
:10269000E1F700C000000FB6F894DEBF0FBECDBF5B
:1026A000D5CF6E960FB6F894DEBF0FBECDBFDF91CB
:1026B000CF911F910F91FF90EF90DF90CF90BF903F
:1026C000AF909F90089584E986BF06B604FCFDCFC5
:1026D000089594EA96BF06B607FEFDCF806D83B9D4
:1026E00084E886BF06B607FEFDCF0895CF93DF933B
:1026F000D82FC62F80E00E946913D3B984E886BF23
:1027000006B607FEFDCFC3B984E886BF06B607FE4E
:10271000FDCF0E946313DF91CF9108950F931F9314
:10272000CF93DF93082F162FD72FC42F80E00E945E
:10273000691303B984E886BF06B607FEFDCF81E0C2
:102740000E9469134C2F50E014161506CCF4E12FAB
:10275000FD2F80E090E0BA0161507109A4E834ECEB
:102760006817790711F0232F01C02A2F26BF06B65C
:1027700007FEFDCF23B1219301968417950781F7BA
:102780000E946313DF91CF911F910F9108950F93D2
:102790001F93CF93DF9300D000D000D0CDB7DEB72A
:1027A0008C0146E0BE016F5F7F4F8DE10E948E136A
:1027B000898190E0982F88272A81822BECE2F1E032
:1027C00020813181821B930BD80111969C938E93AB
:1027D0008B8190E0982F88272C81822B2281338156
:1027E000821B930B13969C938E9312978D8190E08E
:1027F000982F88272E81822B24813581821B930B71
:1028000015969C938E93149726960FB6F894DEBF78
:102810000FBECDBFDF91CF911F910F9108954F92C1
:102820005F926F927F928F929F92AF92BF92CF9260
:10283000DF92EF92FF920F931F93CF93DF9300D01D
:1028400000D000D0CDB7DEB700E410E0C12CD12C11
:102850007601812C912C5401412C512C3201CE0156
:1028600001960E94C71389819A81092E000CAA0B38
:10287000BB0B480E591E6A1E7B1E8B819C81092E44
:10288000000CAA0BBB0B880E991EAA1EBB1E8D81C5
:102890009E81092E000CAA0BBB0BC80ED91EEA1E86
:1028A000FB1E8FE19EE40197F1F700C0000001508C
:1028B0001109A9F6ECE2F1E0689415F875946794B3
:1028C000579447941694D1F751824082689415F832
:1028D000B594A794979487941694D1F793828282A3
:1028E000689415F8F594E794D794C7941694D1F7A3
:1028F000D582C48226960FB6F894DEBF0FBECDBF38
:10290000DF91CF911F910F91FF90EF90DF90CF90CB
:10291000BF90AF909F908F907F906F905F904F90FF
:10292000089582E080B960E085E10E94761363E15A
:1029300086E10E9476130E940F1408958FE793E0BA
:10294000909359038093580381E090E090935B0348
:1029500080935A0310925D0310925C030895AF9226
:10296000BF92CF92DF92EF92FF920F931F93CF937C
:10297000DF937C016B01EA01890180915A039091F8
:102980005B03892B09F442C060915C0370915D0385
:1029900080E090E00E94881920E030E040E251E4BD
:1029A0000E94E71820E030E040E751E40E94AD1AB1
:1029B000F7016083718382839383F6011082118211
:1029C0001282138281E090E0A6E1B3E488839983C8
:1029D000AA83BB83F8011082118212821382809134
:1029E0005C0390915D03019690935D0380935C037B
:1029F0000A9708F4FEC010925B0310925A0381E01C
:102A000090E090935D0380935C03F3C0E0915C03DE
:102A1000F0915D038091580390915903E817F907ED
:102A200008F060C0E15EF34FE4916E2FEE0F770B7C
:102A3000880B990B0E948A1920E030E040E05FE3A8
:102A40000E94AD1AF7016083718382839383E091C2
:102A50005C03F0915D03E056F74FE4916E2FEE0FAB
:102A6000770B880B990B0E948A1920E030E040E038
:102A70005FE30E94AD1AF6016083718382839383C2
:102A8000E0915C03F0915D03EF5DFA4FE4916E2FEE
:102A9000EE0F770B880B990B0E948A1920E030E02B
:102AA00040E05FE30E94AD1A688379838A839B8349
:102AB000E0915C03F0915D03EE55FE4FE4916E2FC3
:102AC000EE0F770B880B990B0E948A1920E030E0FB
:102AD00040E05FE30E94AD1AF80160837183828356
:102AE00093836CC09C01220F331FE217F30708F099
:102AF00065C0E817F90729F43196F0935D03E09378
:102B00005C03A0905C03B0905D03A81AB90AF501BC
:102B1000E15EF34FE4916E2FEE0F770B880B990B6C
:102B20000E948A1920E030E040E05FE30E94AD1A85
:102B3000F6016083718382839383F501E056F74F3A
:102B4000E4916E2FEE0F770B880B990B0E948A1978
:102B500020E030E040E05FE30E94AD1AF7016083BF
:102B6000718382839383F501EF5DFA4FE4916E2FB9
:102B7000EE0F770B880B990B0E948A1920E030E04A
:102B800040E05FE30E94AD1AF801608371838283A5
:102B90009383F501EE55FE4FE4916E2FEE0F770B08
:102BA000880B990B0E948A1920E030E040E05FE337
:102BB0000E94AD1A688379838A839B8320915C038A
:102BC00030915D038091580390915903880F991FAC
:102BD00001978217930739F481E090E090935D03A9
:102BE00080935C0306C02F5F3F4F30935D032093BB
:102BF0005C03DF91CF911F910F91FF90EF90DF90D9
:102C0000CF90BF90AF90089510923201109233018F
:102C1000109253031092470210925E0380B58F7793
:102C200080BD10BC8CE089B9599880B5806880BDA2
:102C300086E880BD88ED8AB908959091530380910C
:102C40004702981789F0E091470281E08E0F809348
:102C50004702F0E0E45BFD4F8081909147029F3F87
:102C600021F410924702089580E008955D9B17C0FB
:102C70009091320180913301981789F0E0913301EE
:102C800081E08E0F80933301F0E0E85BFE4F80819E
:102C90008CB9809133018F3F11F410923301089564
:102CA000E091320191E09E0F90933201F0E0E85BF9
:102CB000FE4F8083809132018F3F11F410923201D8
:102CC0000E9436160895CF93DF93EC018881882304
:102CD00031F021960E94501689918111FBCFDF912E
:102CE000CF9108959CB1E091530381E08E0F8093C2
:102CF0005303F0E0E45BFD4F9083809153038F3FDB
:102D000011F41092530380915E03E82FF0E0EE502F
:102D1000FF4F2081921311C08F5F80935E038A3032
:102D200071F483E60E94501699E088E10FB6F8949A
:102D3000A89581BD0FBE91BDFFCF10925E0308958F
:102D40001F920F920FB60F9211242F933F934F9320
:102D50005F936F937F938F939F93AF93BF93EF9303
:102D6000FF930E943616FF91EF91BF91AF919F9113
:102D70008F917F916F915F914F913F912F910F9024
:102D80000FBE0F901F9018951F920F920FB60F92C3
:102D900011242F933F934F935F936F937F938F9360
:102DA0009F93AF93BF93EF93FF930E947216FF918F
:102DB000EF91BF91AF919F918F917F916F915F91B3
:102DC0004F913F912F910F900FBE0F901F9018952C
:102DD000BF9ABD9ABB9AB89ABC9A6C9A6E9A6B9835
:102DE0006A9888B3896188BB0895811105C06B9882
:102DF0006A98C4986D980895813029F46B986A9800
:102E0000C0986D980895823029F46B9A6A9AC39895
:102E10006D980895833619F488B3896188BB089545
:102E20008FB9779BFECF8FB10895CF93DF93D62FC5
:102E3000C42F0E94F5168D2F0E9410178C2F0E9410
:102E4000101783E60E94F516DF91CF910895CF9376
:102E5000C62F0E94F5168C2F0E94101783E60E9441
:102E6000F516CF91089544E060E980E00E941517BF
:102E700043E068E880E00E94151760E280E00E946D
:102E8000271740E060E980E00E94151744E060E900
:102E900081E00E94151743E068E881E00E94151761
:102EA00060E281E00E94271740E060E981E00E9433
:102EB00015170895CF92DF92EF92FF92CF93DF9391
:102EC000C82F0E94F51680E60E94101780E00E942D
:102ED0001017D82F80E00E941017C82ED12CE12C9B
:102EE000F12C7601DD24CC24FD2A80E00E9410170D
:102EF000D82F80E00E941017C82ADD2A83E60E949E
:102F0000F516C13041F4F094E094D094C094C11C03
:102F1000D11CE11CF11CC701B601DF91CF91FF90DC
:102F2000EF90DF90CF900895CF93DF93D82FC62FE7
:102F300082E00E94F5168D2F0E9410178C2F0E94A0
:102F4000101783E60E94F516DF91CF9108956AE08D
:102F50008CE20E9494176BE081E30E94941760E07A
:102F60008DE20E94941760E18DE20E94941768E060
:102F70008DE20E9494172FEF80E792E0215080406D
:102F80009040E1F700C000000895CF93DF93EC017B
:102F900082E00E94F51682EF0E94101780E00E94E6
:102FA000101790E09983888380E00E941017288191
:102FB0003981382B3983288380E00E94101790E0F4
:102FC0009B838A8380E00E9410172A813B81382BE3
:102FD0003B832A8380E00E94101790E09D838C83BE
:102FE00080E00E9410172C813D81382B3D832C837B
:102FF00083E60E94F516DF91CF9108955058BB27C4
:10300000AA270E9416180C94521A0E94191A38F016
:103010000E94201A20F039F49F3F19F426F40C94F2
:10302000EF190EF4E095E7FB0C94E919E92F0E94E3
:10303000771A58F3BA17620773078407950720F0C9
:1030400079F4A6F50C94991A0EF4E0950B2EBA2F8C
:10305000A02D0B01B90190010C01CA01A00111249E
:10306000FF27591B99F0593F50F4503E68F11A164A
:10307000F040A22F232F342F4427585FF3CF4695DB
:1030800037952795A795F0405395C9F77EF41F16FD
:10309000BA0B620B730B840BBAF09150A1F0FF0FC7
:1030A000BB1F661F771F881FC2F70EC0BA0F621FB3
:1030B000731F841F48F4879577956795B795F795A3
:1030C0009E3F08F0B0CF9395880F08F09927EE0F38
:1030D0009795879508950E94191A60F080E891E00D
:1030E00009F49EEF0E94201A28F040E851E071F4A4
:1030F0005EEF0CC00C94EF190C94991AE92FE0784C
:103100000E94771A40F3092E052AB1F326173707D4
:103110004807590738F00E2E07F8E02569F0E0253A
:10312000E0640AC0EF6307F8009407FADB01B90115
:103130009D01DC01CA01AD01EF930E94FE180E94BF
:10314000521A0E94AE185F91552339F02BED3FE0E3
:1031500049E450FD49EC0C94FF170895DF93DD27F7
:10316000B92FBF7740E85FE31616170648075B07DD
:1031700018F4D92F0E94A51A9F938F937F936F9372
:103180000E94221BE4E5F0E00E94F2190E94521A0C
:103190002F913F914F915F910E94C01ADD2351F012
:1031A0009058A2EA2AED3FE049EC5FE3D0785D2732
:1031B0000E941618DF910C94521A0E94C51908F447
:1031C00081E008950E94291AE3950C94631A0E94E5
:1031D000FB180C94521A0E94201A58F00E94191AD7
:1031E00040F029F45F3F29F00C94E91951110C9437
:1031F0009A1A0C94EF190E94771A68F39923B1F385
:10320000552391F3951B550BBB27AA27621773070C
:10321000840738F09F5F5F4F220F331F441FAA1FA0
:10322000A9F335D00E2E3AF0E0E832D0915050405C
:10323000E695001CCAF72BD0FE2F29D0660F771F0A
:10324000881FBB1F261737074807AB07B0E809F0F0
:10325000BB0B802DBF01FF2793585F4F3AF09E3F75
:10326000510578F00C94E9190C949A1A5F3FE4F335
:10327000983ED4F3869577956795B795F7959F5FB8
:10328000C9F7880F911D9695879597F90895E1E004
:10329000660F771F881FBB1F621773078407BA0763
:1032A00020F0621B730B840BBA0BEE1F88F7E095BE
:1032B00008950E947F1A88F09F5798F0B92F992798
:1032C000B751B0F0E1F0660F771F881F991F1AF011
:1032D000BA95C9F714C0B13091F00E94991AB1E0C3
:1032E00008950C94991A672F782F8827B85F39F0C2
:1032F000B93FCCF3869577956795B395D9F73EF4AA
:1033000090958095709561957F4F8F4F9F4F089551
:10331000E89409C097FB3EF490958095709561956F
:103320007F4F8F4F9F4F9923A9F0F92F96E9BB2725
:103330009395F695879577956795B795F111F8CFA1
:10334000FAF4BB0F11F460FF1BC06F5F7F4F8F4F0C
:103350009F4F16C0882311F096E911C0772321F002
:103360009EE8872F762F05C0662371F096E8862F9A
:1033700070E060E02AF09A95660F771F881FDAF7F1
:10338000880F9695879597F90895990F0008550F1E
:10339000AA0BE0E8FEEF16161706E807F907C0F0DB
:1033A00012161306E407F50798F0621B730B840BE3
:1033B000950B39F40A2661F0232B242B252B21F4BD
:1033C00008950A2609F4A140A6958FEF811D811D5D
:1033D000089597F99F6780E870E060E008959FEF97
:1033E00080EC0895DF93CF931F930F93FF92EF929A
:1033F000DF927B018C01689406C0DA2EEF010E94F7
:10340000C01AFE01E894A5912591359145915591F9
:10341000A6F3EF010E941618FE019701A801DA94A5
:1034200069F7DF90EF90FF900F911F91CF91DF919F
:10343000089500240A94161617061806090608951A
:1034400000240A94121613061406050608950C9417
:10345000EF190E947F1AD8F3E894E0E0BB279F574A
:10346000F0F02AED3FE049EC06C0EE0FBB0F661FFF
:10347000771F881F28F0B23A62077307840728F085
:10348000B25A620B730B840BE3959A9572F78038EE
:1034900030F49A95BB0F661F771F881FD2F79048AC
:1034A0000C94281B092E0394000C11F4882352F06D
:1034B000BB0F40F4BF2B11F460FF04C06F5F7F4F60
:1034C0008F4F9F4F0895EF93E0FF07C0A2EA2AEDC8
:1034D0003FE049EC5FEB0E9416180E94521A0F90D1
:1034E000039401FC9058E1E8F0E00C94341B57FD84
:1034F0009058440F551F59F05F3F71F04795880F62
:1035000097FB991F61F09F3F79F0879508951216F8
:1035100013061406551FF2CF4695F1DF08C01616A4
:1035200017061806991FF1CF869571056105089455
:103530000895E894BB2766277727CB0197F908956C
:103540000E94C51908F48FEF08959B01AC0160E05B
:1035500070E080E89FE30C94E7180E94C01A0C9476
:10356000521A0E94191A38F00E94201A20F095234E
:1035700011F00C94E9190C94EF1911240C949A1A77
:103580000E94771A70F3959FC1F3950F50E0551F75
:10359000629FF001729FBB27F00DB11D639FAA27A8
:1035A000F00DB11DAA1F649F6627B00DA11D661FF7
:1035B000829F2227B00DA11D621F739FB00DA11D18
:1035C000621F839FA00D611D221F749F3327A00DD2
:1035D000611D231F849F600D211D822F762F6A2F6E
:1035E00011249F5750409AF0F1F088234AF0EE0FD3
:1035F000FF1FBB1F661F771F881F91505040A9F700
:103600009E3F510580F00C94E9190C949A1A5F3F83
:10361000E4F3983ED4F3869577956795B795F7953B
:10362000E7959F5FC1F7FE2B880F911D96958795B3
:1036300097F908959F930E94291A0F9007FCEE5F57
:103640000C94631A9B01AC010C94AD1A9F3F31F0AE
:10365000915020F4879577956795B795880F911DC0
:103660009695879597F908959F938F937F936F937E
:10367000FF93EF939B01AC010E94AD1AEF91FF9174
:103680000E94F2192F913F914F915F910C94AD1AC6
:10369000A0E1B0E0EEE4FBE10C94C51E7C011B014F
:1036A0006A01FC0117821682838181FF44C39E0157
:1036B0002F5F3F4F3901F7019381F10193FD859110
:1036C00093FF81911F01882309F431C3853239F4B6
:1036D00093FD859193FF81911F01853239F4B701E4
:1036E00090E00E94EA1F56016501E5CF10E0512CE1
:1036F000912CFFE1F915D8F08B3279F038F4803253
:1037000079F08332A1F4F92DF0612EC08D3261F091
:10371000803369F4292D21602DC0392D3260932E1C
:10372000892D8460982E2AC0E92DE86015C097FC89
:103730002DC020ED280F2A3088F496FE06C03AE00E
:10374000139F200D1124122F19C08AE0589E200DBE
:103750001124522EE92DE0629E2E10C08E3231F4DB
:1037600096FCE5C2F92DF0649F2E08C08C3621F43A
:10377000292D2068922E02C0883641F4F10193FD74
:10378000859193FF81911F018111B3CF9BEB980F1E
:10379000933020F4992D9061805E07C09BE9980FCB
:1037A000933008F066C1992D9F7E96FF16E09F73B7
:1037B000992E853619F49064992E08C0863621F426
:1037C000392F3068932E02C01111115097FE07C097
:1037D0001C3350F444244394410E27E00BC01830AE
:1037E00038F027E017E005C027E09CE3492E02C02F
:1037F000212F412C560184E0A80EB11CF6016081F6
:10380000718182819381042DA3010E94FC1E6C01B1
:10381000F981FC87F0FF02C0F3FF06C091FC06C0EF
:1038200092FE06C000E205C00DE203C00BE201C03B
:1038300000E08C858C7019F001115AC29BC297FE72
:1038400010C04C0CFC85F4FF04C08A81813309F45C
:103850004A94141474F528E0241578F588E0482E6D
:103860002CC096FC2AC0812F90E08C159D059CF001
:103870003CEFC3163FEFD30674F0892D8068982E75
:103880000AC0E2E0F0E0EC0FFD1FE10FF11D8081C6
:10389000803319F411501111F4CF97FE0EC0442457
:1038A0004394410E812F90E0C816D9062CF41C19C0
:1038B00004C04424439401C010E097FE06C01C14C9
:1038C0001D0434F4C601019605C085E090E002C0F5
:1038D00081E090E001110196112331F0212F30E0B9
:1038E0002F5F3F4F820F931F252D30E082179307E4
:1038F00014F4581A01C0512C892D897049F45520AF
:1039000039F0B70180E290E00E94EA1F5A94F7CFA5
:10391000002329F0B701802F90E00E94EA1F93FC5A
:1039200009C0552039F0B70180E390E00E94EA1FFA
:103930005A94F7CF97FE4CC04601D7FE02C0812CA7
:10394000912CC60188199909F301E80FF91FFE8728
:10395000ED87960124193109388B2F87012F10E04C
:103960001195019511093FEF8316930629F4B701CC
:103970008EE290E00E94EA1FC814D9044CF08F85B3
:1039800098898815990524F4ED85FE85818101C00B
:1039900080E3F1E08F1A91082D853E852F5F3F4F20
:1039A0003E872D87801691062CF0B70190E00E948B
:1039B000EA1FD9CFC814D90441F49A81963320F470
:1039C000953319F43C8534FF81E3B70190E04EC094
:1039D0008A81813319F09C859F7E9C87B70190E096
:1039E0000E94EA1F111105C094FC18C085E690E002
:1039F00017C0B7018EE290E00E94EA1F1E5F82E0CE
:103A000001E0080FF301E80FF11D8081B70190E09C
:103A10000E94EA1F802F0113F3CFE6CF85E490E0E8
:103A2000B7010E94EA1FD7FC06C0C114D10441F4BB
:103A3000EC85E4FF05C0D194C194D1088DE201C0AA
:103A40008BE2B70190E00E94EA1F80E32AE0C216F1
:103A5000D1042CF08F5FFAE0CF1AD108F7CFB7016D
:103A600090E00E94EA1FB701C601C0960E94EA1FBB
:103A700054C1833631F0833779F0833509F056C06D
:103A800020C0560132E0A30EB11CF601808189836B
:103A900001E010E0630112C05601F2E0AF0EB11C6C
:103AA000F601C080D18096FE03C0612F70E002C095
:103AB0006FEF7FEFC6010E94DF1F8C01F92DFF77AA
:103AC00014C0560122E0A20EB11CF601C080D180C4
:103AD00096FE03C0612F70E002C06FEF7FEFC6015A
:103AE0000E94D41F8C01F92DF0689F2EF3FD1AC09F
:103AF000852D90E008171907A8F4B70180E290E03F
:103B00000E94EA1F5A94F4CFF60197FC859197FE24
:103B100081916F01B70190E00E94EA1F51105A9401
:103B2000015011090115110579F7F7C0843611F01C
:103B3000893661F5560197FE09C024E0A20EB11C3A
:103B4000F60160817181828193810AC0F2E0AF0E3B
:103B5000B11CF60160817181072E000C880B990B56
:103B6000F92DFF769F2E97FF09C09095809570954F
:103B700061957F4F8F4F9F4FF0689F2E2AE030E076
:103B8000A3010E947820C82EC6183FC0092D853792
:103B900021F40F7E2AE030E01DC0097F8F3691F0BE
:103BA00018F4883559F0C3C0803719F0883711F000
:103BB000BEC0006104FF09C0046007C094FE08C0D5
:103BC000066006C028E030E005C020E130E002C019
:103BD00020E132E0560107FF09C084E0A80EB11CC5
:103BE000F601608171818281938108C0F2E0AF0E9D
:103BF000B11CF6016081718180E090E0A3010E9418
:103C00007820C82EC6180F77902E96FE0BC0092D6F
:103C10000E7FC11650F494FE0AC092FC08C0092D14
:103C20000E7E05C0DC2C092D03C0DC2C01C0D12E7A
:103C300004FF0DC0FE01EC0DF11D8081803311F4F5
:103C4000097E09C002FF06C0D394D39404C0802F1C
:103C5000867809F0D39403FD11C000FF06C01C2D27
:103C6000D51480F4150D1D190DC0D51458F4B701E5
:103C700080E290E00E94EA1FD394F7CFD51410F4AD
:103C80005D1801C0512C04FF10C0B70180E390E023
:103C90000E94EA1F02FF17C001FD03C088E790E001
:103CA00002C088E590E0B7010CC0802F867859F0FB
:103CB00001FF02C08BE201C080E207FD8DE2B70187
:103CC00090E00E94EA1FC11638F4B70180E390E04B
:103CD0000E94EA1F1150F7CFCA94F301EC0DF11DB9
:103CE0008081B70190E00E94EA1FC110F5CF15C096
:103CF000F4E0F51560F584E0581A93FE1FC0011139
:103D000027C02C8523FF2AC000EA10E0392D30712E
:103D1000932EF8018491811124C0552009F4E4CC3C
:103D2000B70180E290E00E94EA1F5A94F6CFF701B3
:103D30008681978126C08FEF9FEF23C0B70180E275
:103D400090E00E94EA1F5A945110F8CFD8CF512C1E
:103D5000B701802F90E00E94EA1FD3CF04EA10E061
:103D6000D5CF91108052B70190E00E94EA1F0F5FFB
:103D70001F4FCFCF23E0251510F483E0BDCF512C8A
:103D8000C0CF6096E2E10C94E11E2F923F924F92D9
:103D90005F926F927F928F929F92AF92BF92CF92DB
:103DA000DF92EF92FF920F931F93CF93DF93CDB7E4
:103DB000DEB7CA1BDB0B0FB6F894DEBF0FBECDBF5C
:103DC00009942A88398848885F846E847D848C842D
:103DD0009B84AA84B984C884DF80EE80FD800C8136
:103DE0001B81AA81B981CE0FD11D0FB6F894DEBF19
:103DF0000FBECDBFED010895283008F027E033272E
:103E0000DA01990F311D87FD9160009661057105FA
:103E100039F432602E5F3D9330E32A95E1F708953F
:103E20009F3F30F080387105610509F03C5F3C5FD1
:103E30003D93913008F08068911DDF93CF931F93DD
:103E40000F93FF92EF92192F987F9695E92F9695F1
:103E50009695E90FFF27EE5FFE4F99273327EE2453
:103E6000FF24A701E70105900894079428F4360F72
:103E7000E71EF81E491F511D660F771F881F991FE7
:103E80000694A1F70590079428F4E70EF81E491F41
:103E9000561FC11D770F881F991F661F0694A1F733
:103EA0000590079428F4F80E491F561FC71FD11D0F
:103EB000880F991F661F771F0694A1F70590079436
:103EC00020F4490F561FC71FD81F990F661F771F71
:103ED000881F0694A9F784911095177041F0D69524
:103EE000C79557954795F794E7941A95C1F7E8EA6F
:103EF000F0E0689415901591359165919591059034
:103F00007FE27395E118F10A430B560BC90BD009F8
:103F1000C0F7E10CF11E431F561FC91FD01D7EF4D0
:103F2000703311F48A95E6CFE894015030F0080F11
:103F30000AF40027021708F4202F2395022F7A3362
:103F400028F079E37D932A95E9F710C07D932A95AF
:103F500089F6069497956795379517951794E11804
:103F6000F10A430B560BC90BD00998F023957E91AB
:103F700073957A3308F070E37C932013B8F77E9141
:103F800070617D9330F0839571E37D9370E32A95A2
:103F9000E1F71124EF90FF900F911F91CF91DF91E6
:103FA000992787FD90950895FC0105906150704018
:103FB0000110D8F7809590958E0F9F1F0895FC01F2
:103FC0006150704001900110D8F7809590958E0F48
:103FD0009F1F08950F931F93CF93DF93FB012381BE
:103FE00021FD03C08FEF9FEF2CC022FF16C046813A
:103FF0005781248135814217530744F4A081B18150
:104000009D012F5F3F4F318320838C932681378121
:104010002F5F3F4F3783268314C08B01EC01FB01D8
:104020000084F185E02D0995892BE1F6D8011696DB
:104030008D919C911797019617969C938E93169746
:10404000CE01DF91CF911F910F910895AEE0B0E0C6
:10405000ECE2F0E20C94D31E0D891E898F89988DB5
:1040600026E02C831A83098397FF02C080E090E842
:1040700001979E838D83AE01455E5F4F698D7A8D7A
:10408000CE0101960E94481B4D815E8157FD0AC0FA
:104090002F813885421753070CF49A01F801E20F7B
:1040A000F31F10822E96E4E00C94EF1EAEE0B0E019
:1040B000ECE5F0E20C94D31E0D891E8986E08C831A
:1040C0001A8309838FEF9FE79E838D83AE01475E3E
:1040D0005F4F6F89788DCE0101960E94481BEF815A
:1040E000F885E00FF11F10822E96E4E00C94EF1E8D
:1040F000FA01AA27283051F1203181F1E8946F9319
:104100006E7F6E5F7F4F8F4F9F4FAF4FB1E03ED0BE
:10411000B4E03CD0670F781F891F9A1FA11D680F5C
:10412000791F8A1F911DA11D6A0F711D811D911D8F
:10413000A11D20D009F468943F912AE0269F112404
:104140003019305D3193DEF6CF010895462F477068
:10415000405D4193B3E00FD0C9F7F6CF462F4F70C3
:10416000405D4A3318F0495D31FD4052419302D021
:10417000A9F7EACFB4E0A6959795879577956795C7
:10418000BA95C9F700976105710508959B01AC01C7
:104190000A2E06945795479537952795BA95C9F7EE
:1041A000620F731F841F951FA01D0895F894FFCF01
:1041B000016D6973730D0A00526F626F746572202E
:1041C00069737420756D676566616C6C656E0D0A48
:1041D00000526561637469766174696F6E20696EFF
:1041E000203220736563733A0D0A0046494E4953E5
:1041F00048454420494E495449414C495A41544943
:104200004F4E0D0A0025332E35662C25332E35668C
:104210002C25332E35662C25332E35662C25332E52
:1042200035660A0D00416B6B75206C656572212047
:10423000555F416B6B75203D20252E316656200A57
:0E4240000D00424F4F544C4F41444552000078
:00000001FF
